:0F0719007D367C07ED1D70011C144C70F7DFF16D
:0107280022AE
:03000300011200E7
:03000B0002066C7E
:10066C00C0E0C0D075D000C007AF121512EF600407
:10067C00C2B58005D2B5751202E51145106008E5CA
:0E068C0011151170021510D007D0D0D0E03239
:03001B00020007D9
:0100070032C6
:0300630002000890
:0100080032C5
:10022A00AD07EDD3940240037F0122ED6003020281
:10023A00BEC28C9000021203DEB40104D2A980026D
:10024A00C2A99000011203DEB40104D2B98002C22D
:10025A00B91203C5FED3940340037F0222E58954F1
:10026A00FC4EF5899000031203DEFFB40103538E9E
:10027A007FEF7003438E80EFB40205438904800345
:10028A005389FB9000041203DEB40105438F0180F9
:10029A0003538FFE900005120460E5F0F58C900080
:1002AA0005120460F58A9000071203DEB40102D237
:1002BA008C7F0022ED64016003020349C28E900024
:1002CA00021203DEB40104D2AB8002C2AB90000179
:1002DA001203DEB40104D2BB8002C2BB1203C5FE04
:1002EA00C3940340037F0222E58954CF4EF58990D7
:1002FA0000031203DEFFB40103538EBFEF70034302
:10030A008E40EFB4020543894080035389BF9000B1
:10031A00041203DEB40105438F028003538FFD905C
:10032A000005120460E5F0F58D900005120460F5F1
:10033A008B9000071203DEB40102D28E7F0022EDF9
:10034A0064027074538EEF9000021203DEB401054A
:10035A0043AF04800353AFFB9000031203DEFED3C6
:10036A00940240037F0222EEB40103538EFB9000F5
:10037A00031203DE7003438E049000031203DEB4FB
:10038A000205438E088003538EF79000041203DEA1
:10039A00B40105438F048003538FFB9000051204B8
:1003AA0060FDACF0ECF5D68DD79000071203DEB4F1
:0B03BA000103438E107F00227F02220F
:1006DD00E4F508750901750A01F50BF50C750DFFAB
:0F06ED00750E10750F01FB7A007908FF02022AC3
:10069A007509807508037B007A0079087F021200C9
:1006AA00667509077508037B007A0079087F0102DD
:0206BA000066D8
:10049800C2B553B1DF43B2201206DDD2AFC2B512E6
:1004A800069AD2A77F64120719E4FF12001EE4FD22
:1004B800FF1206BC7DFFE4FF1206BC7D68E4FF1254
:1004C80006BC7D97E4FF1206BCE4FF120634C29214
:1004D800C291C290B2A77F641207197F0112001E51
:1004E800E4FD7F011206BC7DFF7F011206BC7D98EA
:1004F8007F011206BC7D677F011206BC7F011206D0
:1005080034C292C291C290B2A77F641207197F02C7
:1005180012001EE4FD7F021206BC7DFF7F02120658
:10052800BC7DB07F021206BC7D4F7F021206BC7FE5
:0F05380002120634C292C291C290B2A70204AC62
:0406BC008F088D090D
:1006C000E4F50AE5095480FDAF081205D3E50925D4
:0C06D000E0F509050AE50AC3940840E7BC
:0106DC0022FB
:1005D3008F0BED6029E50B14600E14601424027078
:1005E3004F1206FCC2908010D2911206FEC2918077
:1005F30007D2921206FEC2927F9A7E06802FE50BE7
:1006030014601214601C240270261206FCC2907F30
:10061300307E028018D2911206FEC2917F307E0294
:10062300800BD2921206FEC2927F307E0212070224
:0106330022A4
:10001E00EF14601414601E2402702CD2907F287E80
:10002E0023120702C2908018D2917F287E231207D6
:10003E0002C291800BD2927F287E23120702C292B7
:08004E007F947E1112070222CB
:10063400EF14601414601E2402702CD2907F887E04
:1006440013120702C2908018D2917F887E1312077A
:1006540002C291800BD2927F887E13120702C2924B
:080664007FCA7E081207022282
:0606FC00D2907F307E0267
:100702007C007D0A12040BEF2401F511E43EF51082
:07071200E511451070FA2209
:10006600EFD3940540037F01221203C5FED3940308
:1000760040037F0222EF7041EE700B9000011203E5
:10008600DEF4529352941203C5B4010B9000011290
:1000960003DE4293F452941203C5FEB4020A9000A2
:1000A600011203DE42934294EEB4030D9000011256
:1000B60003DEFEF45293EE4294EF640170431203A2
:1000C600C5FE700B9000011203DEF452915292EEBF
:1000D600B4010B9000011203DE4291F45292120316
:1000E600C5B4020A9000011203DE42914292120345
:1000F600C5B4030D9000011203DEFEF45291EE42E8
:1001060092EF640270431203C5FE700B9000011259
:1001160003DEF452955296EEB4010B9000011203E1
:10012600DE4295F452961203C5B4020A90000112FB
:1001360003DE429542961203C5B4030D90000112E8
:1001460003DEFEF45295EE4296EF6403704312030B
:10015600C5FE700B9000011203DEF452B152B2EEEE
:10016600B4010B9000011203DE42B1F452B2120345
:10017600C5B4020A9000011203DE42B142B2120374
:10018600C5B4030D9000011203DEFEF452B1EE4237
:10019600B2EF640470431203C5FE700B90000112A7
:1001A60003DEF452B352B4EEB4010B900001120315
:1001B600DE42B3F452B41203C5B4020A900001122F
:1001C60003DE42B342B41203C5B4030D900001121C
:1001D60003DEFEF452B3EE42B4EF6405704312033D
:1001E600C5FF700B9000011203DEF452C952CAEF2C
:1001F600B4010B9000011203DE42C9F452CA120385
:10020600C5B4020A9000011203DE42C942CA1203B3
:10021600C5B4030D9000011203DEFFF452C9EF428C
:04022600CA7F002269
:03000000020547AF
:0C054700787FE4F6D8FD75811202058E65
:1003C500BB010689828A83E0225002E722BBFE0236
:0903D500E32289828A83E4932269
:1003DE00BB010CE58229F582E5833AF583E02250D4
:1003EE0006E92582F8E622BBFE06E92582F8E2221E
:0D03FE00E58229F582E5833AF583E4932238
:10040B00BC000BBE0029EF8DF084FFADF022E4CCD5
:10041B00F875F008EF2FFFEE33FEEC33FCEE9DEC9E
:10042B00984005FCEE9DFE0FD5F0E9E4CEFD22EDE4
:10043B00F8F5F0EE8420D21CFEADF075F008EF2F2E
:10044B00FFED33FD4007985006D5F0F222C398FD1F
:05045B000FD5F0EA22BC
:10046000BB0110E58229F582E5833AF583E0F5F0DA
:10047000A3E0225009E92582F886F008E622BBFEB7
:100480000AE92582F8E2F5F008E222E5832AF583FD
:08049000E993F5F0A3E99322C2
:10055300020498E493A3F8E493A34003F68001F222
:1005630008DFF48029E493A3F85407240CC8C333A9
:10057300C4540F4420C8834004F456800146F6DF78
:10058300E4800B0102040810204080900003E47E05
:10059300019360BCA3FF543F30E509541FFEE4936D
:1005A300A360010ECF54C025E060A840B8E493A334
:1005B300FAE493A3F8E493A3C8C582C8CAC583CA5F
:1005C300F0A3C8C582C8CAC583CADFE9DEE780BE17
:0100060000F9
:00000001FF
