:020000040800F2
:10000000400D0020ED800008710200087302000816
:10001000770200087B0200087F0200080000000051
:100020000000000000000000000000008302000843
:10003000850200080000000087020008890200080D
:100040000781000807810008078100087571000812
:100050000781000807810008078100080781000860
:100060000781000807810008078100080781000850
:100070000781000807810008078100080781000840
:100080000781000807810008078100080781000830
:100090000781000807810008078100080781000820
:1000A00007810008937200080781000803730008A5
:1000B00007810008556F00080781000807810008C4
:1000C00007810008078100080781000807810008F0
:1000D000078100080D7E0008A57E0008537F0008F8
:1000E0000781000851710008078100080781000896
:1000F00007810008078100080781000807810008C0
:1001000007810008078100080781000807810008AF
:1001100007810008078100084D0B0008DB0B000871
:10012000078100080781000807810008078100088F
:10013000078100080781000807810008078100087F
:10014000078100080781000807810008078100086F
:10015000078100080781000807810008078100085F
:10016000078100080781000807810008078100084F
:10017000078100080781000807810008078100083F
:10018000078100080781000800F002F800F061F81C
:100190000AA090E8000C82448344AAF10107DA45E2
:1001A00001D100F056F8AFF2090EBAE80F0013F0D3
:1001B000010F18BFFB1A43F001031847B4040100F4
:1001C000D40401000A444FF0000C10F8013B13F076
:1001D000070408BF10F8014B1D1108BF10F8015BA0
:1001E000641E05D010F8016B641E01F8016BF9D193
:1001F00013F0080F1EBF10F8014BAD1C0C1B09D1EA
:100200006D1E58BF01F801CBFAD505E014F8016B5B
:1002100001F8016B6D1EF9D59142D6D370470000ED
:100220000023002400250026103A28BF78C1FBD8FF
:10023000520728BF30C148BF0B60704778290CF0C7
:10024000EF80002070471FB50EF0B3FC1FBD10B546
:1002500010BD0CF071FA1146FFF7F5FF01F028FE12
:100260000CF08FFA03B4FFF7F2FF03BC07F0AAFB10
:10027000704700BFFEE700BFFEE700BFFEE700BF1C
:10028000FEE7704770477047704700000CB50020CC
:10029000019000907648006840F48030744908600E
:1002A00000BF7348006800F4003000900198401CC3
:1002B0000190009818B90198B0F5A04FF1D16C48A1
:1002C000006800F4003010B10120009001E000202F
:1002D00000900098012846D165484030006840F001
:1002E00080506349403108606248006840F44040F3
:1002F000604908605E48083000685D490831086060
:100300000846006840F4004008600846006840F471
:10031000A05008605848091F0860081F006840F096
:100320008070091F086000BF5148006800F000702D
:100330000028F9D040F20570504908604C48083058
:10034000006820F003004A49083108600846006848
:1003500040F00200086000BF45480830006800F027
:100360000C000828F8D10CBD10B54548006840F4D1
:100370007000434908603E48006840F001003C4975
:10038000086000203A4908310860394800683D4952
:100390000840374908603C48091D0860081F00688C
:1003A00020F48020091F0860002031490C310860CA
:1003B000FFF76CFF4FF0006031498039086010BDD5
:1003C00070B500200022022300240221284D0835A8
:1003D0002D6805F00C0020B1042806D0082834D17F
:1003E00007E02A4D2A4E356033E02A4D284E35600D
:1003F0002FE01F4D2D1D2D68C5F380541C4D2D1D64
:100400002D6805F03F0154B1224DB5FBF1F5184EB2
:10041000361D3668C6F3881605FB06F209E01B4D4B
:10042000B5FBF1F5124E361D3668C6F3881605FB8E
:1004300006F20F4D2D1D2D68C5F301456D1C6B0097
:10044000B2FBF3F5124E356003E0104D104E3560EF
:1004500000BF00BF064D08352D68C5F303150E4ECD
:10046000705D0B4D2D68C540094E356070BD0000B4
:10047000003802400070004008544007003C024031
:1004800088ED00E0FFFFF6FE103000240024F400A9
:100490000000002000127A00040000201CB5044671
:1004A0006A4804606A4800680090684800788DF8DF
:1004B0000700664840788DF80600644880788DF81B
:1004C00005006248C0788DF80400082269460120C2
:1004D00007F07CF920B14FF480715E4808F0CAF94A
:1004E0001CBD1CB504465C48046059480068009077
:1004F000594800788DF80700574840788DF8060075
:10050000554880788DF805005348C0788DF8040070
:1005100008226946022007F059F920B14FF4807192
:100520004C4808F0A7F91CBD70B52DED088BB0EE56
:10053000408AF0EE608AB7EE000AB0EE409A474873
:10054000006808B9012000E0002044490860B1EECD
:10055000480AB0EE408A29EE080ADFED410A20EE93
:10056000200A4048D0ED000A3F4890ED001A60EEA6
:10057000810A80EE201ABDEEC10A10EE105A29EE53
:10058000280ADFED370A20EE200A3648D0ED000AAF
:10059000354890ED001A60EE810A80EE201ABDEE1B
:1005A000C10A10EE104A28460DF035FF41EC1B0B36
:1005B0009FED2E0B53EC102B0DF094FF41EC1A0B1A
:1005C0000DF0CCFE054620460DF025FF41EC1B0B3F
:1005D0009FED260B53EC102B0DF084FF41EC1A0B12
:1005E0000DF0BCFE04462846FFF77BFF2046FFF7D0
:1005F00055FFBDEC088B70BD10B52DED048BB0EE32
:10060000408AF0EE608AB6EE000A68EE800A194869
:1006100090ED001AB0EE480A00EEC10AF0EE409AE2
:10062000B6EE000A68EE800A90ED001AB0EE480AB5
:1006300000EE810AB0EE409AF0EE690AB0EE490A87
:10064000FFF772FFBDEC048B10BD00004C000020D2
:10065000540000200014024050000020A4824242B6
:1006600000007042C8000020B0000020A5E2ECC3EA
:1006700067D80540AC00002000B589B001210220F8
:1006800008F047FE0121042008F0FAFD02220621AD
:10069000564808F0FEF802220721544808F0F9F8FD
:1006A000C020019002208DF808008DF8090001207B
:1006B0008DF80A008DF80B0001A94C4808F05EF88F
:1006C0004B480AF091FF06A80BF06FF80020ADF838
:1006D00018004FF6FE7007900020ADF82000ADF82E
:1006E0001A0006A942480BF02CF800231A460321F1
:1006F0003F480BF09AFD03A80BF031FC0620ADF843
:10070000140003A93A480BF0F3FB012138480BF021
:10071000CDFC0022012136480BF0B4FC4FF4004020
:10072000334924310860012131480BF093F809B0B6
:1007300000BD00B589B00121042008F0EAFD0121C7
:10074000022008F09DFD022206212A4808F0A1F8A7
:1007500002220721274808F09CF8C02001900220BF
:100760008DF808008DF8090001208DF80A008DF839
:100770000B0001A91F4808F001F81F480AF034FFD8
:1007800006A80BF012F80020ADF818004FF6FE7026
:1007900007900020ADF82000ADF81A0006A9164811
:1007A0000AF0CFFF00231A46032113480BF03DFD4A
:1007B00003A80BF0D4FB0620ADF8140003A90E48E3
:1007C0000BF096FB01210C480BF070FC002201217C
:1007D00009480BF057FC4FF40040074924310860EA
:1007E000012105480BF036F809B000BD00080240B1
:1007F00000040040000402400008004010B5DFED96
:10080000260A9FED250AFFF78FFE10BD10B52DEDCE
:10081000028BB0EE408AF0EE608A044608E0F0EE0B
:10082000480AB0EE680AFFF77FFE0A2007F0AAF830
:10083000201EA4F10101CCB2F1D1BDEC028B10BDA0
:1008400010B508221549012006F0C0FF08221349FF
:10085000022006F0BBFF4FF4FA7007F093F808226D
:100860000F49012006F0B2FF08220D49022006F0D0
:10087000ADFF4FF4FA7007F085F80822094901200E
:1008800006F0A4FF08220749022006F09FFF4FF45C
:10089000FA7007F077F810BD00000000600000203B
:1008A000680000205800002070B52DED048B044630
:1008B0000D461DB914B9BDEC048B70BD8C48007891
:1008C000E0B18C4890ED000A8B48D0ED000A20EE94
:1008D000200A8A48D0ED000A80EE201A884880ED70
:1008E000001A90ED000A8748D0ED000A80EE201A29
:1008F000854880ED001A00207D490870281900EE17
:10090000100AB8EEC00AF6EE000A20EE200A7F4870
:1009100080ED000A281B00EE100AB8EEC00A7C48E1
:1009200080ED000A794890ED000A7A4880ED000ACF
:10093000774890ED000A784880ED000A90ED000AB3
:100940007148D0ED000A20EE200A744880ED000ABC
:10095000734890ED000A7148D0ED000A30EE200A8D
:100960006F4880ED000A90ED000A6C48D0ED000A57
:10097000B6EE001A01EE200A6A4880ED000A00680F
:100980000EF0A6F841EC190BB0EE490AF0EE690A38
:100990000CF0A6FDB0EE408AF0EE608A51EC180B28
:1009A0000DF096FA604908605E4800680EF090F815
:1009B00041EC190BB0EE490AF0EE690A0BF004FFA6
:1009C000B0EE408AF0EE608A51EC180B0DF080FA20
:1009D000564908604F4890ED000A0846D0ED000ADD
:1009E00060EE200A464890ED001A514890ED000A4A
:1009F00000EE810A80ED000A464890ED000A4A4860
:100A0000D0ED000A60EE200A3D4890ED001A4948FA
:100A100090ED000A00EE810A80ED000A3D4890ED5D
:100A2000000A3748D0ED000A60EE200A424890EDF7
:100A3000000AB8EEC00A20EE800A404880ED000AA5
:100A40003648D0ED000A3C4890ED000AB8EEC00AE6
:100A500020EE800A3A4880ED000A314890ED000A05
:100A60002548D0ED000AB4EEE00AF1EE10FA0BDBF7
:100A70002B4890ED000A3348D0ED000A30EE600AB2
:100A8000274880ED000A17E0254890ED000A1A4833
:100A9000D0ED000AF1EE600AB4EEE00AF1EE10FAD1
:100AA0000AD21F4890ED000A2648D0ED000A30EE29
:100AB000200A1B4880ED000A00BFFCE69FED220AD9
:100AC0001B4880ED000A9FED200A1A4880ED000ABD
:100AD0009FED1D0A124880ED000A9FED1B0A174882
:100AE00080ED000A9FED180A154880ED000A704756
:100AF000F8000020B0000020C8000020C000002046
:100B0000DC000020AC000020E0000020E400002019
:100B1000E8000020D4000020D8000020BC00002005
:100B200098000020EC000020F0000020F4000020DD
:100B30009000002094000020B80000209C000020BD
:100B4000A0000020D00000200000000010B501210E
:100B5000FE480BF0AEFA01283AD1FD48007828B1E2
:100B6000FB480078401EFA4908701EE0F9480088EA
:100B700040B1F9480078022804D1F6480088401EA8
:100B8000F4490880F548007820B1F4480078401E08
:100B9000F2490870F248007820B1F1480078401E10
:100BA000EF4908700120EA4908700120ED490870FA
:100BB000ED48006808B9012000E00020EA4908601B
:100BC000EA48007820B1E9480078401EE7490870FB
:100BD0000121DE480BF07EFA10BD70B50121E4481A
:100BE0000BF067FA012815D100240025E1480068C0
:100BF000A0F500454FF40040DE490860DE4800687B
:100C0000A0F50044C813DC49086021462846FFF7D8
:100C10004BFE00BF0120D94908700121D4480BF0D8
:100C200059FA70BD38B50024D548007800287DDD1C
:100C3000D4480078012804D0022835D0032832D1C6
:100C400055E0D0484078212802D033282AD112E03C
:100C5000CC4CA41C002008E0215CCB4A1154211884
:100C60000979CA4A1154411CC8B20428F4DB022095
:100C7000BE49087016E0C34CA41C00200FE0225CA3
:100C8000C34BC11D5A5421180A7A00F10F015A545E
:100C900021180A7C00F117015A54411CC8B20828D7
:100CA000EDDB00BF00BF4DE0B6484078202802D001
:100CB000F12819D10BE000BF0220202302460121B8
:100CC0000090A44807F024F80028F5D10DE0B14CBD
:100CD00000BF0120F123022201460090204607F0C8
:100CE00017F80028F5D100E000BF00BF2AE0A548B2
:100CF0004078202824D1A34CA41C607895494870E2
:100D0000207808700846008805280BDD0846008812
:100D10004EF66021884205DA01209F4908700320C1
:100D20008D49087000BF0220202300E00BE0032261
:100D300001210090874806F0EBFF0028F3D100BFA7
:100D400000BF00BF00BF38BD08B5A82006F0B8FD41
:100D50004FF4A06007F0EAF906F092FD06F0B7FF45
:100D600001F0A8F906F098FB02F084F806F024FAE6
:100D7000002006231A460521009006F0BFFCFFF76D
:100D8000D8FCFFF779FC4021844805F0F3FF1421DB
:100D9000062006F044F842F2CF0141F2873006F017
:100DA00083F842F2CF01632006F0AAF801206A49D5
:100DB0000870012280217A4808F052FD0C21794800
:100DC00006F083FC01228021774808F049FD2721A5
:100DD000764806F07AFC4FF47A7006F0D3FDFFF700
:100DE0002FFD0120604908390860322006F0CAFD55
:100DF00000206F49C1F8A0024FF47A7006F0C2FDDE
:100E000008BD10B5FFF75AFEC820DFED6A0A9FED56
:100E10006A0AFFF7FBFC3220DFED680A9FED670AE4
:100E2000FFF7F4FCC820DFED640A9FED620AFFF7CC
:100E3000EDFC3220DFED610A9FED600AFFF7E6FC72
:100E40005F4890ED000ADFED5F0AB4EEE00AF1EED4
:100E500010FA13DC5C4890ED000ADFED5A0AB4EE9C
:100E6000E00AF1EE10FA09DC584890ED000ADFEDD7
:100E7000580AB4EEE00AF1EE10FA0FDD0DE03A4840
:100E80000838006808B9012000E000203649083918
:100E900008604FF4FA7006F075FDF0E7FFF70EFEFC
:100EA0004FF47A7006F06EFD6420DFED430A9FED8B
:100EB000420AFFF7ABFC3220DFED400A9FED3F0A0C
:100EC000FFF7A4FC3E4890ED000AB5EEC00AF1EE33
:100ED00010FA08D090ED000ADFED3E0AB4EEE00A09
:100EE000F1EE10FA0FD20DE01F480838006808B97B
:100EF000012000E000201C49083908604FF4FA7016
:100F000006F040FDF0E76420DFED2A0A9FED290A94
:100F1000FFF77CFC3220DFED290A9FED280AFFF75E
:100F200075FCFFF7CBFD4FF47A7006F02BFDC8205F
:100F3000DFED210A9FED1F0AFFF768FC3220DFED8D
:100F40001F0A9FED1E0AFFF761FC45E000100040FC
:100F500046010020640100203D01002068010020BE
:100F6000690100203C010020A88242424701002084
:100F70000014004024040040240800406A010020BE
:100F8000B2020020CC040020480100204C010020C7
:100F9000080300203E0100206B01002000000240F9
:100FA00000100140B86402400048004070600240F8
:100FB000008042420000C8C20000C8420000000099
:100FC000900000203333A3409400002098000020BC
:100FD000CDCCCC3D00004842FD4890ED000AB5EE76
:100FE000C00AF1EE10FA08D090ED000AF6EE000A01
:100FF000B4EEE00AF1EE10FA0DD20BE0F54800680D
:1010000008B9012000E00020F24908604FF4FA70AE
:1010100006F0B8FCF2E7C8205FED1A0A1FED1A0AC5
:10102000FFF7F4FB32205FED1B0A1FED1C0AFFF7F0
:10103000EDFBFFF743FD4FF47A7006F0A3FC0120AF
:10104000E4490860C82006F09DFC0020E249C1F890
:10105000A0024FF4FA6006F095FC10BD08B5DF4819
:101060000078022815D1DE4800881E2811DADD48F4
:10107000007870B100BF03200A23FF2201210090F5
:10108000D94806F045FE0028F5D14FF4FA7006F075
:1010900079FCD2480078022815D1D148008890B94F
:1010A000D2480078DFEDD20A9FEDD10AFFF7AEFB00
:1010B0000A205FED3E0A1FED3F0AFFF7A7FB012064
:1010C000C649087008BD00BFFCE710B506F0A8F9D6
:1010D0000446682C01D1012010BD982C01D10220BA
:1010E000FAE7B02C01D10320F6E70020F4E770B551
:1010F0002DED068B01250121BE4807F0A1FB01283B
:1011000013D15FED520A1FED530AFFF77FFB4FF437
:10111000FA7006F037FC0121B64807F091FB012870
:1011200002D10220AD490870E3E00121B14807F087
:1011300087FB0028F8D1FFF7C8FF0446CCBBAE48B8
:101140000078401CAC4908700846007832282FDB34
:1011500000200870A9480068401CA849086028467B
:101160000DF070F941EC1A0B9FEDA50B53EC102B11
:101170000DF0B8F941EC190B0CF0AAFE08EE100ABC
:1011800028460DF05FF941EC1A0B9FED9F0B53ECD5
:10119000102B0DF0A7F941EC190B0CF099FE08EE9D
:1011A000900A0120F0EE480AB0EE680AFFF72EFB25
:1011B0008DE0FFE70020914908608F490870012CFD
:1011C00004D0022C2CD0032C7FD153E028460DF004
:1011D00039F941EC1A0B9FED8C0B53EC102B0DF0F1
:1011E00081F941EC190B0CF073FE08EE100A284649
:1011F0000DF028F941EC1A0B9FED850B53EC102BE9
:101200000DF070F941EC190B0CF062FE08EE900A3B
:101210000120F0EE480AB0EE680AFFF7F7FA55E051
:1012200028460DF00FF941EC1A0B9FED7B0B53ECA8
:10123000102B0DF057F941EC190B0CF049FE08EE9C
:10124000100A28460DF0FEF841EC1A0B9FED720BC8
:1012500053EC102B0DF046F941EC190B0CF038FE55
:1012600008EE900A0120F0EE480AB0EE680AFFF797
:10127000CDFA2BE028460DF0E5F841EC1A0B9FED76
:10128000640B53EC102B0DF02DF941EC190B0CF005
:101290001FFE08EE100A28460DF0D4F841EC1A0B98
:1012A0009FED590B53EC102B0DF01CF941EC190B71
:1012B0000CF00EFE08EE900A0120F0EE480AB0EEA7
:1012C000680AFFF7A3FA01E0FFE700BF00BF4B4841
:1012D000006855280AD300204849086001203F498A
:1012E00008704F490870BDEC068B70BD142006F0E5
:1012F00049FB00BFF7E71CB500204A4908804AA017
:1013000010210B464FF49672CDE90010FA211E20F1
:1013100005F0FDFC0A203249088003202F4908709F
:1013200008E0FFF7E4FEFFF799FE2C48007801285B
:1013300000D100E0F5E700BF00203A49088040A056
:1013400010210B464FF49672CDE900104FF48771CF
:101350001E2005F0DCFC1CBD10B51EE040494148D4
:1013600009F03DF968B13E493E4809F054F90122BF
:1013700080213D4808F074FA27213A4806F0A5F983
:101380000BE01448006808B9012000E00020114972
:10139000086040F6B83006F0F5FA3448008800F4EA
:1013A00000400028DAD076E04FF02051304809F0B4
:1013B00016F960B14FF020512D4809F02CF90122A7
:1013C00080212C4808F04CFA0C21294854E056E0C2
:1013D00098000020A0824242008042423D0100204D
:1013E000640100206B010020370100203B01002038
:1013F000000016430010024044010020400100207C
:10140000000000000000244000000000000024C094
:101410000000000000003EC000000000000034C0DA
:101420003E0100207001002053797374656D2049DE
:101430006E69742053746570342E2E2E2E2E2E005D
:1014400053797374656D20496E69742053746570A7
:101450003420537563636565642E2E2E00000000F2
:10146000200000207060024000480040B6020020CA
:10147000B86402400010014006F027F90BE0FE4876
:10148000006808B9012000E00020FB4908604FF423
:10149000967006F077FAF9480078002884D000208A
:1014A000F649087010BD08B500BF142010230122B2
:1014B00011460090F24806F02BFC0028F5D108BD3B
:1014C00010B52DED028B002008EE900A9FEDED0A7D
:1014D000B0EE408A00241921062005F0A0FC08EE99
:1014E000900AB8EE680ADFEDE80A20EE200ADFED88
:1014F000E70A80EE201AB0EE418A9FEDE50AB4EECD
:10150000C08AF1EE10FA04DD9FEDE10AB0EE408AE8
:101510000AE09FEDE00AB4EEC08AF1EE10FA03D2C1
:101520009FEDDC0AB0EE408A9FEDDB0ADFEDDB0ABF
:1015300010EE880ABCEEC00A10EE100AC4B22046B3
:10154000BDEC028B10BD10B52DED108B04460120B3
:10155000D349086002208880D24800788871002032
:10156000C87708200862D04890ED000ABCEEC00A97
:1015700010EE100A4862CD4890ED000ABCEEC00A99
:1015800010EE100A8862CA4890ED000ABCEEC00A4C
:1015900010EE100AC862C74890ED000AF3EE040A84
:1015A00020EE200A10EE100A0863C34890ED000AEE
:1015B00010EE101A08460DF08BFA41EC1D0B9FED52
:1015C000BF1BB0EE4D0AF0EE6D0A0BF061F9B0EE04
:1015D00040CAF0EE60CA9FEDBB0B53EC102B51ECF0
:1015E0001C0B0CF07FFF41EC1A0BB34890ED000A86
:1015F00010EE101A08460DF06BFA41EC1F0B9FED30
:10160000B31BB0EE4F0AF0EE6F0A0BF041F9B0EEEB
:1016100040EAF0EE60EA9FEDAF0B53EC102B51EC7B
:101620001E0B0CF05FFF41EC1C0BA34890ED000A71
:1016300010EE101A08460DF04BFA41EC1F0B9FED0F
:10164000A71BB0EE4F0AF0EE6F0A0BF021F9B0EED7
:1016500040EAF0EE60EA9FEDA30B53EC102B51EC47
:101660001E0B0CF03FFF41EC1D0B53EC1C2B0DF03F
:1016700045F941EC1B0B53EC1A2B0CF05BFC41ECD5
:10168000190B9FED9A0B53EC102B0CF053FC41EC13
:10169000180B0CF093FE82498886874890ED000A6B
:1016A000BCEEC00A10EE100AC886924890ED000AFF
:1016B000DFED910A60EE200AB2EE081A80EE810A90
:1016C00010EE100A88638D4890ED000A10EE101A93
:1016D00008460DF0FDF9724AD0631164884890ED18
:1016E000000AF0EE000A30EE600A10EE100A114611
:1016F0004864844890ED000ABCEEC00A10EE100A5F
:1017000081F8480080480078022806D1B7EE000A28
:1017100010EE100AC1F84D0006E09FED5A0A10EED7
:10172000100A5F49C1F84D007848007801287DD142
:1017300077480078001D76490870002075490870C8
:1017400013E07348007873490978401A401E5449E1
:10175000085C714909786F4A127811446F4A5054F5
:101760006C480078401C6B490870694800786A49E9
:101770000978401A674909788842E2DC64480078B1
:101780006549087062480078801C61490870002033
:101790006049087013E05E4800785E490978401A95
:1017A000401E3F49085C5C4909785A4A1278114446
:1017B0005A4A505457480078401C564908705448BB
:1017C000007855490978401A524909788842E2DC84
:1017D0004F480078504908704D480078401C4C49EB
:1017E000087000204B49087013E0494800784949C7
:1017F0000978401A401E2A49085C47490978454A39
:1018000012781144454A505442480078401C4149DE
:1018100008703F48007840490978401A3D490978E6
:101820008842E2DC3A4800783B4900E036E3087041
:10183000374800780830364908700020354908706C
:1018400013E03348007833490978401A401E1449A0
:10185000085C314909782F4A127811442F4A5054B4
:101860002C480078401C2B490870294800782A49E8
:101870000978401A274953E0A0824242B202002070
:1018800090000020000000003333534000008045EA
:10189000C3F52840D7A310403D2A1244006081437D
:1018A0000803002066010020A0020020A4020020FE
:1018B000A8020020940200209802002000000000EE
:1018C0000000F03F3333333333D34D40000000008A
:1018D0000000004052B81E85EB314040000000007F
:1018E000000008405C8FC2F5285C19403D0AD7A370
:1018F000701D40409C0200200000C8429002002061
:10190000880200208C0200203D01002045010020BB
:101910006E0100206C0100206D01002059030020A1
:10192000097888428DDCFE480078FE490870FC4842
:1019300000780830FA4908700020FB49087013E06D
:10194000F7480078F8490978401A401EF749085CC2
:10195000F4490978F44A12781144F54A5054F2488F
:101960000078401CF0490870ED480078ED4909788E
:10197000401AED4909788842E2DCE9480078E949F3
:101980000870E74800780830E54908700020E6490B
:10199000087013E0E2480078E3490978401A401ED5
:1019A000E249095CDF480078DF4A12781044E04AD7
:1019B0001154DD480078401CDB490870D848007895
:1019C000D8490978401AD84909788842E2DCD448D5
:1019D0000078D4490870D2480078401CD04908707B
:1019E0000020D149087013E0CD480078CE4909782D
:1019F000401A401ECD49085CCA490978CA4A127883
:101A00001144CB4A5054C8480078401CC64908705D
:101A1000C3480078C3490978401AC3490978884205
:101A2000E2DCBF480078BF490870BD480078001D5F
:101A3000BB4908700020BC49087013E0B848007822
:101A4000B9490978401A401EB849095CB548007880
:101A5000B54A12781044B64A1154B3480078401C75
:101A6000B1490870AE480078AE490978401AAE49CD
:101A700009788842E2DCAA480078AA490870A84898
:101A80000078001DA64908700020A749087013E0DF
:101A9000A3480078A4490978401A401EA349085C6D
:101AA000A0490978A04A12781144A14A50549E488E
:101AB0000078401C9C490870994800789949097839
:101AC000401A994909788842E2DC9548007895499E
:101AD000087093480078001D9149087000209249D1
:101AE000087013E08E4800788F490978401A401E2C
:101AF0008E49085C8B4909788B4A127811448C4ACC
:101B0000505489480078401C874908708448007800
:101B100084490978401A844909788842E2DC80487F
:101B20000078804908707E480078001D7C49087064
:101B300000207D49087013E0794800787A490978D7
:101B4000401A401E7949085C76490978764A12782D
:101B50001144774A505474480078401C7249087008
:101B60006F4800786F490978401A6F4909788842B0
:101B7000E2DC6B4800786B49087069480078001D0A
:101B80006749087000206849087013E064480078CD
:101B900065490978401A401E6449085C6149097822
:101BA000614A12781144624A50545F480078401CE0
:101BB0005D4908705A4800785A490978401A5A49CC
:101BC00009788842E2DC5648007856490870544843
:101BD0000078801C5249087000205349087013E0B7
:101BE0004F48007850490978401A401E4F49095C17
:101BF0004C4800784C4A127810444D4A11544A48D7
:101C00000078401C484908704548007845490978E3
:101C1000401A454909788842E2DC41480078414948
:101C200008703F480078801C3D49087000203E49FC
:101C3000087013E03A4800783B490978401A401E82
:101C40003A49085C37490978374A12781144384ACA
:101C5000505435480078401C3349087030480078AB
:101C600030490978401A304909788842E2DC2C482A
:101C700000782C4908702A480078001D284908700F
:101C800000202949087013E0254800782649097882
:101C9000401A401E2549085C22490978224A1278D8
:101CA0001144234A505420480078401C1E490870B3
:101CB0001B4800781B490978401A1B49097888425B
:101CC000E2DC17480078174908701548007808309A
:101CD0001349087000201449087013E01048007878
:101CE00011490978401A401E1049095C0D480078D6
:101CF0000D4A127810440E4A11540B480078401CCB
:101D0000094908700648007806490978401A0649CA
:101D100009788842E2DC024800780249087009E04C
:101D20006E0100206D0100206C01002008030020DE
:101D300059030020CC480078001DCB4908700020D2
:101D4000CA49087013E0C8480078C8490978401AA1
:101D5000401EC749085CC7490978C44A1278114433
:101D6000C54A5054C1480078401CC0490870BE485C
:101D70000078C0490978401ABC4909788842E2DCF9
:101D8000B9480078BB490870B7480078401CB6498C
:101D900008700020B549087013E0B3480078B349D3
:101DA0000978401A401EB249095CB2480078AF4A2F
:101DB00012781044B04A1154AC480078401CAB492A
:101DC0000870A9480078AB490978401AA7490978F2
:101DD0008842E2DCA4480078A6490870A24800784E
:101DE000001DA14908700020A049087013E09E481A
:101DF00000789E490978401A401E9D49095C9D481B
:101E000000789A4A127810449B4A115497480078F7
:101E1000401C964908709448007896490978401A01
:101E2000924909788842E2DC8F480078914908702D
:101E30008D480078001D8C49087000208B4908707F
:101E400013E08948007889490978401A401E88497A
:101E5000085C88490978854A12781144864A5054AA
:101E600082480078401C814908707F480078814989
:101E70000978401A7D4909788842E2DC7A4800787E
:101E80007C4908700020784908707A49087051230D
:101E90000A220121784806F0A1F805E051230A2220
:101EA0000121734806F09AF80020BDEC108B10BD9C
:101EB0001FB501ADFEF748FF70480068002845D007
:101EC00000BFFEF79EFF00240CE06D48006808B9D3
:101ED000012000E000206A490860642005F052FDFE
:101EE000601CC4B2022CF0DB4FF47A7005F04AFD9E
:101EF000FFF701FA00240CE06148006808B90120EE
:101F000000E000205E490860962005F03BFD601C63
:101F1000C4B2022CF0DB4FF47A7005F033FDFFF70A
:101F20001BFA00240CE05648006808B9012000E0C4
:101F3000002053490860C82005F024FD601CC4B28D
:101F4000022CF0DB4FF47A7005F01CFD00204C49A8
:101F5000086088E04B480078D0B14B4800780128F1
:101F60001CD14A4890ED000ADFED490AB4EEE00AC0
:101F7000F1EE10FA12D2474890ED001AF0EE410A45
:101F8000424890ED001AB0EE410AFEF735FB05E03D
:101F9000DFED410A9FED400AFEF72EFB3F48007837
:101FA00020B1FEF73FFE00203C490870364800781B
:101FB000012805D1FFF777FA0A2005F0E3FC07E0D6
:101FC0003748007820B1FFF76EFA002034490870D6
:101FD0002D480078032804D102202A490870FFF711
:101FE00086F829480078022801D1FFF737F82D48F4
:101FF0000078012805D10020FFF7A5FA0020294923
:1020000008702948007890B91F4D00BF0120034691
:10201000022201460090284605F07AFE0028F5D1FC
:102020000F20214908700A2005F0ACFC1BE01F4876
:102030000078A8B9FFF744FA1D4908801E201B4903
:10204000087000BF022011230246012100901848A9
:1020500005F05EFE0028F5D10A2005F093FC02E0B1
:102060001E2005F08FFC75E76E0100206C0100203A
:10207000080300206D0100205903002030824042F7
:10208000A0824242470100203D010020480100207B
:1020900000007A444C01002000000000B202002041
:1020A0006A0100203C010020690100206801002035
:1020B000660100201CB50121202007F0E1F84FF453
:1020C000C060009001208DF8040000208DF806000B
:1020D00003208DF8050001208DF8070069460448AB
:1020E00006F04CFB4FF4C061014806F0C3FB1CBD79
:1020F0000014024001B5BDF800000090BDF80000DA
:10210000F849088008BD01B5BDF800000090BDF891
:102110000000F449891C088008BD08B5F148801CFE
:1021200000880090BDF8000008BDEE4A10804FF016
:10213000D842A2F88010704710B504462046FFF739
:10214000D9FF052005F0D6FBFFF7E7FF10BDE648F5
:102150000089E44908807047E249891C088070477B
:1021600030B5014601F01F04C1F34513CA0AE50268
:1021700005EB43151544A8B230BD00BF011EA0F108
:102180000102D0B2FAD1704730B504460D46D648A8
:10219000808849F24131884205D0D348808845F291
:1021A0001031884214D1D0494889FFF7A3FF20128B
:1021B000FFF7A9FFE0B2FFF7A6FFCB498889FFF739
:1021C00099FF2812FFF79FFFE8B2FFF79CFFABE0F3
:1021D000C548808846F6040188421DD1C2488079EE
:1021E000012804D1C0480088401E001B84B2BE49AB
:1021F0004889FFF77FFF2012FFF785FFE0B2FFF766
:1022000082FFB9498889FFF775FF2812FFF77BFF26
:10221000E8B2FFF778FF87E0B348808841F66311A2
:10222000884247D1B0488079A8B9AF480088401E9D
:10223000001B84B2AC494889FFF75CFF0020FFF720
:1022400062FF0020FFF75FFF2012FFF75CFFE0B2A4
:10225000FFF759FF16E0A4494889FFF74BFF20120A
:10226000FFF751FFE0B2FFF74EFF9F490988491E73
:10227000C1F30F20FFF747FF9B490978491EC8B2F9
:10228000FFF741FF98498889FFF734FF2812FFF7CD
:102290003AFFE8B2FFF737FF93494988491EC1F377
:1022A0000F20FFF730FF90498978491EC8B2FFF729
:1022B0002AFF39E08C48808845F21051884220D1AD
:1022C00089494889FFF716FF2012FFF71CFF86494E
:1022D0004989491C88B2FFF70DFFE0B2FFF713FFF1
:1022E00081498889FFF706FF2812FFF70CFF7E4916
:1022F0008989491C88B2FFF7FDFEE8B2FFF703FFAA
:1023000012E079488079012804D177480088401E7E
:10231000001B84B2744948892146FFF706FF7249C1
:1023200088892946FFF701FF30BD2DE9F0410546B8
:102330000E4600240027A0466B480088A84203DD13
:1023400069484088B04202DC0020BDE8F081314697
:102350002846FFF719FF6448808849F241318842D6
:1023600011D06148808846F6040188420BD05E484F
:10237000808845F21031884205D05B48808841F65C
:102380006311884203D12E20FFF7B4FE0DE05648BA
:10239000808845F21051884204D14FF43850FFF73D
:1023A000A9FE02E02220FFF7A5FE4F48808849F2EF
:1023B0002031884202D10220FFF7DFFEFFF7ADFE99
:1023C00004464948808841F66311884201D120467D
:1023D000BBE70220FFF7D1FEFFF79FFE044642480D
:1023E000808849F2413188420BD03F48808845F2CD
:1023F0001031884205D03C48808845F2105188420F
:102400000AD10220FFF7B9FEFFF787FE8046E7B248
:102410004FF6FF7000EA07273348808849F22531DC
:10242000884216D03048808844F23551884210D016
:102430002D488088091F88420BD02B4880884BF29A
:102440000551884205D0284880884CF205518842C1
:1024500001D1204679E72448808849F241318842F9
:102460000BD02148808845F21031884205D01E48A3
:10247000808845F21051884207D1E012C002B9129B
:1024800040EA411040EAE8205FE72046FFF768FE97
:102490005BE700B51448808849F24131884211D089
:1024A0001148808846F6040188420BD00E48808887
:1024B00045F21031884205D00B48808841F66311FF
:1024C000884203D12920FFF715FE14E006488088D2
:1024D00045F21051884209D14FF42450FFF70AFE0B
:1024E00009E000007E00006CBE03002040F2731182
:1024F0000720FFF71AFE00BD00B5FD48808849F2AD
:102500004131884211D0FA48808846F60401884259
:102510000BD0F748808845F21031884205D0F44846
:10252000808841F66311884203D12820FFF7E2FD3D
:102530000EE0EF48808845F21051884204D14FF4F4
:102540002050FFF7D7FD03E000210720FFF7EDFD46
:1025500000BDF0B5054600240027E5488079012834
:102560000BD1E348808846F60401884205D0E04854
:10257000808841F66311884208D1DD488079F0B93E
:10258000DB48808841F66311884218D1082D15D2A6
:10259000DFE805F00406080A0C0E101206250DE00F
:1025A00007250BE0042509E0052507E0012505E0E6
:1025B000002503E0032501E0022500BF00BFCC4851
:1025C000808849F24131884217D0C948808846F650
:1025D0000401884211D0C648808845F210318842F3
:1025E0000BD0C348808845F21051884205D0C048BE
:1025F000808841F6631188427ED1082D1CD2DFE825
:1026000005F00406090C0F12151800BF14E044F081
:10261000800411E044F040040EE044F0C0040BE0FC
:1026200044F0200408E044F0600405E044F0A00415
:1026300002E044F0E00400BF00BFAD48808845F2EE
:102640001051884202D14FF4585700E03627A8486D
:10265000808845F2103188420DD0A548808845F227
:102660001051884207D0A248808841F66311884201
:1026700001D044F008049E48808846F60401884250
:1026800001D144F0020421463846FFF74EFD984838
:10269000808841F6631188421DD004F0200068B1A3
:1026A0009348008892494988884214DA90480688FD
:1026B00040888F490880084646800CE08C48008896
:1026C0008B494988884206DD8948068840888849C0
:1026D0000880084646808648808845F21051884226
:1026E00054D183494889FFF705FD0020FFF70BFD12
:1026F0007F494989491C00E077E088B2FFF7FAFC7E
:102700000020FFF700FD7A494989891C88B2FFF74C
:10271000F1FC77490988491EC1F30F20FFF7F3FC4C
:1027200073494989C91C88B2FFF7E4FC70490978EC
:10273000491EC8B2FFF7E7FC6D498889FFF7DAFC4C
:102740000020FFF7E0FC6A498989491C88B2FFF73D
:10275000D1FC0020FFF7D7FC65498989891C88B224
:10276000FFF7C8FC62494988491EC1F30F20FFF7F3
:10277000CAFC5F498989C91C88B2FFF7BBFC5C4968
:102780008978491EC8B2FFF7BEFC55E05849488910
:10279000FFF7B0FC0020FFF7B6FC0020FFF7B3FC0A
:1027A00053490988491EC1F30F20FFF7ACFC50497B
:1027B0000978491EC8B2FFF7A6FC4D498889FFF782
:1027C00099FC0020FFF79FFC0020FFF79CFC484984
:1027D0004988491EC1F30F20FFF795FC44498978C9
:1027E000491EC8B2FFF78FFC26E0082D1CD2DFE897
:1027F00005F004070A0D0F12151844F0300413E019
:1028000044F0100410E044F020040DE000BF0BE0A1
:1028100044F0380408E044F0280405E044F01804CB
:1028200002E044F0080400BF00BF032744F48054D2
:1028300021463846FFF779FCF0BD30B504460D4619
:1028400029462046FFF7A0FCFFF781FC29480088B5
:102850002949088030BD70B504460D461646244807
:10286000808849F24131884205D02148808845F26C
:102870001031884214D11E494889FFF73BFC2012D1
:10288000FFF741FCE0B2FFF73EFC19498889FFF7EA
:1028900031FC2812FFF737FCE8B2FFF734FC93E075
:1028A0001348808845F21051884227D11049488941
:1028B000FFF720FC2012FFF726FC0D494989491C2F
:1028C00088B2FFF717FCE0B2FFF71DFC08498889C2
:1028D000FFF710FC2812FFF716FC05498989491CEF
:1028E00088B2FFF707FCE8B2FFF70DFC6CE00000D0
:1028F000BE030020700100208000006CFE4880882C
:1029000041F66311884228D1FB48807920B9FA4802
:102910000088401E001B84B2F7494889FFF7EAFB94
:102920002012FFF7F0FBE0B2FFF7EDFB2012FFF7FC
:10293000EAFBE0B2FFF7E7FBEF498889FFF7DAFB34
:102940002812FFF7E0FBE8B2FFF7DDFB2812FFF7E4
:10295000DAFBE8B2FFF7D7FB36E0E748808846F6B7
:10296000040188421DD1E4488079012804D1E2485D
:102970000088401E001B84B2DF494889FFF7BAFB7C
:102980002012FFF7C0FBE0B2FFF7BDFBDA498889F0
:10299000FFF7B0FB2812FFF7B6FBE8B2FFF7B3FB77
:1029A00012E0D5488079012804D1D3480088401E20
:1029B000001B84B2D04948892146FFF7B6FBCE49B7
:1029C00088892946FFF7B1FBCB480089CB490880AD
:1029D0004FF0D840A0F8806070BD70B52DED048B2D
:1029E0000446BE20FFF786FB0520FFF78CFB204640
:1029F0000BF028FD41EC190B9FEDC10B53EC102B94
:102A00000BF070FD41EC180B0BF0D8FC85B228469A
:102A1000FFF779FB0120FFF776FBFF20FFF773FB41
:102A20000020FFF770FB0020FFF76DFBBDEC048B6F
:102A300070BD10B50446002C66D1AF498871F020F6
:102A400008804FF4A07048800846808849F24131E0
:102A500088420BD0A848808846F60401884205D0F9
:102A6000A548808845F2103188421AD12C20A2490D
:102A700008812A2048812B2088810846808846F6D4
:102A80000401884205D09C48808845F21031884274
:102A900006D14FF4A070984908804FF4F070488038
:102AA000A1E09548808845F21051884210D14FF43A
:102AB0003050914908814FF4285048814FF42C50F0
:102AC00088814FF4F07008804FF4487048808AE0A5
:102AD0008948808841F6631188420DD12C208649AF
:102AE00008812B2048812A2088814FF4F0700880CB
:102AF0004FF44870488076E022207F4908812020EA
:102B00004881212088816EE001207B4988714FF443
:102B1000A0700880F02048800846808849F2413142
:102B2000884205D07448808845F21031884207D128
:102B30002C20714908812A2048812B2088813FE080
:102B40006D48808846F60401884207D12C206A49E6
:102B500008812B2048812A20888131E066488088BE
:102B600045F21051884210D14FF43050624908812B
:102B70004FF4285048814FF42C5088814FF448700E
:102B800008804FF4F07048801AE05B48808841F676
:102B9000631188420DD12C20574908812A20488191
:102BA0002B2088814FF4487008804FF4F0704880E3
:102BB00006E0222050490881212048812020888178
:102BC0004D48808846F60401884205D04A488088EE
:102BD00045F21031884206D14FF4F0704649088022
:102BE0004FF4A07048800020FFF7B3FC10BD2DE922
:102BF000F04F86B004460D469046994604EB080017
:102C0000401E86B205EB0900401E87B23A48808814
:102C100049F24131884215D03748808845F2103159
:102C200088420FD03448808846F60401884209D093
:102C300031488079012826D12F48808841F66311D8
:102C4000884220D12C494889FFF754FA2012FFF717
:102C50005AFAE0B2FFF757FA3012FFF754FAF0B21F
:102C6000FFF751FA24498889FFF744FA2812FFF741
:102C70004AFAE8B2FFF747FA3812FFF744FAF8B217
:102C8000FFF741FAC1E01C48808841F66311884291
:102C90003DD119480088A0EB0800001B84B205EB69
:102CA0000900401E1FFA80F913494889FFF722FAEC
:102CB0002012FFF728FAE0B2FFF725FA04EB08012B
:102CC000491EC1F30F20FFF71EFA04EB0801491E4D
:102CD000C8B2FFF718FA08498889FFF70BFA2812DB
:102CE000FFF711FAE8B2FFF70EFA4FEA2920FFF7D3
:102CF0000AFA09F0FF0007E0BE0300207E00006C26
:102D00006666666666660440FFF7FDF97DE0FE488C
:102D1000808845F21051884244D1FB494889FFF729
:102D2000E9F92012FFF7EFF9F7494989491C88B200
:102D3000FFF7E0F9E0B2FFF7E6F9F3494989891CAA
:102D400088B2FFF7D7F93012FFF7DDF9EE4949896C
:102D5000C91C88B2FFF7CEF9F0B2FFF7D4F9EA49FF
:102D60008889FFF7C7F92812FFF7CDF9E649898965
:102D7000491C88B2FFF7BEF9E8B2FFF7C4F9E2498F
:102D80008989891C88B2FFF7B5F93812FFF7BBF9BA
:102D9000DD498989C91C88B2FFF7ACF9F8B2FFF7A1
:102DA000B2F932E0D848807901280ED1AA46BB4654
:102DB000D5480088801B401E80B20190D248008810
:102DC000001B401E80B2009003E0A246B34601956E
:102DD00000975020059051200490522003905320DA
:102DE000029051460598FFF7A0F959460498FFF75D
:102DF0009CF901990398FFF798F900990298FFF759
:102E000094F929462046FFF7BFF906B0BDE8F08FD8
:102E100070B504460026BC48058840884543BA483A
:102E2000808846F60401884216D1B7488079012887
:102E300012D10020B44988712A2048812B20888132
:102E400000210846FFF7A0F90120AF4988712B2027
:102E500048812A20888103E000210846FFF794F981
:102E6000FFF775F9002602E0A8480480761CAE4200
:102E7000FAD370BD00B5A1B00020209001217A20C6
:102E800006F0FEF90121084606F032FA4FF4004040
:102E90001E9001208DF87C0000208DF87E0002201D
:102EA0008DF87D0001208DF87F001EA9984805F05F
:102EB00065FC4CF233701E9002208DF87C000020DF
:102EC0008DF87E0003208DF87D0001208DF87F00B5
:102ED0001EA9904805F052FC4FF680701E9002200B
:102EE0008DF87C0000208DF87E0003208DF87D0099
:102EF00001208DF87F001EA9874805F03FFC4FF4A4
:102F000080501E9002208DF87C0000208DF87E00FD
:102F100003208DF87D0001208DF87F001EA97F48D9
:102F200005F02CFC4FF480501E9002208DF87C00A0
:102F300000208DF87E0003208DF87D0001208DF8A3
:102F40007F001EA9764805F019FC0C22002171486B
:102F500005F09FFC0C2201216E4805F09AFC0C2222
:102F600004216C4805F095FC0C220521694805F008
:102F700090FC0C220821674805F08BFC0C220921EB
:102F8000644805F086FC0C220A21624805F081FCA9
:102F90000C220E215F4805F07CFC0C220F215D48BD
:102FA00005F077FC0C2207215B4805F072FC0C222F
:102FB0000821594805F06DFC0C220921564805F0FE
:102FC00068FC0C220A21544805F063FC0C220B21FA
:102FD000514805F05EFC0C2211464F4805F059FCA3
:102FE0000C220D214C4805F054FC0C220E214A48BD
:102FF00005F04FFC0C220F21474805F04AFC0C223B
:103000001146464805F045FC0C221146444805F09F
:1030100040FC0F200890002009903C200A900020DE
:103020000B900C900D900E900920019000200290C2
:103030000820039000200490059006900790062039
:103040000F900020109011901020129000201390EB
:1030500015901490169017904FF4805018900020FF
:1030600019904FF480401A9000201B9008A81C90E3
:1030700001A81D900FA805F060FC0121062005F0B5
:10308000E7FC322004F07EFC01210020FFF74DF820
:10309000322004F077FC0020FFF74EF81A498880B0
:1030A00008468088FF280ADB084680884FF6FF71B3
:1030B000884204D014488088B0F5134F7ED1D320C5
:1030C000FFF718F8FFF729F80F498880FFF725F870
:1030D0000D498880FFF721F80B49888008468088D1
:1030E0004FF6FF7101EA002007498880FFF715F8C5
:1030F000054989880843044988800846808849F240
:10310000413188425AD00DE0BE0300208000006C9F
:1031100000040240000C0240001002400014024073
:1031200000180240BF20FEF7E5FFFEF7F6FFFE495C
:103130008880FEF7F2FFFC498880FEF7EEFFFA492F
:103140008880FEF7EAFFF8498880084680884FF6B5
:10315000FF7101EA0020F4498880FEF7DEFFF249A2
:1031600089880843F04988800846808846F604012B
:1031700088427AD0D420FEF7BDFFFEF7CEFFEA49A1
:103180008880FEF7CAFFE8498880FEF7C6FFE64957
:103190008880084680884FF6FF7101EA0020E249E6
:1031A0008880FEF7BAFFE04989880843DE498880B5
:1031B0000846808845F21031884200E055E054D03E
:1031C0004FF45A40FEF796FFFEF7A7FFD6498880D6
:1031D0004FF45B40FEF78EFFFEF79FFFD2498880D9
:1031E000084680884FF6FF7101EA0020CE498880AA
:1031F0004FF45C40FEF77EFFFEF78FFFCA498988D7
:103200000843C949888008468088B0F5004F02D13C
:1032100045F210508880C448808845F21051884299
:1032200023D0A120FEF766FFFEF777FFBE49888016
:10323000FEF773FFBC498880084680884FF6FF710F
:1032400001EA0020B8498880FEF767FFB6498988FF
:103250000843B54988800846808845F261718842F4
:1032600003D141F66310B0498880AF48808849F2A5
:103270004131884211D0AC48808845F210318842F3
:103280000BD0A948808845F21051884205D0A64845
:10329000808841F6631188421DD1A448006820F05F
:1032A0000F004FF02041C1F81C010846D0F81C0166
:1032B00020F47060C1F81C010846D0F81C0140F0F1
:1032C0000300C1F81C010846D0F81C0140F400704E
:1032D000C1F81C0128E09448808846F60401884221
:1032E00005D0914880884CF2055188421CD18F4806
:1032F000006820F00F004FF02041C1F81C01084683
:10330000D0F81C0120F47060C1F81C010846D0F808
:103310001C0140F00A00C1F81C010846D0F81C014D
:1033200040F44060C1F81C017F48818880A009F00A
:1033300037F87D48808849F2413188427ED1CF20DC
:10334000FEF7D8FE0020FEF7DEFEC120FEF7DBFE12
:103350003020FEF7D8FEED20FEF7CCFE6420FEF70D
:10336000D2FE0320FEF7CFFE1220FEF7CCFE812016
:10337000FEF7C9FEE820FEF7BDFE8520FEF7C3FE7E
:103380001020FEF7C0FE7A20FEF7BDFECB20FEF730
:10339000B1FE3920FEF7B7FE2C20FEF7B4FE002068
:1033A000FEF7B1FE3420FEF7AEFE0220FEF7ABFEC4
:1033B000F720FEF79FFE2020FEF7A5FEEA20FEF78D
:1033C00099FE0020FEF79FFE0020FEF79CFEC02025
:1033D000FEF790FE1B20FEF796FEC120FEF78AFE48
:1033E0000120FEF790FEC520FEF784FE3020FEF798
:1033F0008AFE3020FEF787FEC720FEF77BFEB7204F
:10340000FEF781FE3620FEF775FE4820FEF77BFEB4
:103410003A20FEF76FFE5520FEF775FEB120FEF74D
:1034200069FE0020FEF76FFE1A20FEF76CFEB62044
:10343000FEF760FE0A20FEF766FE00E0A5E0A2208F
:10344000FEF761FEF220FEF755FE0020FEF75BFE60
:103450002620FEF74FFE0120FEF755FEE020FEF786
:1034600049FE0F20FEF74FFE2A20FEF74CFE2820D3
:10347000FEF749FE0820FEF746FE0E20FEF743FE4B
:103480000820FEF740FE5420FEF73DFEA920FEF77F
:103490003AFE4320FEF737FE0A20FEF734FE0F20E7
:1034A000FEF731FE0020FEF72EFE0020FEF72BFE79
:1034B0000020FEF728FE0020FEF725FEE120FEF7A3
:1034C00019FE0020FEF71FFE1520FEF71CFE172038
:1034D000FEF719FE0720FEF716FE1120FEF713FE79
:1034E0000620FEF710FE2B20FEF70DFE5620FEF7FD
:1034F0000AFE3C20FEF707FE0520FEF704FE102022
:10350000FEF701FE0F20FEF7FEFD3F20FEF7FBFD5C
:103510003F20FEF7F8FD0F20FEF7F5FD2B20FEF70C
:10352000E9FD00200CE00000BE0300201C0100A00B
:10353000204C43442049443A25780D0A00000000FD
:10354000FEF7E1FD0020FEF7DEFD0120FEF7DBFDCA
:103550003F20FEF7D8FD2A20FEF7CCFD0020FEF725
:10356000D2FD0020FEF7CFFD0020FEF7CCFDEF20BE
:10357000FEF7C9FD1120FEF7BDFD782004F002FA28
:103580002920FEF7B7FD03F01DB9FE48808846F6F6
:10359000040188427ED11120FEF7ACFD142004F016
:1035A000F1F9D020FEF7A6FD0720FEF7ACFD422082
:1035B000FEF7A9FD1D20FEF7A6FDD120FEF79AFD1E
:1035C0000020FEF7A0FD1A20FEF79DFD0920FEF762
:1035D0009AFDD220FEF78EFD0120FEF794FD2220F9
:1035E000FEF791FDC020FEF785FD1020FEF78BFD54
:1035F0003B20FEF788FD0020FEF785FD0220FEF748
:1036000082FD1120FEF77FFDC520FEF773FD03202C
:10361000FEF779FDC820FEF76DFD0020FEF773FD73
:103620002520FEF770FD2120FEF76DFD0520FEF739
:103630006AFD0020FEF767FD0A20FEF764FD6520A5
:10364000FEF761FD2520FEF75EFD7720FEF75BFDAE
:103650005020FEF758FD0F20FEF755FD0020FEF725
:1036600052FDF820FEF746FD0120FEF74CFDFE203E
:10367000FEF740FD0020FEF746FD0220FEF743FD69
:103680002020FEF737FD3620FEF734FD0820FEF738
:103690003AFD00E02AE03A20FEF72CFD5520FEF727
:1036A00032FD2B20FEF726FD0020FEF72CFD00202A
:1036B000FEF729FD0120FEF726FD3F20FEF723FD42
:1036C0002A20FEF717FD0020FEF71DFD0020FEF763
:1036D0001AFD0120FEF717FDDF20FEF714FD78200C
:1036E00004F050F92920FEF705FD4CE7A548808835
:1036F00045F21031884240F07C87ED20FEF7FAFC5D
:103700000120FEF700FDFE20FEF7FDFCEE20FEF797
:10371000F1FCDE20FEF7F7FC2120FEF7F4FCF1209F
:10372000FEF7E8FC0120FEF7EEFCDF20FEF7E2FCEE
:103730001020FEF7E8FCC420FEF7DCFC8F20FEF72B
:10374000E2FCC620FEF7D6FC0020FEF7DCFCE220FF
:10375000FEF7D9FCE220FEF7D6FCE220FEF7D3FC10
:10376000BF20FEF7C7FCAA20FEF7CDFCB020FEF775
:10377000C1FC0D20FEF7C7FC0020FEF7C4FC0D20A5
:10378000FEF7C1FC0020FEF7BEFC1120FEF7BBFCDB
:103790000020FEF7B8FC1920FEF7B5FC0020FEF76C
:1037A000B2FC2120FEF7AFFC0020FEF7ACFC2D2080
:1037B000FEF7A9FC0020FEF7A6FC3D20FEF7A3FCC7
:1037C0000020FEF7A0FC5D20FEF79DFC0020FEF728
:1037D0009AFC5D20FEF797FC0020FEF794FCB120D8
:1037E000FEF788FC8020FEF78EFC0020FEF78BFCA5
:1037F0008B20FEF788FC0020FEF785FC9620FEF764
:1038000082FC0020FEF77FFCB220FEF773FC002054
:10381000FEF779FC0020FEF776FC0220FEF773FC31
:103820000020FEF770FC0320FEF76DFC0020FEF781
:103830006AFCB320FEF75EFC0020FEF764FC00206B
:10384000FEF761FC0020FEF75EFC0020FEF75BFC4B
:103850000020FEF758FC0020FEF755FC0020FEF784
:1038600052FC0020FEF74FFC0020FEF74CFC00202D
:10387000FEF749FC0020FEF746FC0020FEF743FC63
:103880000020FEF740FC0020FEF73DFC0020FEF784
:103890003AFC0020FEF737FC0020FEF734FC002045
:1038A000FEF731FC0020FEF72EFC0020FEF72BFC7B
:1038B0000020FEF728FC0020FEF725FC0020FEF784
:1038C00022FC0020FEF71FFCB420FEF713FC8B2027
:1038D000FEF719FC0020FEF716FC9620FEF713FCFD
:1038E0000020FEF710FCA120FEF70DFC0020FEF7E3
:1038F0000AFCB520FEF7FEFB0220FEF704FC0020C8
:10390000FEF701FC0320FEF7FEFB0020FEF7FBFBA9
:103910000420FEF7F8FB0020FEF7F5FBB620FEF7CB
:10392000E9FB0020FEF7EFFB0020FEF7ECFBB720E1
:10393000FEF7E0FB0020FEF7E6FB0020FEF7E3FBCE
:103940003F20FEF7E0FB0020FEF7DDFB5E20FEF7E8
:10395000DAFB0020FEF7D7FB6420FEF7D4FB002043
:10396000FEF7D1FB8C20FEF7CEFB0020FEF7CBFB51
:10397000AC20FEF7C8FB0020FEF7C5FBDC20FEF7FD
:10398000C2FB01E0BE0300200020FEF7BCFB70205C
:10399000FEF7B9FB0020FEF7B6FB9020FEF7B3FB65
:1039A0000020FEF7B0FBEB20FEF7ADFB0020FEF79A
:1039B000AAFBDC20FEF7A7FB0020FEF7A4FBB82043
:1039C000FEF798FB0020FEF79EFB0020FEF79BFB16
:1039D0000020FEF798FB0020FEF795FB0020FEF785
:1039E00092FB0020FEF78FFB0020FEF78CFB0020EF
:1039F000FEF789FBBA20FEF77DFB2420FEF783FB50
:103A00000020FEF780FB0020FEF77DFB0020FEF784
:103A10007AFBC120FEF76EFB2020FEF774FB00202E
:103A2000FEF771FB5420FEF76EFB0020FEF76BFBE8
:103A3000FF20FEF768FB0020FEF765FBC220FEF7C3
:103A400059FB0A20FEF75FFB0020FEF75CFB042019
:103A5000FEF759FB0020FEF756FBC320FEF74AFB9A
:103A60003C20FEF750FB0020FEF74DFB3A20FEF70E
:103A70004AFB0020FEF747FB3920FEF744FB0020FD
:103A8000FEF741FB3720FEF73EFB0020FEF73BFB35
:103A90003C20FEF738FB0020FEF735FB3620FEF712
:103AA00032FB0020FEF72FFB3220FEF72CFB00201C
:103AB000FEF729FB2F20FEF726FB0020FEF723FB55
:103AC0002C20FEF720FB0020FEF71DFB2920FEF72F
:103AD0001AFB0020FEF717FB2620FEF714FB002040
:103AE000FEF711FB2420FEF70EFB0020FEF70BFB78
:103AF0002420FEF708FB0020FEF705FB2320FEF73D
:103B000002FB0020FEF7FFFA3C20FEF7FCFA002043
:103B1000FEF7F9FA3620FEF7F6FA0020FEF7F3FA80
:103B20003220FEF7F0FA0020FEF7EDFA2F20FEF724
:103B3000EAFA0020FEF7E7FA2C20FEF7E4FA00206C
:103B4000FEF7E1FA2920FEF7DEFA0020FEF7DBFAA5
:103B50002620FEF7D8FA0020FEF7D5FA2420FEF73B
:103B6000D2FA0020FEF7CFFA2420FEF7CCFA00208C
:103B7000FEF7C9FA2320FEF7C6FA0020FEF7C3FAC3
:103B8000C420FEF7B7FA6220FEF7BDFA0020FEF768
:103B9000BAFA0520FEF7B7FA0020FEF7B4FA84203F
:103BA000FEF7B1FA0020FEF7AEFAF020FEF7ABFA0E
:103BB0000020FEF7A8FA1820FEF7A5FA0020FEF76D
:103BC000A2FAA420FEF79FFA0020FEF79CFA182024
:103BD000FEF799FA0020FEF796FA5020FEF793FAC6
:103BE0000020FEF790FA0C20FEF78DFA0020FEF779
:103BF0008AFA1720FEF787FA0020FEF784FA95204C
:103C0000FEF781FA0020FEF77EFAF320FEF77BFA3A
:103C10000020FEF778FAE620FEF775FA0020FEF79E
:103C200072FAC520FEF766FA3220FEF76CFA002021
:103C3000FEF769FA4420FEF766FA0020FEF763FA01
:103C40006520FEF760FA0020FEF75DFA7620FEF7A9
:103C50005AFA0020FEF757FA8820FEF754FA00209F
:103C6000FEF751FAC620FEF745FA2020FEF74BFA80
:103C70000020FEF748FA1720FEF745FA0020FEF76D
:103C800042FA0120FEF73FFA0020FEF73CFAC72077
:103C9000FEF730FA0020FEF736FA0020FEF733FA7E
:103CA0000020FEF730FA0020FEF72DFAC820FEF7BC
:103CB00021FA0020FEF727FA0020FEF724FA002060
:103CC000FEF721FA0020FEF71EFAC920FEF712FACD
:103CD0000020FEF718FA0020FEF715FA0020FEF784
:103CE00012FA0020FEF70FFA0020FEF70CFA00206F
:103CF000FEF709FA0020FEF706FA0020FEF703FAA5
:103D00000020FEF700FA0020FEF7FDF90020FEF784
:103D1000FAF90020FEF7F7F90020FEF7F4F9002089
:103D2000FEF7F1F90020FEF7EEF90020FEF7EBF9BF
:103D3000E020FEF7DFF91620FEF7E5F90020FEF798
:103D4000E2F91C20FEF7DFF90020FEF7DCF9212064
:103D5000FEF7D9F90020FEF7D6F93620FEF7D3F9A1
:103D60000020FEF7D0F94620FEF7CDF90020FEF73F
:103D7000CAF95220FEF7C7F90020FEF7C4F9642003
:103D8000FEF7C1F90020FEF7BEF97A20FEF7BBF975
:103D90000020FEF7B8F98B20FEF7B5F90020FEF7FA
:103DA000B2F99920FEF7AFF90020FEF7ACF9A82090
:103DB000FEF7A9F90020FEF7A6F9B920FEF7A3F94E
:103DC0000020FEF7A0F9C420FEF79DF90020FEF7C1
:103DD0009AF9CA20FEF797F90020FEF794F9D2204D
:103DE000FEF791F90020FEF78EF9D920FEF78BF946
:103DF0000020FEF788F9E020FEF785F90020FEF7A5
:103E000082F9F320FEF77FF90020FEF77CF9E1202C
:103E1000FEF770F91620FEF776F90020FEF773F929
:103E20001C20FEF770F90020FEF76DF92220FEF746
:103E30006AF90020FEF767F93620FEF764F90020E2
:103E4000FEF761F94520FEF75EF90020FEF75BF909
:103E50005220FEF758F90020FEF755F96420FEF7CE
:103E600052F90020FEF74FF97A20FEF74CF90020B6
:103E7000FEF749F98B20FEF746F90020FEF743F9DB
:103E80009920FEF740F90020FEF73DF9A820FEF743
:103E90003AF90020FEF737F9B920FEF734F900208F
:103EA000FEF731F9C420FEF72EF90020FEF72BF9BA
:103EB000CA20FEF728F90020FEF725F9D220FEF7E8
:103EC00022F90020FEF71FF9D820FEF71CF9002088
:103ED000FEF719F9E020FEF716F90020FEF713F9B6
:103EE000F320FEF710F90020FEF70DF9E220FEF7AF
:103EF00001F90520FEF707F90020FEF704F90B2071
:103F0000FEF701F90020FEF7FEF81B20FEF7FBF894
:103F10000020FEF7F8F83420FEF7F5F80020FEF751
:103F2000F2F84420FEF7EFF80020FEF7ECF84F20FF
:103F3000FEF7E9F80020FEF7E6F86120FEF7E3F867
:103F40000020FEF7E0F87920FEF7DDF80020FEF70C
:103F5000DAF88820FEF7D7F80020FEF7D4F897208B
:103F6000FEF7D1F80020FEF7CEF8A620FEF7CBF83A
:103F70000020FEF7C8F8B720FEF7C5F80020FEF7CE
:103F8000C2F8C220FEF7BFF80020FEF7BCF8C72039
:103F9000FEF7B9F80020FEF7B6F8D120FEF7B3F827
:103FA0000020FEF7B0F8D620FEF7ADF80020FEF7AF
:103FB000AAF8DD20FEF7A7F80020FEF7A4F8F3200A
:103FC000FEF7A1F80020FEF79EF8E320FEF792F836
:103FD0000520FEF798F80020FEF795F80A20FEF776
:103FE00092F80020FEF78FF81C20FEF78CF80020D6
:103FF000FEF789F83320FEF786F80020FEF783F8F5
:104000004420FEF780F80020FEF77DF85020FEF7F0
:104010007AF80020FEF777F86220FEF774F80020A7
:10402000FEF771F87820FEF76EF80020FEF76BF8C7
:104030008820FEF768F80020FEF765F89720FEF765
:1040400062F80020FEF75FF8A620FEF75CF800207B
:10405000FEF759F8B720FEF756F80020FEF753F8A0
:10406000C220FEF750F80020FEF74DF8C720FEF7FB
:104070004AF80020FEF747F8D120FEF744F8002068
:10408000FEF741F8D520FEF73EF80020FEF73BF89A
:10409000DD20FEF738F80020FEF735F8F320FEF7B4
:1040A00032F80020FEF72FF8E420FEF723F8012075
:1040B000FEF729F80020FEF726F80120FEF723F886
:1040C0000020FEF720F80220FEF71DF80020FEF782
:1040D0001AF82A20FEF717F80020FEF714F83C2003
:1040E000FEF711F80020FEF70EF84B20FEF70BF854
:1040F0000020FEF708F85D20FEF705F80020FEF727
:1041000002F87420FDF7FFFF0020FDF7FCFF84207C
:10411000FDF7F9FF0020FDF7F6FF9320FDF7F3FF11
:104120000020FDF7F0FFA220FDF7EDFF0020FDF7D6
:10413000EAFFB320FDF7E7FF0020FDF7E4FFBE2014
:10414000FDF7E1FF0020FDF7DEFFC420FDF7DBFFF8
:104150000020FDF7D8FFCD20FDF7D5FF0020FDF7AB
:10416000D2FFD320FDF7CFFF0020FDF7CCFFDD20ED
:10417000FDF7C9FF0020FDF7C6FFF320FDF7C3FFE1
:104180000020FDF7C0FFE520FDF7B4FF0020FDF79C
:10419000BAFF0020FDF7B7FF0020FDF7B4FF0020B5
:1041A000FDF7B1FF0220FDF7AEFF0020FDF7ABFFEA
:1041B0002920FDF7A8FF0020FDF7A5FF3C20FDF713
:1041C000A2FF0020FDF79FFF4B20FDF79CFF002082
:1041D000FDF799FF5D20FDF796FF0020FDF793FFA7
:1041E0007420FDF790FF0020FDF78DFF8420FDF780
:1041F0008AFF0020FDF787FF9320FDF784FF002052
:10420000FDF781FFA220FDF77EFF0020FDF77BFF79
:10421000B320FDF778FF0020FDF775FFBE20FDF706
:1042200072FF0020FDF76FFFC420FDF76CFF002038
:10423000FDF769FFCD20FDF766FF0020FDF763FF66
:10424000D320FDF760FF0020FDF75DFFDC20FDF7C8
:104250005AFF0020FDF757FFF320FDF754FF002021
:10426000FDF751FFE620FDF745FF1120FDF74BFF5D
:104270000020FDF748FF3420FDF745FF0020FDF743
:1042800042FF5620FDF73FFF0020FDF73CFF762060
:10429000FDF739FF0020FDF736FF7720FDF733FFEC
:1042A0000020FDF730FF6620FDF72DFF0020FDF711
:1042B0002AFF8820FDF727FF0020FDF724FF992023
:1042C000FDF721FF0020FDF71EFFBB20FDF71BFFC0
:1042D0000020FDF718FF9920FDF715FF0020FDF7DE
:1042E00012FF6620FDF70FFF0020FDF70CFF5520A1
:1042F000FDF709FF0020FDF706FF5520FDF703FF3E
:104300000020FDF700FF4520FDF7FDFE0020FDF732
:10431000FAFE4320FDF7F7FE0020FDF7F4FE4420EF
:10432000FDF7F1FE0020FDF7EEFEE720FDF7E2FECF
:104330003220FDF7E8FE0020FDF7E5FE5520FDF7F1
:10434000E2FE0020FDF7DFFE7620FDF7DCFE002018
:10435000FDF7D9FE6620FDF7D6FE0020FDF7D3FE5F
:104360006720FDF7D0FE0020FDF7CDFE6720FDF7AA
:10437000CAFE0020FDF7C7FE8720FDF7C4FE00201F
:10438000FDF7C1FE9920FDF7BEFE0020FDF7BBFE44
:10439000BB20FDF7B8FE0020FDF7B5FE9920FDF724
:1043A000B2FE0020FDF7AFFE7720FDF7ACFE002047
:1043B000FDF7A9FE4420FDF7A6FE0020FDF7A3FEB1
:1043C0005620FDF7A0FE0020FDF79DFE2320FDF7FF
:1043D0009AFE0020FDF797FE3320FDF794FE0020A3
:1043E000FDF791FE4520FDF78EFE0020FDF78BFEC8
:1043F000E820FDF77FFE0020FDF785FE0020FDF799
:1044000082FE9920FDF77FFE0020FDF77CFE8720CD
:10441000FDF779FE0020FDF776FE8820FDF773FE9C
:104420000020FDF770FE7720FDF76DFE0020FDF700
:104430006AFE6620FDF767FE0020FDF764FE882017
:10444000FDF761FE0020FDF75EFEAA20FDF75BFE92
:104450000020FDF758FEBB20FDF755FE0020FDF7BC
:1044600052FE9920FDF74FFE0020FDF74CFE66201E
:10447000FDF749FE0020FDF746FE5520FDF743FEFF
:104480000020FDF740FE5520FDF73DFE0020FDF722
:104490003AFE4420FDF737FE0020FDF734FE4420AD
:1044A000FDF731FE0020FDF72EFE5520FDF72BFE17
:1044B0000020FDF728FEE920FDF71CFEAA20FDF7ED
:1044C00022FE0020FDF71FFE0020FDF71CFE00204D
:1044D000FDF719FE0020FDF70DFEAA20FDF713FEE3
:1044E000CF20FDF707FE0020FDF70DFE0020FDF7B1
:1044F0000AFE0020FDF707FE0020FDF704FE002065
:10450000FDF701FE0020FDF7FEFD0020FDF7FBFD9D
:104510000020FDF7F8FD0020FDF7F5FD0020FDF778
:10452000F2FD0020FDF7EFFD0020FDF7ECFD00207F
:10453000FDF7E9FD0020FDF7E6FD0020FDF7E3FDB6
:104540000020FDF7E0FD0020FDF7DDFDF020FDF788
:10455000D1FD0020FDF7D7FD5020FDF7D4FD002050
:10456000FDF7D1FD0020FDF7CEFD0020FDF7CBFDCE
:10457000F320FDF7BFFD0020FDF7C5FDF920FDF795
:10458000B9FD0620FDF7BFFD1020FDF7BCFD292079
:10459000FDF7B9FD0020FDF7B6FD3A20FDF7AAFDB5
:1045A0005520FDF7B0FD1120FDF7A4FD642003F0B8
:1045B000E9F92920FDF79EFD3520FDF79BFD002040
:1045C000FDF7A1FD5120FDF795FDFF20FDF79BFDB7
:1045D0005320FDF78FFD2C20FDF795FD5520FDF7AD
:1045E00089FD8220FDF78FFD2C20FDF783FD02F071
:1045F000E9B8FE48808845F2105188427ED15521A5
:104600004FF47040FDF791FDAA214FF20100FDF734
:104610008CFD52214FF20200FDF787FD08214FF279
:104620000300FDF782FD01214FF20400FDF77DFD3F
:104630000D214FF43040FDF778FD0D214BF20100C4
:10464000FDF773FD0D214BF20200FDF76EFD3421E5
:104650004FF43640FDF769FD34214BF20160FDF760
:1046600064FD34214BF20260FDF75FFD0D214FF434
:104670003140FDF75AFD0D214BF20110FDF755FDBC
:104680000D214BF20210FDF750FD34214FF437405D
:10469000FDF74BFD34214BF20170FDF746FD34214F
:1046A0004BF20270FDF741FD00214FF43240FDF75F
:1046B0003CFD00214BF20120FDF737FD00214BF2BC
:1046C0000220FDF732FD24214FF43840FDF72DFD87
:1046D00024214BF60100FDF728FD24214BF60200B2
:1046E000FDF723FD01214FF43F40FDF71EFD0F2193
:1046F0004FF43340FDF719FD0F2100E0FEE34BF2CC
:104700000130FDF712FD0F214BF20230FDF70DFDD8
:1047100034214FF43940FDF708FD34214BF60110E8
:10472000FDF703FD34214BF60210FDF7FEFC0821D6
:104730004FF43540FDF7F9FC08214BF20150FDF72D
:10474000F4FC08214BF20250FDF7EFFC03214FF47B
:104750004240FDF7EAFC24214FF43A40FDF7E5FC26
:1047600024214BF60120FDF7E0FC24214BF602202A
:10477000FDF7DBFC00214FF43C40FDF7D6FC78212F
:104780004BF60140FDF7D1FC00214BF60240FDF74E
:10479000CCFC00214FF43D40FDF7C7FC78214BF6DF
:1047A0000150FDF7C2FC00214BF60250FDF7BDFCA5
:1047B00000214FF43E40FDF7B8FC64214BF6016048
:1047C000FDF7B3FC00214FF45140FDF7AEFC33215F
:1047D0004DF20110FDF7A9FC00214DF20210FDF78A
:1047E000A4FC34214DF20310FDF79FFC00214DF293
:1047F0000410FDF79AFC3A214DF20510FDF795FCE7
:1048000000214DF20610FDF790FC4A214DF20710F1
:10481000FDF78BFC00214DF20810FDF786FC5C21B2
:104820004DF20910FDF781FC00214DF20A10FDF751
:104830007CFC81214DF20B10FDF777FC00214DF23D
:104840000C10FDF772FCA6214DF20D10FDF76DFC6A
:1048500000214DF20E10FDF768FCE5214DF20F101E
:10486000FDF763FC01214DF21010FDF75EFC1321F2
:104870004DF21110FDF759FC01214DF21210FDF718
:1048800054FC54214DF21310FDF74FFC01214DF261
:104890001410FDF74AFC82214DF21510FDF745FC7E
:1048A00001214DF21610FDF740FCCA214DF2171000
:1048B000FDF73BFC02214DF21810FDF736FC0021FC
:1048C0004DF21910FDF731FC02214DF21A10FDF7DF
:1048D0002CFC01214DF21B10FDF727FC02214DF2AB
:1048E0001C10FDF722FC34214DF21D10FDF71DFCBC
:1048F00002214DF21E10FDF718FC67214DF21F102A
:10490000FDF713FC02214DF22010FDF70EFC84216F
:104910004DF22110FDF709FC02214DF22210FDF7A6
:1049200004FCA4214DF22310FDF7FFFB02214DF200
:104930002410FDF7FAFBB7214DF22510FDF7F5FB2A
:1049400002214DF22610FDF7F0FBCF214DF227108A
:10495000FDF7EBFB02214DF22810FDF7E6FBDE210F
:104960004DF22910FDF7E1FB02214DF22A10FDF76F
:10497000DCFBF2214DF22B10FDF7D7FB02214DF2AB
:104980002C10FDF7D2FBFE214DF22D10FDF7CDFBD3
:1049900003214DF22E10FDF7C8FB10214DF22F1010
:1049A000FDF7C3FB03214DF23010FDF7BEFB3321B1
:1049B0004DF23110FDF7B9FB03214DF23210FDF736
:1049C000B4FB6D214DF23310FDF7AFFB00214FF426
:1049D0005240FDF7AAFB33214DF20120FDF7A5FB64
:1049E00000214DF20220FDF7A0FB01E0BE030020F4
:1049F00034214DF20320FDF798FB00214DF20420F5
:104A0000FDF793FB3A214DF20520FDF78EFB0021C7
:104A10004DF20620FDF789FB4A214DF20720FDF7F4
:104A200084FB00214DF20820FDF77FFB5C214DF255
:104A30000920FDF77AFB00214DF20A20FDF775FBF6
:104A400081214DF20B20FDF770FB00214DF20C206F
:104A5000FDF76BFBA6214DF20D20FDF766FB002153
:104A60004DF20E20FDF761FBE5214DF20F20FDF721
:104A70005CFB01214DF21020FDF757FB13214DF295
:104A80001120FDF752FB01214DF21220FDF74DFBE5
:104A900054214DF21320FDF748FB01214DF2142063
:104AA000FDF743FB82214DF21520FDF73EFB01216E
:104AB0004DF21620FDF739FBCA214DF21720FDF704
:104AC00034FB02214DF21820FDF72FFB00214DF29F
:104AD0001920FDF72AFB02214DF21A20FDF725FBD4
:104AE00001214DF21B20FDF720FB02214DF21C207D
:104AF000FDF71BFB34214DF21D20FDF716FB0221B3
:104B00004DF21E20FDF711FB67214DF21F20FDF72E
:104B10000CFB02214DF22020FDF707FB84214DF212
:104B20002120FDF702FB02214DF22220FDF7FDFAC4
:104B3000A4214DF22320FDF7F8FA02214DF22420A2
:104B4000FDF7F3FAB7214DF22520FDF7EEFA022129
:104B50004DF22620FDF7E9FACF214DF22720FDF78F
:104B6000E4FA02214DF22820FDF7DFFADE214DF2B2
:104B70002920FDF7DAFA02214DF22A20FDF7D5FAB5
:104B8000F2214DF22B20FDF7D0FA02214DF22C201C
:104B9000FDF7CBFAFE214DF22D20FDF7C6FA0321D9
:104BA0004DF22E20FDF7C1FA10214DF22F20FDF716
:104BB000BCFA03214DF23020FDF7B7FA33214DF254
:104BC0003120FDF7B2FA03214DF23220FDF7ADFAA4
:104BD0006D214DF23320FDF7A8FA00214FF4534028
:104BE000FDF7A3FA33214DF20130FDF79EFA0021C3
:104BF0004DF20230FDF799FA34214DF20330FDF702
:104C000094FA00214DF20430FDF78FFA3A214DF26B
:104C10000530FDF78AFA00214DF20630FDF785FADE
:104C20004A214DF20730FDF780FA00214DF208309D
:104C3000FDF77BFA5C214DF20930FDF776FA002191
:104C40004DF20A30FDF771FA81214DF20B30FDF77C
:104C50006CFA00214DF20C30FDF767FAA6214DF2F7
:104C60000D30FDF762FA00214DF20E30FDF75DFACE
:104C7000E5214DF20F30FDF758FA01214DF21030C9
:104C8000FDF753FA13214DF21130FDF74EFA0121D1
:104C90004DF21230FDF749FA54214DF21330FDF771
:104CA00044FA01214DF21430FDF73FFA82214DF212
:104CB0001530FDF73AFA01214DF21630FDF735FABD
:104CC000CA214DF21730FDF730FA02214DF21830AB
:104CD000FDF72BFA00214DF21930FDF726FA0221DB
:104CE0004DF21A30FDF721FA01214DF21B30FDF78C
:104CF0001CFA02214DF21C30FDF717FA34214DF257
:104D00001D30FDF712FA02214DF21E30FDF70DFAAB
:104D100067214DF21F30FDF708FA02214DF22030D5
:104D2000FDF703FA84214DF22130FDF7FEF902214F
:104D30004DF22230FDF7F9F9A4214DF22330FDF7B1
:104D4000F4F902214DF22430FDF7EFF9B7214DF2CD
:104D50002530FDF7EAF902214DF22630FDF7E5F99D
:104D6000CF214DF22730FDF7E0F902214DF2283036
:104D7000FDF7DBF9DE214DF22930FDF7D6F90221EE
:104D80004DF22A30FDF7D1F9F2214DF22B30FDF72B
:104D9000CCF902214DF22C30FDF7C7F9FE214DF27E
:104DA0002D30FDF7C2F903214DF22E30FDF7BDF98C
:104DB00010214DF22F30FDF7B8F903214DF23030BC
:104DC000FDF7B3F933214DF23130FDF7AEF9032190
:104DD0004DF23230FDF7A9F96D214DF23330FDF778
:104DE000A4F900214FF45440FDF79FF933214DF20F
:104DF0000140FDF79AF900214DF20240FDF795F9C7
:104E000034214DF20340FDF790F900214DF20440AA
:104E1000FDF78BF93A214DF20540FDF786F90021A7
:104E20004DF20640FDF781F94A214DF20740FDF7AA
:104E30007CF900214DF20840FDF777F95C214DF235
:104E40000940FDF772F900214DF20A40FDF76DF9B6
:104E500081214DF20B40FDF768F900214DF20C4025
:104E6000FDF763F9A6214DF20D40FDF75EF9002133
:104E70004DF20E40FDF759F9E5214DF20F40FDF7D7
:104E800054F901214DF21040FDF74FF913214DF275
:104E90001140FDF74AF901214DF21240FDF745F9A5
:104EA00054214DF21340FDF740F901214DF2144019
:104EB000FDF73BF982214DF21540FDF736F901214E
:104EC0004DF21640FDF731F9CA214DF21740FDF7BA
:104ED0002CF902214DF21840FDF727F900214DF27F
:104EE0001940FDF722F902214DF21A40FDF71DF994
:104EF00001214DF21B40FDF718F900E004E3022107
:104F00004DF21C40FDF711F934214DF21D40FDF723
:104F10000CF902214DF21E40FDF707F967214DF211
:104F20001F40FDF702F902214DF22040FDF7FDF888
:104F300084214DF22140FDF7F8F802214DF2224084
:104F4000FDF7F3F8A4214DF22340FDF7EEF802211E
:104F50004DF22440FDF7E9F8B7214DF22540FDF769
:104F6000E4F802214DF22640FDF7DFF8CF214DF2A3
:104F70002740FDF7DAF802214DF22840FDF7D5F879
:104F8000DE214DF22940FDF7D0F802214DF22A40F2
:104F9000FDF7CBF8F2214DF22B40FDF7C6F80221C8
:104FA0004DF22C40FDF7C1F8FE214DF22D40FDF7EA
:104FB000BCF803214DF22E40FDF7B7F810214DF259
:104FC0002F40FDF7B2F803214DF23040FDF7ADF868
:104FD00033214DF23140FDF7A8F803214DF2324064
:104FE000FDF7A3F86D214DF23340FDF79EF8002147
:104FF0004FF45540FDF799F833214DF20150FDF77C
:1050000094F800214DF20250FDF78FF834214DF253
:105010000350FDF78AF800214DF20450FDF785F8A2
:105020003A214DF20550FDF780F800214DF206506F
:10503000FDF77BF84A214DF20750FDF776F8002185
:105040004DF20850FDF771F85C214DF20950FDF763
:105050006CF800214DF20A50FDF767F881214DF2FE
:105060000B50FDF762F800214DF20C50FDF75DF892
:10507000A6214DF20D50FDF758F800214DF20E50CB
:10508000FDF753F8E5214DF20F50FDF74EF80121E1
:105090004DF21050FDF749F813214DF21150FDF774
:1050A00044F801214DF21250FDF73FF854214DF222
:1050B0001350FDF73AF801214DF21450FDF735F881
:1050C00082214DF21550FDF730F801214DF21650B6
:1050D000FDF72BF8CA214DF21750FDF726F80221F3
:1050E0004DF21850FDF721F800214DF21950FDF74F
:1050F0001CF802214DF21A50FDF717F801214DF26C
:105100001B50FDF712F802214DF21C50FDF70DF86F
:1051100034214DF21D50FDF708F802214DF21E50CA
:10512000FDF703F867214DF21F50FCF7FEFF022147
:105130004DF22050FCF7F9FF84214DF22150FCF78D
:10514000F4FF02214DF22250FCF7EFFFA4214DF2B3
:105150002350FCF7EAFF02214DF22450FCF7E5FF53
:10516000B7214DF22550FCF7E0FF02214DF2265009
:10517000FCF7DBFFCF214DF22750FCF7D6FF0221D1
:105180004DF22850FCF7D1FFDE214DF22950FCF7FB
:10519000CCFF02214DF22A50FCF7C7FFF2214DF25D
:1051A0002B50FCF7C2FF02214DF22C50FCF7BDFF43
:1051B000FE214DF22D50FCF7B8FF03214DF22E5089
:1051C000FCF7B3FF10214DF22F50FCF7AEFF032187
:1051D0004DF23050FCF7A9FF33214DF23150FCF76E
:1051E000A4FF03214DF23250FCF79FFF6D214DF2D9
:1051F0003350FCF79AFF00214FF45640FCF795FF1F
:1052000033214DF20160FCF790FF00214DF2026066
:10521000FCF78BFF34214DF20360FCF786FF002181
:105220004DF20460FCF781FF3A214DF20560FCF776
:105230007CFF00214DF20660FCF777FF4A214DF21A
:105240000760FCF772FF00214DF20860FCF76DFF6C
:105250005C214DF20960FCF768FF00214DF20A6005
:10526000FCF763FF81214DF20B60FCF75EFF00212C
:105270004DF20C60FCF759FFA6214DF20D60FCF7D2
:1052800054FF00214DF20E60FCF74FFFE5214DF277
:105290000F60FCF74AFF01214DF21060FCF745FF5B
:1052A00013214DF21160FCF740FF01214DF2126015
:1052B000FCF73BFF54214DF21360FCF736FF012150
:1052C0004DF21460FCF731FF82214DF21560FCF7BE
:1052D0002CFF01214DF21660FCF727FFCA214DF289
:1052E0001760FCF722FF02214DF21860FCF71DFF4A
:1052F00000214DF21960FCF718FF02214DF21A60EF
:10530000FCF713FF01214DF21B60FCF70EFF022199
:105310004DF21C60FCF709FF34214DF21D60FCF7D3
:1053200004FF02214DF21E60FCF7FFFE67214DF2E3
:105330001F60FCF7FAFE02214DF22060FCF7F5FE3B
:1053400084214DF22160FCF7F0FE02214DF2226033
:10535000FCF7EBFEA4214DF22360FCF7E6FE0221F0
:105360004DF22460FCF7E1FEB7214DF22560FCF719
:10537000DCFE02214DF22660FCF7D7FECF214DF274
:105380002760FCF7D2FE02214DF22860FCF7CDFE2B
:10539000DE214DF22960FCF7C8FE02214DF22A60A1
:1053A000FCF7C3FEF2214DF22B60FCF7BEFE02219A
:1053B0004DF22C60FCF7B9FEFE214DF22D60FCF79A
:1053C000B4FE03214DF22E60FCF7AFFE10214DF22A
:1053D0002F60FCF7AAFE03214DF23060FCF7A5FE1A
:1053E00033214DF23160FCF7A0FE03214DF2326013
:1053F000FCF79BFE6D214DF23360FCF796FE5521C4
:105400004FF47040FCF791FEAA214FF20100FCF727
:105410008CFE52214FF20200FCF787FE08214FF26A
:105420000300FCF782FE00214FF20400FCF77DFE32
:10543000CC214FF43140FCF778FE00214BF20110F3
:10544000FCF773FE05214FF43640FCF76EFE702129
:105450004FF43740FCF769FE70214BF20170FCF706
:1054600064FE01214FF43840FCF75FFE03214BF648
:105470000100FCF75AFE03214BF60200FCF755FE33
:1054800003214BF60300FCF750FE02214FF43C4091
:10549000FCF74BFE00214BF60140FCF746FE0021D5
:1054A0004BF60240FCF741FED0214FF44940FCF797
:1054B0003CFE02214CF60110FCF737FE50214CF661
:1054C0000210FCF732FE50214CF60310FCF72DFEC3
:1054D00050214CF60410FCF728FE00214FF45450E4
:1054E000FCF723FE55214FF46850FCF71EFE4FF4E5
:1054F0008850FCF7FFFD782002F0FCF94FF42450AF
:10550000FCF7F8FD01F05EB9FE48808849F22531CC
:1055100088427DD147F6F001E520FCF706FE4FF406
:1055200080710120FCF701FE4FF4E0610220FCF7DE
:10553000FCFD41F230010320FCF7F7FD00210420BF
:10554000FCF7F3FD40F202210820FCF7EEFD0021FC
:105550000920FCF7EAFD00210A20FCF7E6FD002106
:105560000C20FCF7E2FD00210D20FCF7DEFD002100
:105570000F20FCF7DAFD00211020FCF7D6FD0721F3
:105580001120FCF7D2FD00211220FCF7CEFD0021F6
:105590001320FCF7CAFD00210720FCF7C6FD41F2ED
:1055A00090611020FCF7C1FD40F227211120FCF78B
:1055B000BCFD9D211220FCF7B8FD4FF4C85113200B
:1055C000FCF7B3FD25212920FCF7AFFD0D212B2091
:1055D000FCF7ABFD07213020FCF7A7FD40F20331BB
:1055E0003120FCF7A2FD03213220FCF79EFD40F2A2
:1055F00006213520FCF799FD08213620FCF795FDA2
:1056000040F206413720FCF790FD4FF4417100E075
:1056100058E03820FCF789FD07213920FCF785FD8B
:1056200040F202613C20FCF780FD08213D20FCF7A0
:105630007CFD00215020FCF778FDEF215120FCF784
:1056400074FD00215220FCF770FD40F23F11532001
:10565000FCF76BFD4FF427416020FCF766FD01214C
:105660006120FCF762FD00216A20FCF75EFD00214D
:105670008020FCF75AFD00218120FCF756FD002117
:105680008220FCF752FD00218320FCF74EFD002113
:105690008420FCF74AFD00218520FCF746FD1021FF
:1056A0009020FCF742FD4FF4C0619220FCF73DFDD5
:1056B00040F233110720FCF738FD22210020FCF7CF
:1056C00034FD1FE78F48808849F2283188427DD118
:1056D00041F28F01EC20FCF728FD41F23421EF204C
:1056E000FCF723FD4FF480710120FCF71EFD4FF401
:1056F000E0610220FCF719FD41F230010320FCF7C4
:1057000014FD00210420FCF710FD40F202210820C6
:10571000FCF70BFD00210920FCF707FD00210A2002
:10572000FCF703FD01210C20FCF7FFFC00210D20FC
:10573000FCF7FBFC00210F20FCF7F7FC00211020F8
:10574000FCF7F3FC07211120FCF7EFFC00211220ED
:10575000FCF7EBFC00211320FCF7E7FC01210720FC
:10576000FCF7E3FC322002F00DF941F290411020E9
:10577000FCF7DBFC40F227211120FCF7D6FC32209D
:1057800002F000F98A211220FCF7CFFC322002F04F
:10579000F9F84FF4D0511320FCF7C7FC062129205B
:1057A000FCF7C3FC0D212B20FCF7BFFC322002F0DC
:1057B000E9F800212020FCF7B8FC00212120FCF7AB
:1057C000B4FC322002F0DEF8002100E075E0302069
:1057D000FCF7ABFC40F204613120FCF7A6FC40F280
:1057E00005313220FCF7A1FC00213520FCF79DFC9F
:1057F00040F609413620FCF798FC4FF40171372040
:10580000FCF793FC40F201313820FCF78EFC40F2AB
:1058100007713920FCF789FC00213C20FCF785FC4E
:1058200040F60A213D20FCF780FC322002F0AAF865
:1058300000215020FCF779FCEF215120FCF775FC8A
:1058400000215220FCF771FC40F23F115320FCF77D
:105850006CFC4FF427416020FCF767FC01216120BC
:10586000FCF763FC00216A20FCF75FFC002180202C
:10587000FCF75BFC00218120FCF757FC0021822013
:10588000FCF753FC00218320FCF74FFC002184200F
:10589000FCF74BFC00218520FCF747FC10219020F1
:1058A000FCF743FC4FF4C0619220FCF73EFC40F251
:1058B00033110720FCF739FC24E61248808849F2AE
:1058C000203188427ED100210846FCF72EFC4FF49F
:1058D00080710120FCF729FC4FF4E0610220FCF705
:1058E00024FC41F230010320FCF71FFC00210420BE
:1058F000FCF71BFC40F202210820FCF716FC0021FB
:10590000092001E0BE030020FCF70FFC00210A2063
:10591000FCF70BFC01210C20FCF707FC00210D20FB
:10592000FCF703FC00210F20FCF7FFFB322002F004
:1059300029F840F201110720FCF7F7FB322002F0B2
:1059400021F84FF486511020FCF7EFFB07211120BE
:10595000FCF7EBFB4FF488711220FCF7E6FB4FF4E9
:1059600030611320FCF7E1FB00212920FCF7DDFB6F
:1059700044F210012B20FCF7D8FB00215020FCF74B
:10598000D4FBEF215120FCF7D0FB00215220FCF783
:10599000CCFB40F23F115320FCF7C7FB4FF41C51E6
:1059A0006020FCF7C2FB01216120FCF7BEFB002157
:1059B0006A20FCF7BAFB00218020FCF7B6FB00212F
:1059C000812000E030E0FCF7B0FB00218220FCF7F2
:1059D000ACFB00218320FCF7A8FB00218420FCF70E
:1059E000A4FB00218520FCF7A0FB10219020FCF7F0
:1059F0009CFB00219220FCF798FB01219320FCF7EF
:105A000094FB4FF488719520FCF78FFB00219720C1
:105A1000FCF78BFB00219820FCF787FB40F2731109
:105A20000720FCF782FB6DE5FE48808849F23131A2
:105A300088427DD141F21401E720FCF776FB4FF458
:105A400080710120FCF771FB4FF400710220FCF71C
:105A50006CFB41F238010320FCF767FB40F20221A6
:105A60000820FCF762FB00210920FCF75EFB002107
:105A70000A20FCF75AFB00210C20FCF756FB002102
:105A80000D20FCF752FB00210F20FCF74EFB0021FC
:105A90001020FCF74AFB07211120FCF746FB0021F0
:105AA0001220FCF742FB00211320FCF73EFBC8202C
:105AB00001F068FF41F290611020FCF736FB40F2E4
:105AC00027211120FCF731FB322001F05BFF0C2174
:105AD0001220FCF72AFB322001F054FF4FF4006142
