:020000040800F2
:10000000200D0020C5080008DF010008E1010008FC
:10001000E5010008E9010008ED010008000000000A
:10002000000000000000000000000000F1010008D6
:10003000F301000800000000F5010008F7010008C6
:10004000DF080008DF080008DF080008DF080008F4
:10005000DF080008DF080008DF080008DF080008E4
:10006000DF080008DF080008DF080008DF080008D4
:10007000DF080008DF080008DF080008DF080008C4
:10008000DF080008DF080008DF080008DF080008B4
:10009000DF080008DF080008DF080008DF080008A4
:1000A000DF080008DF080008DF080008DF08000894
:1000B000CD010008DF080008DF080008DF0800089D
:1000C000DF080008DF080008DF080008DF08000874
:1000D000DF080008AD1600083D190008031A0008E3
:1000E000DF080008DF080008DF080008DF08000854
:1000F000DF080008DF080008DF080008DF08000844
:10010000DF080008DF080008DF080008DF08000833
:10011000DF080008DF080008DF080008DF08000823
:10012000DF080008DF080008DF080008DF08000813
:1001300000F002F800F03AF80AA090E8000C8244BF
:100140008344AAF10107DA4501D100F02FF8AFF29C
:10015000090EBAE80F0013F0010F18BFFB1A43F0A5
:1001600001031847A41A0000C41A0000103A24BF63
:1001700078C878C1FAD8520724BF30C830C144BF0C
:1001800004680C607047000000230024002500264E
:10019000103A28BF78C1FBD8520728BF30C148BFEA
:1001A0000B6070471FB51FBD10B510BD01F0F9FC05
:1001B0001146FFF7F7FF00F073FA01F017FD03B4E3
:1001C000FFF7F2FF03BC01F019FA00004FF6FE70D2
:1001D0004FF080410882012007490870704770473E
:1001E00000BFFEE700BFFEE700BFFEE700BFFEE77F
:1001F0007047704770477047000000200CB5002022
:10020000019000906C48006840F480306A490860B2
:1002100000BF6948006800F4003000900198401C5D
:100220000190009818B90198B0F5A06FF1D162481B
:10023000006800F4003010B10120009001E00020BF
:1002400000900098012843D15C48006840F01000FD
:100250005A4908600846006820F003000860084614
:10026000006840F002000860534840685249486006
:100270000846406848600846406840F4806048602E
:100280000846406820F47C1048600846406840F406
:10029000E81048600846006840F08070086000BFC1
:1002A0004548006800F000700028F9D042484068D6
:1002B00020F00300404948600846406840F00200D2
:1002C000486000BF3C48406800F00C000828F9D1A5
:1002D0000CBD10B5FFF792FF10BD10B53648006891
:1002E00040F001003449086008464068344908403D
:1002F0003149486008460068324908402E49086084
:100300000846006820F4802008600846406820F411
:10031000FE0048604FF41F008860FFF7DAFF4FF0DF
:1003200000602949086010BD10B50021002000229E
:10033000214B5B6803F00C0121B1042906D0082988
:1003400028D107E0214B224C236027E01F4B204C93
:10035000236023E0184B5B6803F47010164B5B6856
:1003600003F48032022303EB904022B9194B43433C
:10037000174C23600DE0104B5B6803F4003323B18E
:10038000144B4343124C236003E0104B4343104C87
:10039000236003E00D4B0E4C236000BF00BF064BF3
:1003A0005B68C3F303130C4CE15C094B1B68CB4047
:1003B000074C236010BD00000010024000200240E6
:1003C0000000FFF8FFFFF6FE08ED00E000127A00E3
:1003D0000800002000093D000C0000202DE9F05F1E
:1003E00081468A4693461C464021FD4801F042F86A
:1003F00010B90120BDE8F09F402C01DD0220F9E793
:10040000A620F849087059204870A01C887008463A
:1004100080F803A080F804B0002506E019F8051064
:10042000F04A681D1154681CC5B2A542F6DB0027CE
:1004300004E0EC4810F80780781CC7B2601D8742C2
:10044000F7DB4FEA28222046611CCCB2401DE5496B
:100450000A542046611CCCB2401DE24901F80080DC
:100460000A222046611CCCB2401DDE490A540D22EE
:100470002046611CCCB2401DDA490A54592220465C
:10048000611CCCB2401DD7490A5448222046611C49
:10049000CCB2401DD3490A5454222046611CCCB230
:1004A000401DD0490A54002611E04021CC4800F0FC
:1004B000EEFFCC48815DCA4800F06EFF00BF4021CE
:1004C000C74800F0D7FF0028F9D0701CC6B2601DE5
:1004D0008642EADB00208DE72DE9F04107460C4615
:1004E00015461E464FF0000827B1012F1CD0022FE1
:1004F00050D134E00FE00A2001F02FF8002C01DD8C
:10050000601E84B2B8480068B04204D1002C01DDFE
:100510004FF0030803E0681E80B2051EEBD100BF58
:100520000DB94FF0010838E010E00A2001F015F88D
:10053000002C01DD601E84B2AB48001D0068B04293
:1005400004D1002C01DD4FF0030803E0681E80B2E7
:10055000051EEAD100BF0DB94FF001081DE010E003
:100560000A2000F0FAFF002C01DD601E84B29E48D4
:1005700008300068B04204D1002C01DD4FF00308C0
:1005800003E0681E80B2051EEAD100BF0DB94FF02E
:10059000010802E04FF0090800BF00BF4046BDE877
:1005A000F08170B506460024092526B1012E28D019
:1005B000022E71D14AE00123502228210020FFF7AA
:1005C0008BFF0546DDB911E00A2000F0C6FF864822
:1005D000006858B91E2C03DD502C01DA002070BDD4
:1005E0008C2C03DDB42C01DA0120F8E72046611CD5
:1005F000CCB2C828E8DBC82C02DB042500E000BF31
:100600004BE00123502228211846FFF765FF0546DD
:10061000DDB912E00A2000F0A0FF7348001D006859
:1006200058B91E2C03DD502C01DA0020D7E78C2CA2
:1006300003DDB42C01DA0120D1E72046611CCCB2E5
:10064000C828E7DBC82C00DB032526E00123502265
:1006500028210220FFF740FF0546DDB912E00A20FD
:1006600000F07BFF60480830006858B91E2C03DD9D
:10067000502C01DA0020B2E78C2C03DDB42C01DA17
:100680000120ACE72046611CCCB2C828E7DBC82CAF
:1006900000DB032501E0FFE700BF00BF28469EE71F
:1006A00008B50024A14600F03FFF01F045F84FF4E3
:1006B000E13000F0B2FF01F03FFA01F054FAFEE041
:1006C00001F036FA4848001D006800284BD14FF46D
:1006D000FA7000F042FF4448001D0068002842D133
:1006E00001234FF4617251101846FFF7F5FE002800
:1006F00039D100234FF41672C8210120FFF7ECFE18
:100700008146B9F1000F2DD1002700250CE0012012
:10071000FFF747FF0446022C02DA7F00274301E07F
:10072000002700E000BF6D1C082DF0DB01234FF413
:100730002F724FF496711846FFF7CEFE88B91A2F24
:1007400003D101208DF801000DE0B22F03D102206A
:100750008DF8010007E03C2F05D103208DF8010042
:1007600001E000E000BF20480068002849D14FF4B4
:10077000FA7000F0F2FE1C48006878BB01234FF4C9
:10078000617251100020FFF7A7FE38BB00234FF421
:100790001672C8211846FFF79FFEF8B900260025FB
:1007A0000CE00020FFF7FDFE0446022C02DA760082
:1007B000264301E0002600E000BF6D1C082DF0DBA1
:1007C00001234FF42F724FF496710020FFF784FE3F
:1007D00020B91A2E0AD101208DF8000011E0000086
:1007E000003801404800002000812142B22E03D190
:1007F00002208DF8000004E03C2E02D103208DF889
:1008000000002F480068D8BB4FF4FA7000F0A5FE36
:100810002B480068A0BB01234FF4617251100220E5
:10082000FFF75AFE60BB00234FF41672C821022066
:10083000FFF752FE20BB4FF0000800250FE002201A
:10084000FFF7AFFE0446022C04DA4FEA480848EAF4
:10085000040802E04FF0000800E000BF6D1C082D06
:10086000EDDB01234FF42F724FF496710220FFF756
:1008700033FE28B9B8F11A0F03D101208DF8020018
:100880000CE0B8F1B20F03D102208DF8020005E0B0
:10089000B8F13C0F02D103208DF802009DF8000052
:1008A00028B99DF8010010B99DF8020028B1032372
:1008B000012219466846FFF791FD00200090FFE6EF
:1008C000088121420948804709480047FEE7FEE7C2
:1008D000FEE7FEE7FEE7FEE7FEE7FEE7FEE7FEE7F0
:1008E00004480549054A064B70470000DB02000832
:1008F0003101000820070020200D002020090020E1
:100900002009002031490143314A1160704770B518
:10091000002100230F22C47804B32D4C246804F472
:10092000E064C4F5E064210AC1F10403CA404478DC
:1009300004FA03F18478144021430901254C067818
:10094000A155047804F01F050124AC4005786D1111
:10095000AD0005F1E025C5F8004109E0047804F098
:100960001F050124AC401C4D0678761145F8264041
:1009700070BD1A4A0A400243154B1B1F1A6070478C
:1009800039B1134A121D12680243114B1B1D1A6024
:1009900006E00F4A121D126882430D4B1B1D1A60A0
:1009A0007047042808D14FF0E021096941F00401A3
:1009B0004FF0E022116107E04FF0E021096921F0DA
:1009C00004014FF0E0221161704700000000FA05B9
:1009D0000CED00E000E400E080E100E080FFFF1F9C
:1009E00010B50446CC48844208D10121042000F00F
:1009F0004DFB0021042000F049FB46E0C74884423B
:100A000008D10121082000F041FB0021082000F05E
:100A10003DFB3AE0C248844208D10121102000F099
:100A200035FB0021102000F031FB2EE0BD48844250
:100A300008D10121202000F029FB0021202000F016
:100A400025FB22E0B848844208D10121402000F073
:100A50001DFB0021402000F019FB16E0B348844242
:100A600008D10121802000F011FB0021802000F03E
:100A70000DFB0AE0AE48844207D10121801500F049
:100A800005FB0021A01500F001FB10BD10B50121F0
:100A9000084600F0FBFA0021012000F0F7FA10BD33
:100AA0002DE9F04102460025002600200023002405
:100AB000002791F803C00CF00F0591F803C00CF06B
:100AC000100CBCF1000F03D091F802C04CEA0505F0
:100AD00091F800C0BCF1000F31D0146800202BE069
:100AE0004FF0010C0CFA00F3B1F800C00CEA030659
:100AF0009E4220D183004FF00F0C0CFA03F7BC4349
:100B000005FA03FC4CEA040491F803C0BCF1280F79
:100B100006D14FF0010C0CFA00FCC2F814C00AE038
:100B200091F803C0BCF1480F05D14FF0010C0CFA4D
:100B300000FCC2F810C0401C0828D1D31460B1F8E2
:100B400000C0BCF1FF0F34DD546800202EE000F13E
:100B5000080C4FF0010808FA0CF3B1F800C00CEAD9
:100B600003069E4221D183004FF00F0C0CFA03F7CD
:100B7000BC4305FA03FC4CEA040491F803C0BCF141
:100B8000280F05D100F1080C08FA0CF8C2F81480FF
:100B900091F803C0BCF1480F07D100F1080C4FF0E9
:100BA000010808FA0CF8C2F81080401C0828CED3BF
:100BB0005460BDE8F0814FF6FF7101800221817021
:100BC0000421C17070470246002093680B400BB1AE
:100BD000012000E0002070470146886880B270471D
:100BE00002460020D3680B400BB1012000E000203A
:100BF00070470146C86880B2704701617047416123
:100C000070470AB1016100E041617047C1607047FF
:100C10004FF480320A438261816182618269826914
:100C2000704702460020434B18684FF68073184007
:100C300040EA021008433F4B186070473E49C861C4
:100C40007047F0B50A46002300240021002500F07B
:100C50000046B6F1004F02D1364EF16901E0354E43
:100C60007168C0F3034583B200F44016B6F5401F27
:100C700008D121F070612F4E766826F070662D4FF6
:100C80007E6012E000F48016B6F5801F06D10326C0
:100C900006FA05F4A14341F0706106E0460D360105
:100CA00003FA06F6B14341F0706122B1460D3601F8
:100CB00003FA06F6314300F00046B6F1004F02D1C8
:100CC0001C4EF16101E01B4E7160F0BD30B5002299
:100CD0008B071C0F0F2303FA04F2164B08338C10FA
:100CE00053F824309343134C08348D1044F82530C6
:100CF00023468C1053F824308C07240F00FA04F498
:100D000023430C4C08348D1044F8253030BD0A497B
:100D1000DC3108607047000000080140000C014011
:100D2000001001400014014000180140001C014067
:100D30000020014000000140000020420E490860F0
:100D400070470D49486070470B49886070474AF604
:100D5000AA200949086070474CF6CC400649086053
:100D6000704701460020044AD2680A400AB10120B7
:100D700000E000207047000000300040DF480068BD
:100D800040F00100DD49086008464068DC49084041
:100D9000DA49486008460068DA490840D7490860DF
:100DA0000846006820F4802008600846406820F467
:100DB000FE0048604FF41F0088607047CF49096803
:100DC00021F48031CD4A11601146096821F4802157
:100DD0001160B0F5803F03D0B0F5802F0ED106E052
:100DE000C649096841F48031C44A116007E0C3492B
:100DF000096841F4A021C14A116000E000BF00BFB2
:100E0000704710B501460022002300204A11012A34
:100E100002D1BA4C236806E0022A02D1B74C236AF9
:100E200001E0B64C636A01F01F02012494401C40AB
:100E30000CB1012000E0002010BD38B5002000906A
:100E40000024002500BF3120FFF7DBFF0546009896
:100E5000401C00900098B0F5A06F01D0002DF2D09A
:100E60003120FFF7CEFF08B1012400E00024204626
:100E700038BD01460020A14A106820F0F80040EA81
:100E8000C10010607047A04908607047024600200A
:100E90009A4B586820F47C1042EA01031843974BA0
:100EA0005860704798490866704701460020934A89
:100EB000506820F003000843506070478F48406836
:100EC00000F00C007047014600208C4A506820F06A
:100ED000F00008435060704701460020874A506880
:100EE00020F4E06008435060704701460020834AC8
:100EF000506820F4605040EAC1005060704729B14A
:100F00007E4A527A02437D4B5A7204E07B4A527AFF
:100F100082437A4B5A7270477B49D83108607047D8
:100F200001460020754A506820F440400843506054
:100F300070470021714A20321170704A82F82010E7
:100F4000012802D004280AD104E001216B4A203292
:100F5000117005E00521694A2032117000E000BFE0
:100F600000BF70476949086070476449096A0143D6
:100F7000624A11627047654944390860704730B56C
:100F800000210022002400235C4D6D6805F00C0157
:100F900021B1042905D0082923D105E05C4D056065
:100FA00022E05B4D05601FE0544D6D6805F4701242
:100FB000524D6D6805F48034022505EB92421CB950
:100FC000544D554305600BE04C4D6D6805F40035FC
:100FD0001DB1504D5543056002E04D4D5543056030
:100FE00002E04B4D056000BF00BF444D6D6805F049
:100FF000F0010909484D6B5C0568DD4045603F4DD7
:101000006D6805F4E061090A434D6B5C4568DD409D
:1010100085603A4D6D6805F46051C90A3E4D6B5CC0
:101020004568DD40C560354D6D6805F44041890B6C
:101030003A4D6B5CC568B5FBF3F5056130BD29B170
:101040002E4A526902432D4B5A6104E02B4A5269E1
:1010500082432A4B5A61704729B1284A9269024358
:10106000264B9A6104E0254A92698243234B9A6198
:10107000704729B1214AD2690243204BDA6104E06A
:101080001E4AD26982431D4BDA61704729B11B4A5F
:10109000D2680243194BDA6004E0184AD2688243EE
:1010A000164BDA60704729B1144A12690243134B98
:1010B0001A6104E0114A12698243104B1A617047A9
:1010C00012494039086070470F49C86470470B499E
:1010D000C87170470948406A40F08070074948620B
:1010E000704701460020054A92680A400AB1012073
:1010F00000E00020704701498872704700100240EC
:101100000000FFF8FFFFF6FE00004242800442426A
:1011100000127A0000093D001C0000202C00002075
:1011200010B50446FB48844209D101218803FFF72A
:10113000ADFF00214FF48040FFF7A8FF32E0F648F2
:10114000844209D101214804FFF7ADFF00214FF48B
:101150000030FFF7A8FF25E0F048844209D10121C3
:101160008804FFF7A0FF00214FF48020FFF79BFFCA
:1011700018E0EB48844209D10121C804FFF793FF2E
:1011800000214FF40020FFF78EFF0BE0E54884427A
:1011900008D101210805FFF786FF00214FF48010D8
:1011A000FFF781FF10BD2DE9F04786B005460E46DA
:1011B0000024A24600BFA1460027B08900B100BFAD
:1011C0002F462C8A4CF6FF700440F08804432C8292
:1011D000AC894EF6F3100440B08831890843718918
:1011E00008430443AC81AC8A4FF6FF400440B08909
:1011F0000443AC8201A8FFF7C2FEC648874202D171
:10120000DDF810A001E0DDF80CA0A88900F4004092
:1012100040B10AEBCA0000EB0A1031684900B0FB8C
:10122000F1F807E00AEBCA0000EB0A103168890008
:10123000B0FBF1F86420B8FBF0F004012009642150
:1012400001FB1089A88900F4004040B1322000EB76
:10125000C900B0FBF1F000F00700044308E03220C1
:1012600000EB09106421B0FBF1F000F00F00044323
:101270002C8106B0BDE8F0874FF4165101600021C3
:101280008180C18001810C214181002181817047D1
:1012900010B502460020108A4FF2FF0318400B8859
:1012A0004C8823438C882343CC88234318431082E3
:1012B00010BD0021018041808180C180704721B133
:1012C000828942F40052828104E082894DF6FF73E4
:1012D0001A4082817047F0B503460024002600259D
:1012E000002040F66A17B94200D100BF1846C1F38A
:1012F000421401F01F06012707FA06F5012C01D15F
:101300000C3004E0022C01D1103000E014301AB18E
:1013100007682F43076002E00768AF430760F0BD2E
:101320001AB1838A0B43838202E0838A8B438382D0
:101330007047028A4FF6F0731A400282028A0A430B
:101340000282704782894FF2FF731A40828182893C
:101350000A438281704721B1828942F00202828170
:1013600004E082894FF6FD731A4082817047028A39
:101370004FF6DF731A400282028A0A4302827047E4
:1013800021B1028A42F48042028204E0028A4BF6D2
:10139000FF731A4002827047C1F3080282807047CF
:1013A00001468888C0F308007047818941F0010137
:1013B00081817047028BD2B20283028B42EA012202
:1013C00002837047028B02F47F420283028B0A433E
:1013D0000283704721B1828A42F02002828204E0B7
:1013E000828A4FF6DF731A408282704721B1828A67
:1013F00042F01002828204E0828A4FF6EF731A40B4
:101400008282704721B1828A42F00802828204E01F
:10141000828A4FF6F7731A408282704721B182891F
:1014200042F40042828103E08289C2F30E0282818B
:10143000704721B1828A42F40062828204E0828A8B
:101440004FF2FF731A4082827047828A4FF6FB7315
:101450001A408282828A0A438282704721B1828A3C
:1014600042F00202828204E0828A4FF6FD731A4043
:101470008282704702460020B1F5007F00D100BF94
:1014800013880B400BB1012000E00020704701F4ED
:101490000072B2F5007F00D100BFCA4302807047DE
:1014A00070B50246002400230025002040F66A168D
:1014B000B14200D100BFC1F3421501F01F03012664
:1014C00006FA03F3012D02D19689334006E0022D7E
:1014D00002D1168A334001E0968A33400C1201266D
:1014E00006FA04F41688344013B10CB1012000E070
:1014F000002070BD10B50022002340F66A14A142FE
:1015000000D100BF0A1201249440A3B2DC4304803E
:1015100010BD000000380140004400400048004079
:10152000004C00400050004010B56FF00400FFF781
:1015300038FA2E4800682E49B0FBF1F02D490870AA
:101540000846007800EB4001C1EBC0104FF6FF7178
:1015500001EAC0002849088010BD0146254A1278DA
:101560004A434FF0E0235A6100229A611A461269F9
:1015700042F001021A6100BF4FF0E022106900F052
:1015800001021AB100F48032002AF5D04FF0E022B7
:10159000126922F001024FF0E0231A6100229A61E1
:1015A00070470146144A12884A434FF0E0235A61BB
:1015B00000229A611A46126942F001021A6100BFC4
:1015C0004FF0E022106900F001021AB100F48032FD
:1015D000002AF5D04FF0E022126922F001024FF00C
:1015E000E0231A6100229A61704700000800002081
:1015F00000127A003000002032000020014600BFB7
:10160000704700BF484A128802F04002002AF9D011
:10161000C2B2454B1B1D1A80704710B586B00446F8
:10162000012144F20400FFF717FD3F48FFF778FD62
:101630004FF40070ADF8140003208DF81600182048
:101640008DF8170005A93948FFF72AFA4FF4806092
:10165000ADF8140004208DF8170005A93348FFF7F2
:101660001FFA25208DF8000003208DF801008DF869
:10167000020001208DF803006846FFF748F9019445
:101680000020ADF80800ADF80A00ADF80C00ADF888
:1016900010000820ADF80E0001A92348FFF783FDD4
:1016A00001212148FFF70BFE06B010BD10B540F236
:1016B00025511D48FFF7F4FE10B31B48FFF770FEDD
:1016C000C4B21B48008800F40040C8B9184800881C
:1016D00000F4804060B10A2C03D000201449088037
:1016E00020E01348008840F400401149088019E0C8
:1016F0000D2C06D10E48008840F480400C4908802B
:1017000010E00B480088C0F30D000A490C5408484B
:101710000088401C0649088008460088C72801DD6B
:101720000020088010BD0000003801400008014082
:10173000380000204801002008B54FF4A060FFF7F2
:10174000E1F81C208DF8000001208DF801008DF8D3
:1017500002008DF803006846FFF7D9F81D208DF8C8
:10176000000001208DF8010002208DF80200012008
:101770008DF803006846FFF7CAF81E208DF80000B8
:1017800002208DF8010003208DF8020001208DF861
:1017900003006846FFF7BBF82E208DF800000220FA
:1017A0008DF8010003208DF8020001208DF8030060
:1017B0006846FFF7ACF808BD10B588B004460121B3
:1017C0000820FFF749FC01218804FFF752FCC348B9
:1017D000FFF7A6FC4FF48060ADF81C0003208DF8E5
:1017E0001E0018208DF81F0007A9BD48FFF758F903
:1017F0004FF40060ADF81C0004208DF81F0007A90D
:10180000B748FFF74DF927208DF8000003208DF829
:10181000010002208DF8020001208DF803006846C7
:10182000FFF775F801940020ADF80800ADF80A0044
:10183000ADF80C00ADF810000C20ADF80E00002043
:10184000ADF81400ADF816004FF40070ADF81800B4
:101850000020ADF81A0001A9A048FFF7A4FC05A9D3
:101860009E48FFF715FD01219C48FFF728FD012246
:1018700040F225519948FFF72EFD012240F2244104
:101880009648FFF728FD08B010BD10B588B0044693
:1018900001210420FFF7E0FB01214804FFF7E9FBE9
:1018A0009048FFF73DFC0820ADF81C0004208DF89F
:1018B0001F0007A98C48FFF7F3F826208DF80000D9
:1018C00003208DF801008DF8020001208DF803003F
:1018D0006846FFF71CF801940020ADF80800ADF849
:1018E0000A00ADF80C00ADF810000420ADF80E00B1
:1018F0000020ADF81400ADF816004FF40070ADF8FC
:1019000018000020ADF81A0001A97648FFF74BFC3B
:1019100005A97448FFF7BCFC01217248FFF7CFFC12
:10192000012240F225516F48FFF7D5FC012240F219
:1019300024416C48FFF7CFFC08B010BD10B540F251
:1019400025516848FFF7ACFD98B1684800886328C6
:1019500002DD0020654908806248FFF721FDC1B221
:10196000624802880088401C604B1880604881549F
:1019700042E040F224415B48FFF792FD70B35948C2
:10198000001D0088C4B200BF58480088082821D133
:101990005748007856494978084455498978084499
:1019A0005349C9780844524909790844504949794A
:1019B00008444F4989790844C0B24D49C9798842E1
:1019C00008D14B48C0784A49897800EB012000B221
:1019D000484908800020454908800DE040F2253143
:1019E0004048FFF75DFD38B13E48001D0088C4B295
:1019F00000203E49088000BF10BD3E48B0F90000FD
:101A0000704710B540F225513448FFF749FD98B1B1
:101A100039480088632802DD0020374908802F48B4
:101A2000FFF7BEFCC1B2344802880088401C324B2C
:101A300018803248815444E040F224412748FFF79F
:101A40002FFD78B32548001D0088C4B200BF2A4886
:101A50000088202822D12948007842281ED1274812
:101A600040784D281AD1254840792449097900EB5E
:101A7000012000B2224908802048C0791F49897995
:101A800000EB012000B21F4908801C48407A1B4926
:101A9000097A00EB012000B21B490880002016499A
:101AA00008800EE0FFE740F225310C48FFF7F8FC14
:101AB00038B10A48001D0088C4B200200E490880D1
:101AC00000BF10BD0E48B0F9000070470D48B0F9D6
:101AD000000070470C48B0F9000070470048004013
:101AE000000C014000440040000801403E0000207E
:101AF000F80500203C000020460000205C06002085
:101B000040000020420000204400002070B505463F
:101B10000C4645F25550FFF711F92846FFF711F929
:101B20002046FFF711F9FFF712F9FFF715F970BD1D
:101B300010B5FFF70CF910BD08B501210820FFF71B
:101B40008BFA0820ADF8000010208DF80300022069
:101B50008DF8020069460F48FEF7A2FF08210D48E4
:101B6000FFF74BF808BD08B501210820FFF774FA0C
:101B70000720ADF8000004208DF8030003208DF845
:101B8000020069460348FEF78BFF07210148FFF773
:101B900034F808BD000C014070477047704770472B
:101BA0007047754600F02CF8AE460500694653466E
:101BB00020F00700854618B020B5FEF791FEBDE87D
:101BC00020404FF000064FF000074FF000084FF0A4
:101BD000000B21F00701AC46ACE8C009ACE8C00935
:101BE000ACE8C009ACE8C0098D46704710B50446A2
:101BF000AFF300802046BDE81040FEF7E0BA0000D9
:101C000000487047C0060020281C00080000002083
:101C1000480000006C010008701C0008480000200B
:101C2000D80C00008801000800000000000000003F
:101C300000A24A04000000000000000001020304AA
:101C40000607080900000000010203040102030462
:101C50000607080902040608000000000000000052
:101C60000000000000000000000000000000000074
:0400000508000131BD
:00000001FF
