:020000040800F2
:1000000010100020D5110008E5060008E7060008DA
:10001000EB060008EF060008F306000800000000E9
:10002000000000000000000000000000F7060008CB
:10003000F906000800000000FB060008FD060008A5
:10004000EF110008EF110008EF110008EF11000890
:10005000EF110008EF110008EF110008EF11000880
:10006000EF110008EF110008EF110008EF11000870
:10007000EF110008EF110008EF110008EF11000860
:10008000EF110008EF110008EF110008EF11000850
:1000900039490008EF110008EF110008EF110008BE
:1000A000EF110008EF110008EF110008EF11000830
:1000B000EF110008A70F0008EF110008EF1100086A
:1000C000EF110008EF110008EF110008EF11000810
:1000D000EF1100084B1100087B0D0008B50C00085B
:1000E000EF110008EF1100082D490008EF1100087A
:1000F000EF110008EF110008EF110008EF110008E0
:10010000EF110008EF110008EF110008EF110008CF
:10011000EF110008EF110008EF110008EF110008BF
:10012000EF110008EF110008EF110008EF110008AF
:1001300000F002F800F0B0F80AA090E8000C824449
:100140008344AAF10107DA4501D100F0A5F8AFF226
:10015000090EBAE80F0013F0010F18BFFB1A43F0A5
:100160000103184720870000408700000A444FF031
:10017000000C10F8013B13F0070408BF10F8014B06
:100180001D1108BF10F8015B641E05D010F8016B4B
:10019000641E01F8016BF9D113F0080F1EBF10F8AF
:1001A000014BAD1C0C1B09D16D1E58BF01F801CBD2
:1001B000FAD505E014F8016B01F8016B6D1EF9D555
:1001C0009142D6D37047000000230024002500266A
:1001D000103A28BF78C1FBD8520728BF30C148BFAA
:1001E0000B6070476E2905F0CE82702905F02384DC
:1001F000662908F0C281652908F0BF81672908F0E7
:10020000BC816129AFF3008003681B0A28BF41F05D
:100210008001692905F0CE80642905F0CB8075291D
:1002200005F0C8806F2905F0B183782905F0EF83C8
:10023000E92905F04B83E42905F04883F52905F009
:100240004583EF2905F0AE83F82905F0EE830368B6
:10025000DB0928BF41F08001632905F05786732927
:1002600005F05C86E32905F06786F32905F06C86C6
:10027000002070471FB505F0C1FE040000200021DA
:1002800007F02CF9401C60600020002107F010F9F5
:10029000E0601FBD10B510BD05F082FE1146FFF7EE
:1002A000E9FF00F06BF805F05BFF03B4FFF7F2FF26
:1002B00003BC00F0EFFE00002DE9F05F81468A46A6
:1002C00093461C46802C02DD0220BDE8F09FA6204C
:1002D000E74908705920487004F10B0088700846FF
:1002E00080F803A080F804B001204871002506E0E2
:1002F00019F80510DE4AA81D1154681CC5B2A542A4
:10030000F6DB002606E0DA48805D40441FFA80F8FC
:10031000701CC6B2A01D8642F5DB4FEA282220469B
:10032000611CCCB2801DD2490A542046611CCCB25B
:10033000801DCF4901F8008059222046611CCCB2B3
:10034000801DCB490A5448222046611CCCB2801D36
:10035000C7490A5454222046611CCCB2801DC449AE
:100360000A54002705E0C249C85D04F0F2FB781C7E
:10037000C7B2A01D8742F6DB0020A6E78EB04FF083
:10038000000900F01DFE4FF4A06000F043FF00F0F4
:10039000EDFD0121B74802F015FC4FF4E13000F00B
:1003A00088FE4FF4165000F02CFC4FF4964000F0FD
:1003B000BFFB00F067FD0AE0AF48006808B9012004
:1003C00000E00020AC490860642000F036FE00F038
:1003D00083FB0028F0D100F083FA4FF4E16000F0D5
:1003E0002CFE002004F001FB4FF42F7000F025FEDE
:1003F000012004F0FAFA04F0A3FA04F0C1FA03F0C1
:1004000067FC34E19D48006881450DD09B48006839
:1004100000F0FF09B9F1050F03D1002096490860EB
:1004200002E0012094490860012C15D100F014FB72
:100430009348008807F098FF0546924907F0BAFEF6
:10044000914908609148008807F08EFF05468D4964
:1004500007F0B0FE8E490860022C0ED100F089FC36
:10046000824607F097FA074600228A4B07F03AF9CE
:10047000054607F049F888490860042C33D10A2161
:10048000042000F058FD0C900C9807F06DFF824698
:1004900007F0F6FD07464FF06632804B07F0E0FAB2
:1004A000054607F031F87E490860086807F0E8FD66
:1004B000074600227B4B07F0D3FA054607F024F8E5
:1004C000774908600868210707F062FF03D200201F
:1004D0007349086007E0724908684FF0804107F0EF
:1004E000D7FF6F490860052C5BD10A21052000F079
:1004F00022FD0A900A9807F037FF824607F0C0FDF8
:1005000007464FF06632654B07F0AAFA054606F03B
:10051000FBFF65490860086807F0B2FD0746002246
:10052000624B06F0B3FA05464FF03332604B07F0EA
:1005300097FACDE904015C49086807F0A1FD05467A
:100540000022A30706F0A2FA07465A4A5A4B07F0C0
:1005500087FA82468B465449086807F091FD0546A4
:100560000022564B06F092FA0746554A554B07F0C3
:1005700077FA52465B46CDE9000107F097FCCDE9DA
:100580000201DDE9042306F0F1FF4F4A4F4BCDE9AC
:10059000060106F0EBFFCDE9080106F0B5FF424980
:1005A0000860062C31D10A21062000F0C4FC0B9013
:1005B0000B9807F006FA05464FF06632374B07F006
:1005C0004FFA074606F0A0FF41490860086807F0A7
:1005D00057FD074600223F4B07F042FA054606F05A
:1005E00093FF3B49086008684FF0804107F0D0FE58
:1005F00003D200203649086007E0354908684FF00B
:10060000804107F045FF32490860072C14D100F003
:1006100015FC054607F090FE2F49086000F012FC1B
:10062000054607F089FE2D49086000F00FFC0546DD
:1006300007F082FE2A490860092C0FD10E48001FDE
:10064000006808B9012000E000200B49091F08607C
:100650002423012202210C48FFF72EFEC82000F0BF
:10066000ECFC2046611C8CB20A2800DD0024C9E69F
:100670008C01002000040040BC01224280010020C7
:100680003A00002000002041000000203C00002033
:1006900004000020000024400800002066664A3F55
:1006A0001400002000004E40100000200000F03F29
:1006B00033D34D4052B81E85EB3140400000084016
:1006C0005C8FC2F5285C19403D0AD7A3701D4040DD
:1006D0000C00002000005940180000201C000020E1
:1006E00020000020704700BFFEE700BFFEE700BF0C
:1006F000FEE700BFFEE77047704770477047000095
:100700000CB50020019000906C48006840F48030E7
:100710006A49086000BF6948006800F40030009032
:100720000198401C0190009818B90198B0F5A06F8D
:10073000F1D16248006800F4003010B1012000904F
:1007400001E0002000900098012843D15C48006837
:1007500040F010005A4908600846006820F0030085
:1007600008600846006840F002000860534840688E
:10077000524948600846406848600846406840F46E
:10078000806048600846406820F47C104860084655
:10079000406840F4E81048600846006840F0807007
:1007A000086000BF4548006800F000700028F9D0DC
:1007B0004248406820F003004049486008464068CD
:1007C00040F00200486000BF3C48406800F00C0068
:1007D0000828F9D10CBD10B5FFF792FF10BD10B578
:1007E0003648006840F00100344908600846406817
:1007F0003449084031494860084600683249084099
:100800002E4908600846006820F4802008600846E9
:10081000406820F4FE0048604FF41F008860FFF736
:10082000DAFF4FF000602949086010BD10B50021C3
:1008300000200022214B5B6803F00C0121B1042948
:1008400006D0082928D107E0214B224C236027E05D
:100850001F4B204C236023E0184B5B6803F470109F
:10086000164B5B6803F48032022303EB904022B9FD
:10087000194B4343174C23600DE0104B5B6803F4A6
:10088000003323B1144B4343124C236003E0104B5D
:100890004343104C236003E00D4B0E4C236000BF1C
:1008A00000BF064B5B68C3F303130C4CE15C094BC0
:1008B0001B68CB40074C236010BD000000100240B5
:1008C000002002400000FFF8FFFFF6FE08ED00E008
:1008D00000127A002400002000093D0028000020BA
:1008E00008B50121102001F01FF84FF44040ADF889
:1008F000000010208DF8030003208DF802006946E7
:10090000044800F055FD4FF40041024800F0FDFDA1
:1009100008BD00000010014010B57F48006820F0BD
:1009200070607D4908600846006840F040700860CB
:1009300000207A4908604FF4617000F05AFB0120F2
:100940007749C1F8B801192000F053FB10BD724877
:10095000006820F07060704908600846006840F048
:100960008060086000206F49088000BF6D480088E3
:10097000B0F5B47FFADB694880380068012800D1FF
:10098000704700206749088000BF644880380068CD
:1009900020B964480088B0F5E15FF6DB6148008863
:1009A000B0F5E15F01DD0120EAE700205D49088044
:1009B00000BF5A4880380068012804D1594800888F
:1009C000B0F5E15FF5DB5748008841F218518842E5
:1009D00006DA54480088B0F5E15F01DD0120CFE779
:1009E0000020CDE700204F49088000BF4B488038E9
:1009F000006820B94B480088B0F5B45FF6DB494881
:100A00000088B0F5B45F01DD002070470020454943
:100A1000088000BF414880380068012804D141485F
:100A20000088B0F5E15FF5DB3E480088B0F5346F33
:100A300001DD0120E9E70020E7E700B500220023FF
:100A400006E05006020EFFF7CDFF0243581CC3B26A
:100A5000082BF6DB104600BD1CB5FFF75DFFFFF766
:100A600076FFA0BBFFF7E9FF8DF80000FFF7E5FF79
:100A70008DF80100FFF7E1FF8DF80200FFF7DDFFC1
:100A80008DF80300FFF7D9FF8DF804009DF80000F2
:100A90009DF8011008449DF8021008449DF80310C9
:100AA0000844C0B29DF80410884213D19DF801009B
:100AB0009DF8001000EB01201B4908809DF8030001
:100AC0009DF8021000EB01201849088002E0FFE7C2
:100AD00001201CBD0020FCE708B50121082000F022
:100AE00023FF4FF48040ADF8000010208DF8030084
:100AF00003208DF8020069460748001F00F058FCEB
:100B00004FF480410448001F00F0FFFCFFF704FF92
:100B1000FFF71DFF08BD0000040C0140B881214211
:100B200000802142240400403C0000203A000020C4
:100B300010B588B004460121082000F0F5FE01211F
:100B4000880400F0FEFEC34800F052FF4FF48060BE
:100B5000ADF81C0003208DF81E0018208DF81F0032
:100B600007A9BD4800F024FC4FF40060ADF81C005C
:100B700004208DF81F0007A9B74800F019FC2720B2
:100B80008DF8000003208DF8010002208DF802008E
:100B900001208DF80300684600F041FB019400201D
:100BA000ADF80800ADF80A00ADF80C00ADF8100083
:100BB0000C20ADF80E000020ADF81400ADF81600C2
:100BC0004FF40070ADF818000020ADF81A0001A92C
:100BD000A04800F050FF05A99E4800F0C1FF012188
:100BE0009C4800F0D4FF012240F22551994800F0C2
:100BF000DAFF012240F22441964800F0D4FF08B009
:100C000010BD10B588B004460121042000F08CFE10
:100C10000121480400F095FE904800F0E9FE08200C
:100C2000ADF81C0004208DF81F0007A98C4800F0C7
:100C3000BFFB26208DF8000003208DF801008DF801
:100C4000020001208DF80300684600F0E8FA0194E4
:100C50000020ADF80800ADF80A00ADF80C00ADF8C2
:100C600010000420ADF80E000020ADF81400ADF81F
:100C700016004FF40070ADF818000020ADF81A000F
:100C800001A9764800F0F7FE05A9744800F068FF56
:100C90000121724800F07BFF012240F225516F488C
:100CA00000F081FF012240F224416C4800F07BFFFC
:100CB00008B010BD10B540F22551664801F058F853
:100CC00098B168480088632802DD002065490880E3
:100CD000604800F0CDFFC1B2624802880088401C25
:100CE000604B18806048815442E040F224415948EA
:100CF00001F03EF870B35748001D0088C4B200BF31
:100D000058480088082821D1574800785649497822
:100D100008445549897808445349C97808445249D8
:100D2000097908445049497908444F498979084468
:100D3000C0B24D49C979884208D14B48C0784A4968
:100D4000897800EB012000B248490880002045491D
:100D500008800DE040F225313E4801F009F838B135
:100D60003C48001D0088C4B200203E49088000BFF6
:100D700010BD3E48B0F90000704710B540F2255153
:100D8000364800F0F5FF98B139480088632802DD45
:100D9000002037490880314800F06AFFC1B234486A
:100DA00002880088401C324B18803248815444E04D
:100DB00040F22441294800F0DBFF78B32748001DAA
:100DC0000088C4B200BF2A480088202822D12948C0
:100DD000007842281ED1274840784D281AD125484E
:100DE00040792449097900EB012000B222490880AA
:100DF0002048C0791F49897900EB012000B21F49C2
:100E000008801C48407A1B49097A00EB012000B297
:100E10001B4908800020164908800EE0FFE740F2D9
:100E200025310E4800F0A4FF38B10C48001D0088A1
:100E3000C4B200200E49088000BF10BD0E48B0F9B2
:100E4000000070470D48B0F9000070470C48B0F939
:100E50000000704700480040000C01400044004082
:100E600000080140400000200C0200203E0000204D
:100E700048000020700200204200002044000020B2
:100E80004600002000B587B001214FF4017000F04A
:100E90004BFD4FF4004000F0ABFCF020ADF8040037
:100EA00000208DF8070001A92E4800F081FA2E4895
:100EB00001F030F8002002908DF80C008DF80D0044
:100EC0004FF4602004900020059001208DF8180058
:100ED00002A9254801F045F80121234801F06DF8E9
:100EE000214801F08CF800BF1F4801F08DF8002860
:100EF000FAD11D4801F092F800BF1B4801F093F8A9
:100F00000028FAD107B000BD10B50446072301221E
:100F10002146154801F0BDF80121134801F08DF874
:100F200000BF0221104801F0F9F90028F9D00E485D
:100F300001F016F910BD2DE9F04107460C460025D9
:100F4000002608E03846FFF7DFFF0544052000F0E3
:100F500074F8701CC6B2A642F4DBB5FBF4F080B2A4
:100F6000BDE8F08100080140002401403EB50121A8
:100F7000022000F0E6FC4FF47F440125ADF8044068
:100F8000681E80B2ADF800000020ADF80600ADF894
:100F900002006946094801F0B9FA00220121074818
:100FA00001F02BFE3EBD10B50121044802F0D3F83C
:100FB00018B10121014802F0DFF810BD0004004023
:100FC00010B56FF0040000F074F92E4800682E4947
:100FD000B0FBF1F02D4908700846007800EB4001A5
:100FE000C1EBC0104FF6FF7101EAC000284908802C
:100FF00010BD0146254A12784A434FF0E0235A615A
:1010000000229A611A46126942F001021A6100BF79
:101010004FF0E022106900F001021AB100F48032B2
:10102000002AF5D04FF0E022126922F001024FF0C1
:10103000E0231A6100229A6170470146144A12881F
:101040004A434FF0E0235A6100229A611A4612691E
:1010500042F001021A6100BF4FF0E022106900F077
:1010600001021AB100F48032002AF5D04FF0E022DC
:10107000126922F001024FF0E0231A6100229A6106
:10108000704700002400002000127A004A0000206F
:101090004C000020014600BF704700BF494A12883B
:1010A00002F04002002AF9D0C2B2464B1B1D1A8042
:1010B000704710B586B00446012144F2040000F0E8
:1010C00033FC4FF40070ADF8140003208DF81600C7
:1010D00018208DF8170005A93B4800F069F94FF476
:1010E0008060ADF8140004208DF8170005A936487B
:1010F00000F05EF925208DF8000003208DF8010036
:101100008DF8020001208DF80300684600F087F892
:1011100001940020ADF80800ADF80A00ADF80C000D
:10112000ADF810000C20ADF80E0001A9254800F024
:10113000A2FC012240F22551224800F034FD012199
:10114000204800F024FD06B010BD10B540F2255136
:101150001C4800F00DFE10B31A4800F089FDC4B21F
:101160001A48008800F40040C8B91848008800F404
:10117000804060B10A2C03D000201449088020E090
:101180001248008840F400401049088019E00D2CF6
:1011900006D10E48008840F480400C49088010E0D9
:1011A0000A480088C0F30D0009490C54074800881C
:1011B000401C0649088008460088C72801DD002039
:1011C000088010BD00380140000801405400002094
:1011D000D40200200948804709480047FEE7FEE79F
:1011E000FEE7FEE7FEE7FEE7FEE7FEE7FEE7FEE7D7
:1011F00004480549054A064B70470000DF07000810
:1012000031010008100A002010100020100C0020EE
:10121000100C002031490143314A1160704770B50C
:10122000002100230F22C47804B32D4C246804F459
:10123000E064C4F5E064210AC1F10403CA404478C3
:1012400004FA03F18478144021430901254C0678FF
:10125000A155047804F01F050124AC4005786D11F8
:10126000AD0005F1E025C5F8004109E0047804F07F
:101270001F050124AC401C4D0678761145F8264028
:1012800070BD1A4A0A400243154B1B1F1A60704773
:1012900039B1134A121D12680243114B1B1D1A600B
:1012A00006E00F4A121D126882430D4B1B1D1A6087
:1012B0007047042808D14FF0E021096941F004018A
:1012C0004FF0E022116107E04FF0E021096921F0C1
:1012D00004014FF0E0221161704700000000FA05A0
:1012E0000CED00E000E400E080E100E080FFFF1F83
:1012F00010B50446CC48844208D10121042000F0F6
:101300002DFB0021042000F029FB46E0C748844261
:1013100008D10121082000F021FB0021082000F065
:101320001DFB3AE0C248844208D10121102000F0A0
:1013300015FB0021102000F011FB2EE0BD48844277
:1013400008D10121202000F009FB0021202000F01D
:1013500005FB22E0B848844208D10121402000F07A
:10136000FDFA0021402000F0F9FA16E0B34884426B
:1013700008D10121802000F0F1FA0021802000F046
:10138000EDFA0AE0AE48844207D10121801500F051
:10139000E5FA0021A01500F0E1FA10BD10B5012119
:1013A000084600F0DBFA0021012000F0D7FA10BD5A
:1013B0002DE9F041024600250026002000230024EC
:1013C000002791F803C00CF00F0591F803C00CF052
:1013D000100CBCF1000F03D091F802C04CEA0505D7
:1013E00091F800C0BCF1000F31D0146800202BE050
:1013F0004FF0010C0CFA00F3B1F800C00CEA030640
:101400009E4220D183004FF00F0C0CFA03F7BC432F
:1014100005FA03FC4CEA040491F803C0BCF1280F60
:1014200006D14FF0010C0CFA00FCC2F814C00AE01F
:1014300091F803C0BCF1480F05D14FF0010C0CFA34
:1014400000FCC2F810C0401C0828D1D31460B1F8C9
:1014500000C0BCF1FF0F34DD546800202EE000F125
:10146000080C4FF0010808FA0CF3B1F800C00CEAC0
:1014700003069E4221D183004FF00F0C0CFA03F7B4
:10148000BC4305FA03FC4CEA040491F803C0BCF128
:10149000280F05D100F1080C08FA0CF8C2F81480E6
:1014A00091F803C0BCF1480F07D100F1080C4FF0D0
:1014B000010808FA0CF8C2F81080401C0828CED3A6
:1014C0005460BDE8F0814FF6FF7101800221817008
:1014D0000421C17070470246002093680B400BB195
:1014E000012000E0002070470146886880B2704704
:1014F00002460020D3680B400BB1012000E0002021
:1015000070470146C86880B2704701617047416109
:1015100070470AB1016100E041617047C1607047E6
:101520004FF480320A4382618161826182698269FB
:10153000704702460020434B18684FF680731840EE
:1015400040EA021008433F4B186070473E49C861AB
:101550007047F0B50A46002300240021002500F062
:101560000046B6F1004F02D1364EF16901E0354E2A
:101570007168C0F3034583B200F44016B6F5401F0E
:1015800008D121F070612F4E766826F070662D4FDD
:101590007E6012E000F48016B6F5801F06D10326A7
:1015A00006FA05F4A14341F0706106E0460D3601EC
:1015B00003FA06F6B14341F0706122B1460D3601DF
:1015C00003FA06F6314300F00046B6F1004F02D1AF
:1015D0001C4EF16101E01B4E7160F0BD30B5002280
:1015E0008B071C0F0F2303FA04F2164B08338C10E1
:1015F00053F824309343134C08348D1044F82530AD
:1016000023468C1053F824308C07240F00FA04F47E
:1016100023430C4C08348D1044F8253030BD0A4962
:10162000DC3108607047000000080140000C0140F8
:10163000001001400014014000180140001C01404E
:10164000002001400000014000002042DF48006807
:1016500040F00100DD49086008464068DC49084068
:10166000DA49486008460068DA490840D749086006
:101670000846006820F4802008600846406820F48E
:10168000FE0048604FF41F0088607047CF4909682A
:1016900021F48031CD4A11601146096821F480217E
:1016A0001160B0F5803F03D0B0F5802F0ED106E079
:1016B000C649096841F48031C44A116007E0C34952
:1016C000096841F4A021C14A116000E000BF00BFD9
:1016D000704710B501460022002300204A11012A5C
:1016E00002D1BA4C236806E0022A02D1B74C236A21
:1016F00001E0B64C636A01F01F02012494401C40D3
:101700000CB1012000E0002010BD38B50020009091
:101710000024002500BF3120FFF7DBFF05460098BD
:10172000401C00900098B0F5A06F01D0002DF2D0C1
:101730003120FFF7CEFF08B1012400E0002420464D
:1017400038BD01460020A14A106820F0F80040EAA8
:10175000C10010607047A049086070470246002031
:101760009A4B586820F47C1042EA01031843974BC7
:101770005860704798490866704701460020934AB0
:10178000506820F003000843506070478F4840685D
:1017900000F00C007047014600208C4A506820F091
:1017A000F00008435060704701460020874A5068A7
:1017B00020F4E06008435060704701460020834AEF
:1017C000506820F4605040EAC1005060704729B171
:1017D0007E4A527A02437D4B5A7204E07B4A527A27
:1017E00082437A4B5A7270477B49D8310860704700
:1017F00001460020754A506820F44040084350607C
:1018000070470021714A20321170704A82F820100E
:10181000012802D004280AD104E001216B4A2032B9
:10182000117005E00521694A2032117000E000BF07
:1018300000BF70476949086070476449096A0143FD
:10184000624A11627047654944390860704730B593
:1018500000210022002400235C4D6D6805F00C017E
:1018600021B1042905D0082923D105E05C4D05608C
:1018700022E05B4D05601FE0544D6D6805F4701269
:10188000524D6D6805F48034022505EB92421CB977
:10189000544D554305600BE04C4D6D6805F4003523
:1018A0001DB1504D5543056002E04D4D5543056057
:1018B00002E04B4D056000BF00BF444D6D6805F070
:1018C000F0010909484D6B5C0568DD4045603F4DFE
:1018D0006D6805F4E061090A434D6B5C4568DD40C5
:1018E00085603A4D6D6805F46051C90A3E4D6B5CE8
:1018F0004568DD40C560354D6D6805F44041890B94
:101900003A4D6B5CC568B5FBF3F5056130BD29B197
:101910002E4A526902432D4B5A6104E02B4A526908
:1019200082432A4B5A61704729B1284A926902437F
:10193000264B9A6104E0254A92698243234B9A61BF
:10194000704729B1214AD2690243204BDA6104E091
:101950001E4AD26982431D4BDA61704729B11B4A86
:10196000D2680243194BDA6004E0184AD268824315
:10197000164BDA60704729B1144A12690243134BBF
:101980001A6104E0114A12698243104B1A617047D0
:1019900012494039086070470F49C86470470B49C5
:1019A000C87170470948406A40F080700749486232
:1019B000704701460020054A92680A400AB101209A
:1019C00000E0002070470149887270470010024013
:1019D0000000FFF8FFFFF6FE000042428004424292
:1019E00000127A0000093D00560000206600002029
:1019F00010B50446FB48844209D101218803FFF752
:101A0000ADFF00214FF48040FFF7A8FF32E0F64819
:101A1000844209D101214804FFF7ADFF00214FF4B2
:101A20000030FFF7A8FF25E0F048844209D10121EA
:101A30008804FFF7A0FF00214FF48020FFF79BFFF1
:101A400018E0EB48844209D10121C804FFF793FF55
:101A500000214FF40020FFF78EFF0BE0E5488442A1
:101A600008D101210805FFF786FF00214FF48010FF
:101A7000FFF781FF10BD2DE9F04786B005460E4601
:101A80000024A24600BFA1460027B08900B100BFD4
:101A90002F462C8A4CF6FF700440F08804432C82B9
:101AA000AC894EF6F3100440B0883189084371893F
:101AB00008430443AC81AC8A4FF6FF400440B08930
:101AC0000443AC8201A8FFF7C2FEC648874202D198
:101AD000DDF810A001E0DDF80CA0A88900F40040BA
:101AE00040B10AEBCA0000EB0A1031684900B0FBB4
:101AF000F1F807E00AEBCA0000EB0A103168890030
:101B0000B0FBF1F86420B8FBF0F004012009642177
:101B100001FB1089A88900F4004040B1322000EB9D
:101B2000C900B0FBF1F000F00700044308E03220E8
:101B300000EB09106421B0FBF1F000F00F0004434A
:101B40002C8106B0BDE8F0874FF4165101600021EA
:101B50008180C18001810C214181002181817047F8
:101B600010B502460020108A4FF2FF0318400B8880
:101B70004C8823438C882343CC882343184310820A
:101B800010BD0021018041808180C180704721B15A
:101B9000828942F40052828104E082894DF6FF730B
:101BA0001A4082817047F0B50346002400260025C4
:101BB000002040F66A17B94200D100BF1846C1F3B1
:101BC000421401F01F06012707FA06F5012C01D186
:101BD0000C3004E0022C01D1103000E014301AB1B6
:101BE00007682F43076002E00768AF430760F0BD56
:101BF0001AB1838A0B43838202E0838A8B438382F8
:101C00007047028A4FF6F0731A400282028A0A4332
:101C10000282704782894FF2FF731A408281828963
:101C20000A438281704721B1828942F00202828197
:101C300004E082894FF6FD731A4082817047028A60
:101C40004FF6DF731A400282028A0A43028270470B
:101C500021B1028A42F48042028204E0028A4BF6F9
:101C6000FF731A4002827047C1F3080282807047F6
:101C700001468888C0F308007047818941F001015E
:101C800081817047028BD2B20283028B42EA012229
:101C900002837047028B02F47F420283028B0A4365
:101CA0000283704721B1828A42F02002828204E0DE
:101CB000828A4FF6DF731A408282704721B1828A8E
:101CC00042F01002828204E0828A4FF6EF731A40DB
:101CD0008282704721B1828A42F00802828204E047
:101CE000828A4FF6F7731A408282704721B1828947
:101CF00042F40042828103E08289C2F30E028281B3
:101D0000704721B1828A42F40062828204E0828AB2
:101D10004FF2FF731A4082827047828A4FF6FB733C
:101D20001A408282828A0A438282704721B1828A63
:101D300042F00202828204E0828A4FF6FD731A406A
:101D40008282704702460020B1F5007F00D100BFBB
:101D500013880B400BB1012000E00020704701F414
:101D60000072B2F5007F00D100BFCA430280704705
:101D700070B50246002400230025002040F66A16B4
:101D8000B14200D100BFC1F3421501F01F0301268B
:101D900006FA03F3012D02D19689334006E0022DA5
:101DA00002D1168A334001E0968A33400C12012694
:101DB00006FA04F41688344013B10CB1012000E097
:101DC000002070BD10B50022002340F66A14A14225
:101DD00000D100BF0A1201249440A3B2DC43048066
:101DE00010BD0000003801400044004000480040A1
:101DF000004C004000500040002044490860091D8C
:101E00000860091D0860091D086041483F491431F8
:101E10000860704700213D498279002A3AD00A467D
:101E2000126803689A430B461A600A1D1268036819
:101E30009A430B1D1A60027911440A6803681A4319
:101E40000A60324A0832126803689A432F4B0833FB
:101E50001A601A1D126803689A432C4B0C331A60DF
:101E60004279102A0ED11A1F126803681A43274BB1
:101E700008331A601A1D126803681A43234B0C3387
:101E80001A600DE02149427911440A6803681A4337
:101E90000A6005E0027911440A6803689A430A60FF
:101EA00070470021016001710C2141710021817195
:101EB00070471649103109680143144A1032116005
:101EC000704701460020114A143212680A400AB1D4
:101ED000012000E0002070470C4914310860704771
:101EE000014600200022094B1B6803EA0102074B50
:101EF00014331B680B4013B10AB1012000E000202D
:101F00007047024914310860704700000004014026
:101F1000FFFF0F0010B50446FA48844208D10121A2
:101F20004015FFF71BFD00216015FFF717FD17E0B7
:101F3000F548844208D101210015FFF70FFD00216B
:101F40002015FFF70BFD0BE0F048844208D101217A
:101F5000C803FFF703FD00214FF40040FFF7FEFC2C
:101F600010BD30B50246002000235068E84C2040E8
:101F70000D790C6844EA0524204350609068E54CD4
:101F80002040D1E902542C434D7944EA45042043D2
:101F90009060D06A20F470000C7C641EE4B223438D
:101FA00040EA0350D06230BD0021016001714171EF
:101FB0008160C16001210174704721B1826842F0E3
:101FC0000102826003E0826822F0010282607047B1
:101FD00021B1826842F48072826003E0826822F458
:101FE00080728260704710B50023CBB21AB144688A
:101FF0001C43446002E044689C43446010BD816817
:1020000041F0080181607047014600208A6802F0B3
:1020100008020AB1012000E000207047816841F009
:10202000040181607047014600208A6802F00402C2
:102030000AB1012000E00020704721B1826842F41B
:10204000A002826003E0826822F4A00282607047EE
:10205000014600208A6802F480020AB1012000E0F3
:102060000020704710B50A4600210023416821F482
:102070006041531E41EA4331416010BD21B14268C5
:1020800042F40062426003E0426822F4006242606F
:102090007047F0B504460D4600200021092D11DDE2
:1020A000E068A5F10A0606EB4607072606FA07F1DF
:1020B0008843A5F10A0606EB460603FA06F1084333
:1020C000E0600CE0206905EB4507072606FA07F1FA
:1020D000884305EB450603FA06F108432061072A09
:1020E0000FDA606B561E06EB86071F2606FA07F10D
:1020F0008843561E06EB860605FA06F10843606320
:1021000022E00D2A0FDA206BD61F06EB86071F266A
:1021100006FA07F18843D61F06EB860605FA06F194
:102120000843206310E0E06AA2F10D0606EB860783
:102130001F2606FA07F18843A2F10D0606EB860674
:1021400005FA06F10843E062F0BD21B1826842F46D
:102150008012826003E0826822F4801282607047FD
:102160000146C86C80B2704766484C3000687047C2
:1021700021B1426842F48062426003E0426822F486
:1021800080624260704721B1426842F480524260EE
:1021900003E0426822F48052426070470A46002100
:1021A000816821F4E04111438160704721B1826868
:1021B00042F40042826003E0826822F400428260BE
:1021C000704721B1826842F40212826003E08268A3
:1021D00022F4021282607047014600208A6802F4ED
:1021E00000120AB1012000E000207047F0B504465B
:1021F0001546002000220026092911DDE068A1F122
:102200000A0707EB470C072707FA0CF29043A1F1E6
:102210000A0707EB470703FA07F21043E0600CE0F8
:10222000206901EB410C072707FA0CF2904301EB00
:10223000410703FA07F210432061A06BC0F3015677
:10224000EF1C06F1010CA7EB0C0707EB870C1F270F
:1022500007FA0CF29043EF1C06F1010CA7EB0C07F8
:1022600007EB870701FA07F21043A063F0BD10B532
:102270000A4600210023816B21F44011531E41EADC
:102280000351816310BD08B5002300930090009BAB
:102290000B440093009B1A6008BD08B5024600205D
:1022A0000090009201F12800009B184400900098D3
:1022B000006880B208BD0A4600214168164B1940EB
:1022C0001143416070474162826270470A460021B3
:1022D000416821F01F0111434160704740B1094935
:1022E0000831096841F40001064A0832116007E02C
:1022F00004490831096821F40001024A08321160DA
:10230000704700000024014000280140003C0140CB
:10231000FFFEF0FFFDF7F1FFFFFD3FFF024600204B
:1023200013680B400BB1012000E000207047CA4346
:102330000260704770B502460020002300240B1293
:102340005568CEB205EA060415681D4015B10CB1FA
:10235000012000E0002070BD00220A12D343036078
:102360007047000010B50446FE48844208D10121A0
:10237000C014FFF7F3FA0021E014FFF7EFFAC4E00E
:10238000B4F1804F08D101210846FFF7F4FA00218B
:102390000120FFF7F0FAB8E0F348844208D10121A8
:1023A0000220FFF7E8FA00210220FFF7E4FAACE090
:1023B000EE48844208D101210420FFF7DCFA002115
:1023C0000420FFF7D8FAA0E0E948844208D10121AF
:1023D0000820FFF7D0FA00210820FFF7CCFA94E09C
:1023E000E448844208D101211020FFF7C4FA0021FB
:1023F0001020FFF7C0FA88E0DF48844208D10121AD
:102400002020FFF7B8FA00212020FFF7B4FA7CE083
:10241000DA48844208D101214014FFF79FFA0021D5
:102420006014FFF79BFA70E0D548844209D101217E
:10243000C804FFF793FA00214FF40020FFF78EFA4B
:1024400063E0D048844209D101210805FFF786FAEC
:1024500000214FF48010FFF781FA56E0CA48844209
:1024600009D101214805FFF779FA00214FF4001046
:10247000FFF774FA49E0C548844208D101214020A1
:10248000FFF779FA00214020FFF775FA3DE0C048D8
:10249000844208D101218020FFF76DFA00218020BD
:1024A000FFF769FA31E0BB48844208D10121801569
:1024B000FFF761FA0021A015FFF75DFA25E0B648A5
:1024C000844209D101210804FFF748FA00214FF4A2
:1024D0008030FFF743FA18E0B048844209D1012167
:1024E0004804FFF73BFA00214FF40030FFF736FABB
:1024F0000BE0AB48844208D101218804FFF72EFA93
:1025000000214FF48020FFF729FA10BD0022028835
:10251000944B98420ED0994B98420BD0B0F1804F1B
:1025200008D0914B984205D0904B984202D0904BE6
:10253000984204D14FF68F731A404B881A438D4B43
:10254000984207D08C4B984204D04FF6FF431A4074
:10255000CB881A4302808B8883850B880385814B47
:1025600098420BD0854B984208D08B4B984205D0AF
:102570008A4B984202D08A4B984201D10B7A03864B
:1025800001238382704770B5002400220023058C4C
:102590004FF6FE7635400584028C8388048B4FF617
:1025A0008F752C40B51E2C400D882C43751E2A407B
:1025B0000D892A434D882A436A4DA8420BD06F4D9E
:1025C000A84208D0744DA84205D0744DA84202D04C
:1025D000734DA84213D14FF6F7752A404D892A430F
:1025E0004FF6FB752A408D882A434FF6FF652B4036
:1025F0004FF6FF552B408D892B43CD892B4383808C
:102600000483CD888586028470BD70B500240022C5
:102610000023058C4FF6EF7635400584028C8388C5
:10262000048B48F6FF752C404FF6FF452C400D8873
:102630004FF6FF7606EA05252C434FF6DF752A4054
:102640000D8906EA05152A434D8806EA05152A4331
:10265000444DA84202D0494DA8421DD14FF67F7586
:102660002A404D894FF6FF7606EA05152A434FF6B4
:10267000BF752A408D8806EA05152A434FF6FF35B7
:102680002B404FF2FF752B408D8906EA85052B43C1
:10269000CD8906EA85052B4383800483CD88058791
:1026A000028470BD70B5002400220023058C4FF613
:1026B000FF6635400584028C8388848B4FF68F75C6
:1026C0002C404FF6FC752C400D882C434FF6FF55DF
:1026D0002A400D894FF6FF7606EA05252A434D88E4
:1026E00006EA05252A431F4DA84202D0234DA842E1
:1026F0001DD14FF2FF752A404D894FF6FF7606EA4D
:1027000005252A434FF6FF352A408D8806EA052520
:102710002A434EF6FF752B404DF6FF752B408D89F1
:1027200006EA05152B43CD8906EA05152B43838060
:102730008483CD888587028470BD70B50022002314
:102740000024058C4EF6FF7635400584038C848882
:10275000828B48F6FF752A404FF6FF452A400D88C8
:1027600020E00000002C0140000400400008004070
:10277000000C0040001000400014004000340140F4
:10278000004C01400050014000540140001800403E
:10279000001C004000200040004001400044014077
:1027A000004801404FF6FF7606EA05252A434DF61C
:1027B000FF752B400D8906EA05352B434D8806EA47
:1027C00005352B43FA4DA84202D0FA4DA84208D154
:1027D0004BF6FF752C408D894FF6FF7606EA85157E
:1027E0002C4384808283CD88A0F84050038470BD40
:1027F000828B4FF2FF331A408283828B4FF6FF7336
:1028000003EA01231A4382837047F0B50C4615464C
:10281000002200210026078C4EF6FF7C07EA0C07F9
:102820000784828B018C4FF6FF7707EA043640F667
:10283000FF473A404FF6FF7707EA05273A434FF63E
:10284000FF7707EA03373A43D94FB8420ED0D94F42
:10285000B8420BD0B0F1804F08D0D74FB84205D066
:10286000D64FB84202D0D64FB84206D14DF6FF77C8
:10287000394046F48057394305E047F6FF57394061
:1028800044F48057394382830184F0BD828B4FF634
:10289000F3731A408283828B0A4382837047F0B5B8
:1028A0000C461546002200210026078C4FF6FF6CCF
:1028B00007EA0C070784828B018C4FF6FF7707EA43
:1028C00004264FF60C773A404FF6FF7707EA0317D6
:1028D0002F433A43B64FB8420ED0B64FB8420BD052
:1028E000B0F1804F08D0B44FB84205D0B34FB842D2
:1028F00002D0B34FB84206D14FF6FF57394046F4E5
:102900008077394305E04FF2FF57394044F4807730
:10291000394382830184F0BD028B4FF2FF331A40AA
:102920000283028B4FF6FF7303EA01231A430283EB
:102930007047F0B50C461546002200210026078C92
:102940004FF6EF7C07EA0C070784028B018C4FF6E9
:10295000FF7707EA041640F6FF473A404FF6FF7745
:1029600007EA03373A434FF6FF7707EA05273A436A
:102970008F4FB8420ED08F4FB8420BD0B0F1804F7E
:1029800008D08D4FB84205D08C4FB84202D08C4F42
:10299000B84206D14FF6DF77394046F01007394389
:1029A00005E04FF65F77394044F010073943028362
:1029B0000184F0BD028B4FF6F3731A400283028B41
:1029C0000A4302837047F0B50C46154600220021E9
:1029D000068C4FF6FE773E400684028B018C4FF644
:1029E0000C7632407E1C06EA03162E433243704EAC
:1029F000B0420ED06F4EB0420BD0B0F1804F08D035
:102A00006D4EB04205D06D4EB04202D06C4EB04219
:102A100006D14FF6FD76314044F00106314305E022
:102A20004FF6F576314044F00106314302830184CC
:102A3000F0BD70B505460C465D4885420ED05D4838
:102A400085420BD0B5F1804F08D05B48854205D058
:102A50005A48854202D05A48854200D100E000BF62
:102A6000208850B92389A28861882846FFF7ABFFE8
:102A7000E1882846FFF79EFF25E0208804280AD138
:102A80002389A28861882846FFF753FFE1882846FA
:102A9000FFF742FF17E0208808280AD12389A2887F
:102AA00061882846FFF7FBFEE1882846FFF7EEFE27
:102AB00009E02389A28861882846FFF7A6FEE188FD
:102AC0002846FFF795FE70BD2DE9F04105460C46FE
:102AD00000260127608808B9022600E00026A088A9
:102AE000012801D1022700E001272088A0B923890D
:102AF000A28861882846FFF766FFE1882846FFF72D
:102B000059FF23893A4631462846FFF712FFE188EC
:102B10002846FFF701FF13E02389A2886188284631
:102B2000FFF707FFE1882846FFF7F6FE23893A46BC
:102B300031462846FFF747FFE1882846FFF73AFF6E
:102B4000BDE8F0810A884B881A438B881A43CB88EA
:102B50001A430B891A434B891A438B891A43A0F8ED
:102B6000442070474FF6FF71818000210180C180B1
:102B70004180017270470021018041808180C180C5
:102B8000018141818181C1817047002101804180A3
:102B9000012181800021C1800181704700210180D5
:102BA00041808180C1800181418181817047000025
:102BB000002C0140003401400004004000080040A7
:102BC000000C004021B1028842F00102028004E0C2
:102BD00002884FF6FE731A400280704731B1B0F898
:102BE000442042F40042A0F8442005E0B0F844201C
:102BF000C2F30E02A0F8442070471AB183890B4338
:102C0000838102E083898B4383817047818270478F
:102C100041EA0203A0F8483070471AB183890B4398
:102C2000838102E083898B438381704701894FF65A
:102C3000F8721140018170470A46002101894FF660
:102C40008F73194011430181704730B504460D461A
:102C500029462046FFF7F0FF208940F00700208139
:102C600030BD2DE9F04104460D4616461F46602D45
:102C700006D13B46012231462046FFF75AFE05E0C9
:102C80003B46012231462046FFF79DFE294620465D
:102C9000FFF7D2FF208940F007002081BDE8F081D6
:102CA00030B50C4600210189C9B24FF6FF7505EA1F
:102CB0000325154325432943018130BD2DE9F0410A
:102CC00005460E4617469846002443463A46314686
:102CD0002846FFF7E5FF2C894FF6F870044044F0D2
:102CE00007044FF68F70044044F070042C81BDE857
:102CF000F081F0B504460D4616461F463B46324667
:102D000029462046FFF7CCFF208940F480402081EF
:102D1000F0BD0185828270470A46002101884FF686
:102D20008F731940114301807047F0B50C4615466A
:102D30001E460021002200230189028B038C4FF6DE
:102D4000F877394021434FF6FC473A4040F20117EB
:102D50003A434FF6DD773B404FF6FF7707EA061719
:102D60002F433B43018102830384F0BD0A460021C7
:102D7000018B4FF68F7319401143018370470A4648
:102D80000021018B48F6FF7319404FF6FF7303EAE9
:102D900002231943018370470A460021818B4FF6B5
:102DA0008F7319401143818370470A460021818B3C
:102DB00048F6FF7319404FF6FF7303EA02231943E5
:102DC0008183704721B1028842F08002028004E0D2
:102DD00002884FF67F731A400280704721B18288C3
:102DE00042F00402828004E082884FF6FB731A40AE
:102DF0008280704721B1828842F00802828004E01C
:102E000082884FF6F7731A408280704721B182881A
:102E100042F00102828004E082884FF6FE731A407D
:102E2000828070470A460021018B4FF6F7731940E4
:102E30001143018370470A460021018B4FF2FF7353
:102E400019404FF6FF7303EA0223194301837047C9
:102E50000A460021818B4FF6F77319401143818395
:102E600070470A460021818B4FF2FF7319404FF6DD
:102E7000FF7303EA02231943818370470A46002146
:102E8000018B4FF6FB7319401143018370470A46CB
:102E90000021018B4FF6FF3319404FF6FF7303EA11
:102EA00002231943018370470A460021818B4FF6A4
:102EB000FB7319401143818370470A460021818BBF
:102EC0004FF6FF3319404FF6FF7303EA022319430D
:102ED000818370470A460021018B4FF67F731940AA
:102EE0001143018370470A460021018BC1F30E0193
:102EF0004FF6FF7303EA02231943018370470A4622
:102F00000021818B4FF67F731940114381837047F5
:102F10000A460021818BC1F30E014FF6FF7303EACD
:102F200002231943818370470A460021018C4FF622
:102F3000FD7319401143018470470A460021018C3A
:102F40004FF6F77319401143018470470A46002178
:102F5000018C4FF6DF7319404FF6FF7303EA02133B
:102F60001943018470470A460021018C4FF67F7394
:102F700019404FF6FF7303EA0213194301847047A7
:102F80000A460021018C4FF6FF5319404FF6FF739C
:102F900003EA02231943018470470A460021018C89
:102FA0004FF2FF7319404FF6FF7303EA02231943F0
:102FB000018470470A460021018C4DF6FF731940C9
:102FC0004FF6FF7303EA023319430184704730B5AB
:102FD000002301248C40A3B2048C9C430484048C01
:102FE00002FA01F5ADB22C43048430BD30B50023A4
:102FF00004248C40A3B2048C9C430484048C02FA05
:1030000001F5ADB22C43048430BD70B503460020F9
:1030100000241846183001258D40ACB21D8CA54304
:103020001D8409B1082909D100EB6100056825F06C
:10303000700505600568154305600EE00D1FC5F3BA
:103040004E052844056825F4E045056005684FF6FF
:10305000FF7606EA02263543056070BD21B102887D
:1030600042F00202028004E002884FF6FD731A402B
:103070000280704721B1028842F00402028004E01D
:1030800002884FF6FB731A400280704721B1828894
:1030900042F08002828004E082884FF67F731A40FB
:1030A0008280704702884FF6F7731A4002800288C8
:1030B0000A430280704782884FF68F731A408280DD
:1030C00082880A438280704702894FF6F8731A405B
:1030D000028102890A430281704702894FF67F7399
:1030E0001A40028102890A43028170478184704735
:1030F0008185704781867047018770478187704757
:10310000A0F84010704702884FF6FF431A40028033
:1031100002880A43028070470146888E7047014644
:10312000088F70470146888F70470146B1F840000C
:1031300070470146888C70470146088D70470246EB
:103140000020138A0B400BB1012000E000207047E3
:10315000CA430282704730B5024600200023002493
:10316000158A05EA0103958905EA010413B10CB13A
:10317000012000E0002030BDCA43028270470000F9
:1031800010B504462CB90120F649096808820020D0
:1031900010BDF549096808688047F24800680A30A0
:1031A000F6E710B5EF480068C078F04949788842E2
:1031B00013DCEC480068807878B9EA4800688088B9
:1031C00058B9E8480068C078E64909688872E64955
:1031D000096848688047002010BD0220FCE710B550
:1031E00004462CB90120DF4909680882002010BD7F
:1031F000DD49096888688047DA4800680C30F6E7DE
:1032000010B5D84B1B68D978D64B1B685879D84B6A
:103210001B689A6990470446D2480068807AE8B1F2
:103220003CB9D0480068007918B9CE480068807869
:1032300008B1022010BD8CB9CB490968C868804725
:10324000C84800684079C7490968C872C54800681D
:10325000C078C449096808730020EBE70220E9E759
:1032600010B504462CB90220BE4909680882002026
:1032700010BD0020BF490880BA480068007800F0FF
:103280007F0018BBB7490968487A00F0200131B1C6
:10329000B849097841F00201B64A117005E0B54914
:1032A000097801F0FD01B34A117000F0400131B11D
:1032B000B049097841F00101AE4A117005E0AD490D
:1032C000097801F0FE01AB4A11703AE0A5480068A8
:1032D000007800F07F00012801D1A648C8E7A14886
:1032E0000068007800F07F00022828D19D4A12680B
:1032F000517901F00F0001F080027AB19E4B03EB8F
:103300008002D2F8002C02F03002102A16D1994A1D
:10331000127842F00102974B1A700FE0964B03EBC4
:103320008002D2F8002C02F44052B2F5805F05D141
:10333000904A127842F001028E4B1A7001E0002090
:1033400096E789490968086980478A4890E72DE926
:10335000F04784480068007800F07F08B8F1000F5B
:103360000AD180480068407A00F0DF007D49096892
:1033700048720020BDE8F087B8F1020F7ED179488D
:103380000068408818B977480068007908B10220C1
:10339000F0E7DFF8D89173480068477927F0800597
:1033A0002C4670480068407900F0800038B17249BE
:1033B00001EB8400D0F8000C00F0300606E06E4906
:1033C00001EB8400D0F8000C00F4405699F800009E
:1033D000A84204D91EB163480068807A08B9022067
:1033E000C8E707F0800080B1634901EB8400D0F8A2
:1033F000000C00F0300010284BD1E0B201F01DF8B5
:10340000E0B2302100F09FFE43E05B4901EB840015
:10341000D0F8000C00F44050B0F5805F39D1E4B929
:10342000564A92F82C10E0B201F091F8524A02EBA1
:103430008401D1F8001C4BF68F7201EA020080F47F
:10344000805080F4005040F4004141F080014A4B2C
:1034500003EB8402C2F8001C1BE0E0B200F0D5FFD1
:10346000454A02EB8401D1F8001C4BF68F7201EA49
:10347000020080F4805080F4005000E00FE040F43F
:10348000004141F080013C4B03EB8402C2F8001C78
:1034900000BF354909684869804700206AE700BFD6
:1034A000022067E72DE9F0412E480068467926F0B2
:1034B00080073C462B480068407900F0800038B116
:1034C0002D4901EB8400D0F8000C00F0300506E037
:1034D000294901EB8400D0F8000C00F44055234842
:1034E0000078A04208D91F480068408820B91DB163
:1034F0001C480068807A10B90220BDE8F08106F00F
:103500008000A0B11C4A02EB8401D1F8001C48F6EF
:10351000BF7201EA020080F0100040F4004141F067
:103520008001154B03EB8402C2F8001C14E0124A20
:1035300002EB8401D1F8001C4BF68F7201EA020005
:1035400080F4805040F4004141F080010A4B03EBCD
:103550008402C2F8001C00BF0349096888698047DB
:103560000020CAE77400002080000020F80000203E
:10357000780000206A00002000500040FC0000207D
:1035800010B5F7480068407A40F02000F449096817
:103590004872F4490968C8698047002010BD10B519
:1035A0000246EF480068438A32B98888C01AEC4C5A
:1035B00024682082002010BD08681844FBE72DE92C
:1035C000F041E748006800F110042688A068C0B107
:1035D000BEB1A588B54200D93546A8B2A1688847D2
:1035E00007462088401B2080608828446080002097
:1035F00000F07FFF8046AAB24146384600F03EFD0B
:1036000000BF208850B14FF44050D74908800021B6
:10361000084600F07AFF3020D44908802088A1882D
:10362000884204DB0320CE490968087218E020882C
:10363000002804DD0520CA490968087210E02088C6
:1036400070B90620C649096808720021C848006898
:1036500080B2801CC74A42F810103020C34908804D
:10366000BDE8F0812DE9F047BD48006800F1100584
:103670002E88BB480068077AD6B9042F18D1BE48F7
:10368000007801280FD10021B948006880B2801C61
:10369000B84A42F810103020B449088000BF00201A
:1036A000B549087003E007271020B049088027E0DB
:1036B000AC88A64201D8042000E002200746B442AC
:1036C00000D93446A0B2A96888478046002000F09F
:1036D00005FF8146A2B24946404600F0B5FCA1B2C2
:1036E000002000F012FF2888001B288068882044F2
:1036F000688030209D49088000029B49088000BFF7
:10370000974909680F72BDE8F08770B502269448A2
:103710000068447892480068007800F07F00002834
:1037200044D1092C03D1FFF73CFD06465FE0052C90
:1037300014D18B480068C0787F280BDC884800686B
:10374000807838B986480068808818B9844800684D
:10375000807A08B1082565E0002648E0032C0ED1E8
:103760007F480068C078012807D17D4800688088BC
:1037700018B9FFF705FF064639E0022637E0012CAD
:1037800035D177480068C07801280DD174480068A9
:10379000808848B972480068407A00F0200018B16B
:1037A000FFF7D5FD064622E0022620E06C480068BF
:1037B000007800F07F00012805D10B2C17D1FFF70E
:1037C0001FFD064613E066480068007800F07F00A1
:1037D00002280BD1012C03D1FFF7B9FD064606E004
:1037E000032C04D1FFF75EFE064600E002264EB130
:1037F000E0B2624A1268516988470646032E01D139
:1038000009250FE00EB108250CE0062500215848D7
:10381000006880B2801C574A42F81010302053498B
:10382000088000BF4E4909680D7270BD2DE9F84F40
:103830004B48006845780027BA46062D1BD14848FA
:103840000068007800F07F00002813D1444909681F
:103850008878012803D149490968CF690AE002281C
:1038600003D1464909680F6A04E0032802D143499D
:1038700009684F6AADE0002D67D13948006840887B
:10388000002862D136480068C08802285DD13448DB
:1038900000680079002858D131480068007800F0AD
:1038A0007F0030B92E480068808810B9AFF24F67AA
:1038B0008FE02B480068007800F07F00012811D1CC
:1038C0002749096848792D4909688A690021904784
:1038D00000287ED122480068807A002879D0AFF293
:1038E0007F6776E01E480068007800F07F000228BD
:1038F0006FD11B480068407900F00F061848006837
:10390000407900F0700916480068407900F08000A6
:1039100038B11B4901EB8600D0F8000C00F03008EC
:1039200006E0174901EB8600D0F8000C00F440587F
:1039300014480078B0424CD9B9F1000F49D1B8F120
:10394000000F46D0AFF2E76743E0082D1CD10448D2
:103950000068007800F07F00D8BBAFF2DB7738E07A
:1039600074000020800000208400002086000020D9
:10397000505C0040006000406C0000207800002097
:1039800000500040F80000200A2D22D1C5480068F0
:10399000007800F07F0001281BD1C2480068807ABF
:1039A000B8B1C0480068408898B9BE48006800793E
:1039B00078B9BC480068C08801280AD1B9490968AB
:1039C0004879B94909688A690021904708B9AFF276
:1039D000F17757B1B3480068A0F812A0B148006869
:1039E00087610020B84700240FE0AE4A1268507883
:1039F000AD4A1268116988470446032C05D1092095
:103A0000A84909680872BDE8F88FA6480068008ACE
:103A10004FF6FF71884204D10920A2490968087253
:103A2000F1E7022C03D09F480068008A20B90820E3
:103A30009C4909680872E6E79A480068007800F037
:103A40008000E0B397480068C088009095480068FF
:103A5000008A0099884204D992490098096808822E
:103A600023E090480068008A8E490968C988884226
:103A70001BDA8C480068008A8B49096891F82C1081
:103A8000884203DA0020894908700EE08548006802
:103A9000008A8549096891F82C1090FBF1F201FB2E
:103AA000120010B90120814908707F48006890F821
:103AB0002C107C4800688182FFF7D4FD07E0FFE707
:103AC000032078490968087200037949088000BF1B
:103AD00099E710B5774890F82C10002000F037FDDA
:103AE00070480068007A082805D1400270490880B3
:103AF0001020714908806B480068007A092801D1BC
:103B0000012010BD0020FCE738B501246B48006897
:103B100080B2001D6A4931F8100080B201EB40000C
:103B2000009060480068007A092832D00098007838
:103B30005C49096808700098401C00900098007863
:103B40005849096848700098401C0090009800EBA4
:103B500044000090009931F8020B009100F0A0FEA3
:103B6000504909684880009800EB44000090009993
:103B700031F8020B009100F093FE4A4909688880F1
:103B8000009800EB440000900098008845490968BF
:103B9000C880012043490968087242480068C0880B
:103BA00010B9FFF7B2FD01E0FFF740FEFFF791FF0C
:103BB00038BD30B50146434B1A78002014E00306A7
:103BC000414C04EB9353D3F8003C48F68F742340E8
:103BD00048F280042343C4B2234304063A4D05EB64
:103BE0009454C4F8003C401C9042E8D341F0800358
:103BF000324C241F236030BD10B52A480068047A77
:103C0000022C01D0042C05D1FFF72CFD25480068BB
:103C1000047A1CE0062C19D1224800684078052857
:103C20000ED120480068007800F07F0040B91D499F
:103C30000968C878FFF7BDFF24490968086A80470A
:103C40001949096888688047082400E00824154954
:103C500009680C72FFF73DFF10BD10B511480068F0
:103C6000047A022C01D0042C01D1082412E0032C88
:103C700001D0052C05D1FFF7A2FC0A480068047AA0
:103C800008E0072C05D108490968C868804708245E
:103C900000E00824034909680C72FFF71AFF10BD01
:103CA0007047000074000020780000206C000020A5
:103CB00084000020FC00002086000020505C0040B2
:103CC00000600040F800002000500040800000200C
:103CD00010B50848084908600220096808720748BA
:103CE00007490860074808490860054909680868E5
:103CF000804710BD9C03002074000020FC000020C1
:103D0000780000202C0100208000002008B5002051
:103D1000009022E1C448008800F00F00C3490870F9
:103D20000846007800287CD1C1480068C149088055
:103D30000846008800F03000BF490880BD48008870
:103D400000F44050BB490880B94909684BF6BF727E
:103D500001EA020080F4005080F0200040F40041AD
:103D600041F08001B24A1160AF48008800F01000B5
:103D700090BB1046006848F60F7108401146086075
:103D8000FFF73AFFAA4909684BF6BF7201EA020041
:103D9000A849098801F4805109B180F48050A549EF
:103DA000098801F4005109B180F40050A249098842
:103DB00001F0100109B180F010009F49098801F05D
:103DC000200109B180F0200081B241F4004141F0AE
:103DD0008001974A116008BDFFE79548006880B2EE
:103DE0000090BDF8000000F40060B0B39048006897
:103DF000C0F30E0048F68F7108408D490860FFF748
:103E000083FE8B4909684BF6BF7201EA02008949BB
:103E1000098801F4805109B180F4805085490988EE
:103E200000E056E001F4005109B180F400508249ED
:103E3000098801F0100109B180F010007E4909885D
:103E400001F0200109B180F0200081B241F400416D
:103E500041F08001764A1160BDE7FFE7BDF8000040
:103E600000F40040002878D071480068C0F30E00CC
:103E700048F68F7108406E490860FFF7EEFE6C4906
:103E800009684BF6BF7201EA02006A49098801F429
:103E9000805109B180F480506649098801F40051CD
:103EA00009B180F400506449098801F0100109B19A
:103EB00080F010006049098801F0200109B180F00C
:103EC000200081B241F4004141F08001584A116064
:103ED00081E756480078594901EB8000D0F8000C82
:103EE00080B20090BDF8000000F40040C0B14F481F
:103EF000007801EB8000D0F8000CC0F30E0048F60B
:103F00008F710840494909784C4A02EB8101C1F898
:103F1000000C46490978491E494A52F82100804759
:103F2000BDF8000000F08000B8B140480078434977
:103F300001EB8000D0F8000C48F60F7108403B49B7
:103F400009783E4A02EB8101C1F8000C3749097833
:103F5000491E3C4A52F821008047354844300068E9
:103F600080B23149088000F4004000287FF4D2AECE
:103F700000BF30E710B500244AE047F6FF702C4937
:103F8000443108602848008800F00F002749087075
:103F900008460078294901EB8000D0F8000C84B273
:103FA00004F40040C8B12148007801EB8000D0F84B
:103FB000000CC0F30E0048F68F7108401B490978C9
:103FC0001E4A02EB8101C1F8000C18490978491E0C
:103FD0001B4A52F8210080471AE004F08000B8B173
:103FE00012480078154901EB8000D0F8000C48F623
:103FF0000F7108400D490978104A02EB8101C1F8A0
:10400000000C0A490978491E0E4A52F821008047DF
:1040100007484430006880B20349088000F400403B
:104020000028AAD110BD0000A800002070000020C8
:10403000005C00408400002086000020005000400A
:10404000D0000020B4000020F0B5144604F1010CAB
:104050004FEA6C07DFF848C00CEB41033D460AE02D
:104060000678401C90F800C046EA0C2223F8022B88
:104070009B1C401C6D1E002DF2D1F0BDF0B5561CEE
:104080007510074E06EB41042B4605E034F8047B1F
:1040900020F8017B401C5B1E002BF7D1F0BD000017
:1040A00000600040FA4908607047F948006880B233
:1040B0007047F749091D08607047F548001D006802
:1040C00080B27047F2480830006880B27047F0490B
:1040D0000C3108607047EE480C30006880B27047C1
:1040E0004FF6F8710140EA4A103211607047E84813
:1040F0001030006880B27047E64B03EB8002C2F8D4
:10410000001C70470146E34A02EB8100D0F8000C26
:1041100080B2704710B5DF4B03EB8002D2F8002C61
:1041200048F68F131A400A43DA4C04EB8003C3F8B5
:10413000002C10BD0146D74A02EB8100D0F8000CDC
:1041400000F4C060704730B5D24C04EB8003D3F864
:10415000003C48F6BF7403EA040201F010030BB1FF
:1041600082F0100201F020030BB182F0200242F431
:10417000004343F08003C74D05EB8004C4F8003CC6
:1041800030BD30B5C34C04EB8003D3F8003C4BF694
:104190008F7403EA040201F480530BB182F480525D
:1041A00001F400530BB182F4005242F4004343F097
:1041B0008003B84D05EB8004C4F8003C30BD30B539
:1041C00003460C461846FFF79DFF0546012C07D114
:1041D00025F48050AF4A02EB8301C1F8000C08E0DF
:1041E000022C06D125F01000AA4A02EB8301C1F887
:1041F000000C30BD0146A74A02EB8100D0F8000C4C
:1042000000F0300070470146A24A02EB8100D0F86E
:10421000000C00F44050704710B59E4B03EB800239
:10422000D2F8002C48F6BF7302EA030181F01001B6
:1042300081F0200141F4004242F08002954C04EBF1
:104240008003C3F8002C10BD10B5924B03EB800225
:10425000D2F8002C4BF68F7302EA030181F48051EF
:1042600081F4005141F4004242F08002894C04EB99
:104270008003C3F8002C10BD864A02EB8001D1F800
:10428000001C41F4807148F68F72114048F28002A0
:104290001143804B03EB8002C2F8001C70477D4A3B
:1042A00002EB8001D1F8001C48F68F62114048F201
:1042B00080021143774B03EB8002C2F8001C704769
:1042C000744A02EB8001D1F8001C48F68F6211405D
:1042D00048F2800211436F4B03EB8002C2F8001CCE
:1042E00070476C4A02EB8001D1F8001C41F48071E8
:1042F00048F68F72114048F280021143654B03EB80
:104300008002C2F8001C7047624A02EB8001D1F8BB
:10431000001C41F4807148F68F72114048F280020F
:1043200011435C4B03EB8002C2F8001C7047594AF2
:1043300002EB8001D1F8001C48F68F62114048F270
:1043400080021143534B03EB8002C2F8001C7047FC
:104350000146504A02EB8100D0F8000C00F030001A
:10436000102801D1012070470020FCE70146494A8E
:1043700002EB8100D0F8000C00F44050B0F5805FF3
:1043800001D1012070470020FCE7424A02EB800186
:10439000D1F8001CC1F30E0148F68F7211403D4B5D
:1043A00003EB8002C2F8001C70473A4A02EB80011E
:1043B000D1F8001C48F60F721140364B03EB800217
:1043C000C2F8001C7047334A02EB8001D1F8001C90
:1043D00048F68F7211404CF2800211432D4B03EBD3
:1043E0008002C2F8001C70472A4A02EB8001D1F813
:1043F000001C48F68F72114048F2C0021143254B51
:1044000003EB8002C2F8001C7047224A02EB8001D5
:10441000D1F8001C01F4804171B102EB8001D1F8A8
:10442000001C48F68F7211404CF280021143194B68
:1044300003EB8002C2F8001C7047164A02EB8001B1
:10444000D1F8001C01F0400171B102EB8001D1F8FC
:10445000001C48F68F72114048F2C00211430D4B08
:1044600003EB8002C2F8001C704710B5094B03EB48
:104470008002D2F8002C48F68F731A4048F280036D
:104480001A430A43034C04EB8003C3F8002C10BD0D
:10449000405C0040005000400146FC4A02EB8100B5
:1044A000D0F8000C00F00F00704710B54A10520011
:1044B000F74B1B689BB203EBC003F64C44F8132088
:1044C00010BD10B54A105300F14A126892B202EBC7
:1044D000C002121DEF4C44F8123010BD0146EC48EA
:1044E000006880B200EBC100EA4A32F8100080B2E6
:1044F00070470146E648006880B200EBC100001D2D
:10450000E44A32F8100080B27047E14A126892B271
:1045100002EBC002921CDF4B43F8121070470246B8
:104520003E290BDD481101F01F030BB9431E98B261
:104530004FF4004343EA8023136007E0481001F082
:1045400001030BB1431C98B283021360704710B58E
:104550000246CF48006880B200EBC200801DCD4CFF
:1045600004EB40033E290BDD481101F01F040CB998
:10457000441EA0B24FF4004444EA80241C6007E0CB
:10458000481001F001040CB1441CA0B284021C606C
:1045900010BD0146BE48006880B200EBC100801C1F
:1045A000BC4A32F81000C0F3090070470146B84811
:1045B000006880B200EBC100801DB64A32F81000DE
:1045C000C0F30900704730B54B105B00B04C246855
:1045D000A4B204EBC004AF4D45F8143053105C0096
:1045E000AB4B1B689BB203EBC0031B1D45F813408C
:1045F00030BD10B54A105200A54B1B689BB203EBAF
:10460000C003A44C44F8132010BD10B54A10530049
:104610009F4A126892B202EBC002121D9D4C44F8F0
:10462000123010BD01469A48006880B200EBC1000C
:10463000984A32F8100080B27047014694480068EA
:1046400080B200EBC100001D924A32F8100080B227
:10465000704730B50B46012B1FD18D49096889B2CF
:1046600001EBC001891C8B4D05EB41043E2A0BDD9B
:10467000511102F01F050DB94D1EA9B24FF40045AE
:1046800045EA8125256007E0511002F001050DB1D2
:104690004D1CA9B28D0225600AE0022B08D17C498D
:1046A000096889B201EBC001891C7A4C44F81120D9
:1046B000012B1FD17649096889B201EBC001891D20
:1046C000744D05EB41043E2A0BDD511102F01F052C
:1046D0000DB94D1EA9B24FF4004545EA812525606C
:1046E00007E0511002F001050DB14D1CA9B28D0279
:1046F00025600AE0022B08D16549096889B201EBFF
:10470000C001891D634C44F8112030BD30B503460B
:1047100001291FD15E48006880B200EBC300801CF5
:104720005C4D05EB40043E2A0BDD501102F01F05E5
:104730000DB9451EA8B24FF4004545EA8025256015
:1047400007E0501002F001050DB1451CA8B285022A
:1047500025600AE0022908D14D48006880B200EBCC
:10476000C300801C4B4C44F8102030BD30B50346CC
:1047700001291FD14648006880B200EBC300801DAC
:10478000444D05EB40043E2A0BDD501102F01F059D
:104790000DB9451EA8B24FF4004545EA80252560B5
:1047A00007E0501002F001050DB1451CA8B28502CA
:1047B00025600AE0022908D13548006880B200EB84
:1047C000C300801D334C44F8102030BD01463048F2
:1047D000006880B200EBC100801C2E4A32F8100045
:1047E000C0F30900704701462948006880B200EB19
:1047F000C100801D274A32F81000C0F3090070473D
:1048000001462348006880B200EBC100801D214AA8
:1048100032F8100000F47C4008B1012070471C48B9
:10482000006880B200EBC100801C1A4A32F8100008
:10483000C0F3090008B10220F0E70020EEE710B550
:10484000012910D1114B03EB8002D2F8002C48F65D
:104850008F731A4048F2C0031A430C4C04EB8003D8
:10486000C3F8002C11E002290FD1084B03EB8002A2
:10487000D2F8002C48F68F731A404CF280031A438A
:10488000024C04EB8003C3F8002C10BD0050004024
:10489000505C004000600040024641EA0220704740
:1048A0000146CAB20B1243EA0220704700201D499C
:1048B00008604FF43F401C490880084600881949A9
:1048C000091F0860002070472DE9F04104460E469C
:1048D000154604F07F00FFF701FE0746AAB23946ED
:1048E0003046FFF7B1FBA9B204F07F00FFF70DFEE1
:1048F0000020BDE8F0812DE9F04104460E46002578
:1049000004F07F00FFF752FE054604F07F00FFF73A
:10491000F0FD07462A4639463046FFF7AFFB2846EA
:10492000BDE8F081445C00407E00002010B54FF4EB
:104930008020FDF7E6FA10BD10B500F027FA10BD93
:1049400010B50020FCF750FF0121C805FCF7F9FF66
:1049500010BD10B597A000F021FD03209C49086010
:1049600010BD10B59B4C9CA000F018FDA07A18B1AA
:1049700005209749086002E001209549086010BDB4
:104980000EB54FF48020FDF7BCFA4FF48020009064
:1049900008208DF8050001208DF806006846FDF717
:1049A00039FA14208DF8080001208DF80900002044
:1049B0008DF80A0001208DF80B0002A8FCF72FFCEF
:1049C0002A208DF8080000208DF8090002A8FCF7C5
:1049D00026FC0EBD10B504461CB185A000F0DEFC1F
:1049E00002E089A000F0DAFC10BD10B504460121F8
:1049F0000420FCF799FF3CB18948006880B220F0A0
:104A000002008749086014E08548006880B240F0E1
:104A10000200834908608348006820F47F208149B0
:104A200008600846006840F44C30086000207E4969
:104A3000086010BD30B50B46002100BF16E00A2407
:104A4000B4EB107F05D9302404EB107403F8114047
:104A500005E0412404EB10740A3C03F81140000106
:104A600000254C00641C1D554C1CE1B29142E6DB54
:104A700030BD70B56D480468001D0568001D0668EE
:104A8000344454B108226A492046FFF7D3FF042278
:104A9000674910312846FFF7CDFF70BD10B50020E3
:104AA0006449A1F80204A1F800046349088063483E
:104AB000017963A000F072FC6048417966A000F0C3
:104AC0006DFC5E4881796BA000F068FC5B48016872
:104AD0006FA000F063FC012010BD30B503460A460C
:104AE000002133E0585C544C248804F400445CBB3F
:104AF000514C248804F4804464B10A2803D0002473
:104B00004D4D2C8020E04C4C248844F400444A4D08
:104B10002C8019E00D2806D1474C248844F48044A9
:104B2000454D2C8010E0444C2488C4F30D045E4DA8
:104B30002855414C2488641C3F4D2C802C462488E9
:104B4000C72C01DD00242C804C1CE1B29142C9DB52
:104B500030BD3849B1F80014364A50541146B1F806
:104B60000014491CA2F800141146B1F80014B1F564
:104B7000806F02D10021A2F8001470470FB438B53D
:104B800005A800904948009A049900F0F5FB002020
:104B90000090464800F00EFD85B2002405E0434930
:104BA000085DFFF7D6FF601C84B2AC42F7DB38BC6F
:104BB0005DF814FB75736220656E746572206C6F0E
:104BC0007720706F776572206D6F64650D0A000045
:104BD000800100209C0300206C65617665206C6F6D
:104BE0007720706F776572206D6F64650D0A000025
:104BF0007573622070756C6C20757020656E6162D3
:104C00006C650D0A000000007573622070756C6C95
:104C10002075702064697361626C650D0A00000084
:104C2000405C004004080140B0012142E8F7FF1F4A
:104C30008C000020B803002088000020F000002035
:104C40006C696E65636F64696E672E666F726D6105
:104C5000743A25640D0A00006C696E65636F6469BF
:104C60006E672E706172697479747970653A256423
:104C70000D0A00006C696E65636F64696E672E646F
:104C8000617461747970653A25640D0A0000000052
:104C90006C696E65636F64696E672E6269747261B8
:104CA00074653A25640D0A0084080020BC070020C2
:104CB00070B53248B0F802043049B1F800148842A7
:104CC00000D170BD2D48B0F802042C49B1F8001491
:104CD000884208DA2948B0F800042849B1F80214DB
:104CE000401A84B205E02548B0F80204C0F580609F
:104CF00084B2402C00DD40242048B0F80254B0F8C3
:104D0000020420441D49A1F802040846B0F8020438
:104D1000B0F5806F02DB0020A1F8020417494819A2
:104D20002246C021FFF790F921460120FFF7EDFB55
:104D30000120FFF771FA00BFC3E710B51049032047
:104D4000FFF7D9FD84B2E1B20D48FFF7C6FE03209C
:104D5000FFF77AFA10BD10B50A48006805280CD193
:104D6000094801680068401C074A1060052904D101
:104D7000002011460860FFF79BFF10BDB80300201C
:104D80004C09002080010020A400002010B588B04C
:104D9000002469480068694908800846008800F4D2
:104DA000007067490988084050B14FF6FF506249CA
:104DB000086064480078401C62490870FFF7CBFF28
:104DC0005E48008800F400405D490988084008B149
:104DD000FEF79CFF5948008800F480605849098814
:104DE000084030B14FF6FF305349086056494868D3
:104DF00080475248008800F4005051490988084013
:104E000018B14DF6FF704C4908604C48008800F41A
:104E100080504B490988084030B14EF6FF70464932
:104E20000860002000F039FA4448008800F400606F
:104E300043490988084060B14448007810B100F047
:104E4000D6F902E0022000F028FA4FF2FF703A494A
:104E500008603A48008800F48070394909880840A1
:104E6000002866D04FF6FF6033490860081D0068CF
:104E700000F40040002856D035480068401C3449F2
:104E8000086008460068032850D92B48001F0068B6
:104E900000F00800002849D12748001F006880B2B0
:104EA0002C490860002408E02B4901EB8400D0F86D
:104EB000000C80B24DF82400641C082CF4D3254863
:104EC000006840F00100234908600846006880B28D
:104ED0001949091F08601F48006820F001001D499A
:104EE00008600846006880B21349091F086000BFC7
:104EF0001148006800F480600028F9D04FF6FF30B8
:104F00000D490860002408E05DF8240080B2124AD0
:104F100002EB8401C1F8000C641C082CF4D30020BF
:104F20000B49086002E0002009490860072000F0F2
:104F3000B4F908B010BD0000445C0040A800002097
:104F40007E000020AA000020FC0000208401002038
:104F5000AC000020B00000200050004010B5FFF76A
:104F600088FD002083490968887200F017F9FFF76F
:104F70009DFC00208049086010BD10B500207D49CF
:104F8000096888727D48C0797A49096848720020AA
:104F900078490968C872FFF7A3F84FF40071002040
:104FA000FFF7B8F810210020FFF7CDF840210020CE
:104FB000FFF787FA80210020FFF777FA0020FFF73C
:104FC0007FF96F4890F82C100020FFF7C0FA0020FE
:104FD000FFF73AF900210120FFF79CF8C0210120DA
:104FE000FFF763FA20210120FFF7ADF8002101202F
:104FF000FFF7C7F84FF4C0610220FFF78BF84FF4BA
:1050000080710220FFF751FA00210220FFF7B9F862
:1050100020210220FFF797F800210320FFF77AF8FC
:105020004FF488710320FFF74CFA40210320FFF76B
:105030008EFA4FF440510320FFF7A3F8002103201C
:10504000FFF781F80020FEF7B4FD01204A4908600F
:1050500010BD4C48817A11B10521474A1160704753
:10506000042045490860704710B54748007820285B
:1050700004D1FFF713FD00204349087010BD7047AD
:10508000014629B908203B4A126810820020704767
:105090003E48FCE7014629B90820364A12681082CA
:1050A000002070473948FCE770B504460025212CE4
:1050B00009D130480068007800F07F00212810D125
:1050C000AFF22F050DE0202C0BD12A4800680078A4
:1050D00000F07F00212801D1AFF25B0520202A4992
:1050E00008700DB9022070BD22480068856100215A
:1050F0002048006841820020A8470020F3E70146CD
:105100001C480068007800F07F00212807D10229A0
:1051100001D100207047222901D10020FAE70220A6
:10512000F8E710B504461A492046FEF738FA10BDD4
:1051300010B5044617492046FEF731FA10BD70B588
:1051400005460C480068C478042C01DD002070BDC1
:10515000114800EBC4012846FEF721FAF7E70246A2
:10516000002901DD02207047012A01DD0220FAE753
:105170000020F8E7740000208001002080860008ED
:10518000FC0000209C030020EC000020F000002028
:1051900050010020580100206001002010B50120BE
:1051A000FFF718FC01246D48046000206C4908805A
:1051B00008460088694908600020091D08604FF40E
:1051C000E05067490880084600886449086000206C
:1051D00010BD10B50120614908600020091D08605C
:1051E000FFF7F8FB03205D490860002010BD38B5CB
:1051F0000025002000905948006884B200BF09E0F3
:10520000584901EB8500D0F8000C80B2564941F8AE
:1052100025006D1C082DF3D344F480644F480460CE
:1052200044F00104046024F00104046000BF4B4812
:10523000001D006800F480600028F8D04FF6FF30B1
:105240004649091D0860002509E0474850F8250037
:1052500080B2444A02EB8501C1F8000C6D1C082D98
:10526000F3D344F008043D480460006884B244F07D
:1052700004043A480460FFF76CFB38BD10B53748AA
:10528000006884B224F0040434480460FFF769FB2A
:105290004FF43F403149086010BD70B50546072DF9
:1052A00001D0324805703148007808284ED2DFE836
:1052B00000F004111A202B384E4F2D48006828B9F1
:1052C000FFF7DCFF06202949087002E00520274986
:1052D000087041E0FFF7D2FF042024490870012044
:1052E0002349086038E002202049487003200870F4
:1052F00032E01E484078401E1C49487008464078FD
:1053000008B90420087027E01448006884B244F00B
:105310001004124804600520144908700A204870DF
:105320001AE012484078401E1049487008464078FC
:1053300058B90A48006884B224F010040748046091
:105340000620087000200A49086005E000BF00BF81
:1053500006200649087000BF00BF70BD405C0040D9
:105360007E000020005000408C09002085010020B4
:1053700088010020704700001CB50C46064B7B449A
:1053800069460090204600F018FA0446002069465D
:1053900000F026FA20461CBD5F0400000FB404494B
:1053A00010B503AA029800F021FA10BC5DF814FBB6
:1053B000500000202DE9F0410646002410687529B0
:1053C000314616A510D000F04AF9002802DA404212
:1053D00013A507E031688A0701D512A502E0490745
:1053E00004D511A5012401E000F042F900210A22B0
:1053F00006F1240709E0B0FBF2FCB0FBF2F302FB7C
:105400001C00303078541846491C0028F3D123463C
:105410002A463046BDE8F04100F05CB900000000CB
:105420002D0000002B000000200000002DE9F05F9F
:10543000894604464FF0000ADFF874B1FB44C0F817
:1054400020A02046E1688847002874D0252806D08F
:10545000D4E901219047206A401C2062F1E7002630
:105460005F462046E16888472028054607DB312D46
:1054700005D2781910F8200C08B10643F1E7B007FF
:1054800001D526F00406C4F81CA00027C4F818A013
:105490002A2D09D0284601F0F1FA38B304EB870829
:1054A000303DC8F8185019E059F8041B204604EBA9
:1054B00087029161E1688847012F054618D1E069AC
:1054C000002820DA26F020061DE0D8F8180000EBAE
:1054D000800005EB40003038C8F818002046E1682D
:1054E0008847054601F0CAFA0028EED1012F0AD0FC
:1054F0002E2D08D12046E16888477F1C0546022FE3
:1055000046F02006C4DBA069002803DA404246F0DA
:105510000106A061F00701D026F010066C2D0BD01B
:10552000682D09D04C2D39D06A2D35D0742D35D049
:105530007A2D33D016E038E0E1682F4620468847C0
:10554000B842054609D16C2F26D04FF48060E1683F
:10555000064320468847054604E06C2F1AD04FF4D6
:10556000807006430DB3A5F14100192802D82035FB
:1055700046F400664A462946204626604E46FAF71B
:1055800031FE80B101280BD0F61D26F0070000F196
:10559000080956E74020E4E78020D8E70020D6E756
:1055A00006F104094DE7284652E7206ABDE8F09F5E
:1055B000DF32000010B5431C02E010F8011B71B18E
:1055C0008107FAD14FF0013202C88C1A8C4314EAD9
:1055D000C211F9D0C01A0A0603D0C01E10BDC01AED
:1055E00010BD0A0401D0801E10BD0902FCD0401E6F
:1055F00010BD704770477047704710B500F026FA2D
:10560000006810BD10B5044600F020FA046010BD1B
:1056100070B5044685690068C10601D5302600E0F2
:105620002026C00707D070BDD4E90121304690473D
:10563000206A401C20626D1EF6D570BD70B5044610
:1056400085690078C00707D170BDD4E90121202009
:105650009047206A401C20626D1EF6D570BD096817
:105660004A0501D540B27047C905FCD500B2704764
:1056700009684A0501D5C0B27047C905FCD580B29A
:10568000704770B50C460546012A05D0287880067B
:1056900000D5EA69002302E0012305E05B1C934288
:1056A00002D2E05C0028F9D1A869E618C01AA86106
:1056B000286A184428622846FFF7AAFF04E0D5E9C3
:1056C000012114F8010B9047B442F8D32846FFF7A4
:1056D000B5FF70BD2DE9F0470D4699469246044648
:1056E00000F124080168880604D5E06921F0100162
:1056F000216000E00120A84201DD471B00E00027F7
:10570000A1697A1902EB0900081AA0612078C00685
:1057100002D42046FFF77CFF002608E0D4E90121EF
:105720001AF806009047206A401C761C20624E45FD
:10573000F4DB2078C0060AD52046FFF769FF06E0B3
:10574000D4E9012130209047206A401C2062381E95
:10575000A7F10107F4DC07E0D4E9012118F80500FE
:105760009047206A401C2062281EA5F10105F3DC49
:105770002046FFF763FF2078000602D50220BDE82F
:10578000F0870120FBE711680268006A530501D524
:1057900008700AE0D30501D5088006E0130603D59A
:1057A000C217C1E9000200E0086001207047000054
:1057B00001694A1C02610878704700B58FB0CDE9D5
:1057C00001310021059105497944CDE903101146C5
:1057D0006846FFF72BFE0FB000BD0000E5FFFFFF9E
:1057E0000A6802F8010B0A6070470000074B70B5A9
:1057F0000D467B44FFF7E1FF0446284600F0A8FB76
:1058000010B14FF0FF3070BD204670BDA5B8FFFF4E
:105810002DE9FF5F15468A460446DFF8AC80F84460
:105820000027D8E900103E46CDE9001010E03AF814
:1058300016106A4602A800F08FFB411C07D02178A1
:10584000890603D5E269391891420DD80744761CC0
:105850002078800602D5E069B84205DDAE42E6DB7D
:105860003AF816000028E2D1A069C01BA0612046CA
:10587000FFF7CEFED8E90010CDE90010002017E0B8
:105880003AF818106A4602A800F066FBB0F1FF3F34
:1058900081460BD000250DF1080B05E0D4E901216C
:1058A0001BF8050090476D1C4D45F7D308F101002A
:1058B000B0428046E4DB206A384420622046FFF78D
:1058C000BDFEBDE8FF9F0000962F00002DE9F041CE
:1058D0008046D21D22F007020025D2E90002F529F8
:1058E00015A614D0011E72F1000106DA0023D0EBD8
:1058F000030063EB020211A608E0D8F800108B0742
:1059000001D50FA602E0490701D50EA601251146D3
:10591000002408F1240704E000F09CF830323A55E6
:10592000641C50EA0102F7D12B463246214640461C
:10593000BDE8F041FFF7CEBE000000002D000000E2
:105940002B0000002000000030B4002100F12404EE
:1059500008E002F00705D208303542EA4372DB085E
:105960006554491C52EA0305F3D10468002310A2D0
:10597000250708D504F020040C4304D0C469012392
:105980000CA2641EC46130BCFFF7A4BE10B504466F
:1059900021461068FFF76CFE02462046BDE8104025
:1059A0000023D1E7D21D22F00701D1E90023CBE784
:1059B0000000000030000000F0B40D460188090529
:1059C00002D5214C7C4402E01F4C7C440E34002163
:1059D00000F1240608E002F00F071209E75D42EA31
:1059E00003721B097754491C52EA0307F3D102786A
:1059F0000023120704D5702D06D009B102231134FB
:105A00002246F0BCFFF766BE01231034F8E770B5FC
:105A100004460D4621461068FFF72AFE0246294635
:105A20002046BDE870400023C6E7D21D22F00703E0
:105A3000D3E90023C0E70368126843F02003036042
:105A40000823C3610023B7E7F82D00000048704722
:105A5000AC09002030B5B0F10A024FEA900E71F1A6
:105A600000034EEA817EB0EB0E0061EB91014FEA3C
:105A7000101E4EEA017E10EB0E0041EB11114FEAB1
:105A8000102E4EEA016E10EB0E0041EB11214FEA91
:105A9000104E4EEA014E10EB0E0041EB1141401842
:105AA00041F100014FEAD00040EA41704FEAD101D4
:105AB00010EB80054FEA810444EA907444EB010442
:105AC0006D1944EB0404521BA3414FF0000348BF7F
:105AD0000A3200D530BD401C41F1000130BD704795
