:020000040800F2
:10000000A0EF0120616E0008710200087302000871
:10001000770200087B0200087F0200080000000051
:100020000000000000000000000000008302000843
:1000300085020008000000008B470108CDA30008DE
:100040007B6E00087F1800087B6E00087B6E00083E
:100050007B6E00087B6E00087B6E00087B6E0008DC
:100060007B6E00087B6E00087B6E00087B6E0008CC
:100070007B6E00087B6E00087B6E00087B6E0008BC
:100080007B6E00087B6E00087B6E00087B6E0008AC
:100090007B6E00087B6E00087B6E00087B6E00089C
:1000A0007B6E00085B6C00087B6E0008CB6C000860
:1000B000EF6800087B6E00087B6E00087B6E00080E
:1000C0007B6E00087B6E00087B6E00087B6E00086C
:1000D0007B6E000849A800087B6E00087B6E000854
:1000E0007B6E00087B6E00087B6E00087B6E00084C
:1000F0007B6E00087B6E00087B6E00087B6E00083C
:100100007B6E00087B6E0008976800087B6E000815
:1001100005A900087B6E00087B6E00087B6E000856
:100120007B6E00087B6E00087B6E00087B6E00080B
:100130007B6E00087B6E00087B6E00087B6E0008FB
:100140007B6E00087B6E00087B6E00087B6E0008EB
:100150007B6E00087B6E00087B6E00087B6E0008DB
:100160007B6E00087B6E00087B6E00087B6E0008CB
:100170007B6E00087B6E00087B6E00087B6E0008BB
:100180007B6E00087B6E000800F002F800F061F85A
:100190000AA090E8000C82448344AAF10107DA45E2
:1001A00001D100F056F8AFF2090EBAE80F0013F0D3
:1001B000010F18BFFB1A43F001031847A477010091
:1001C000C47701000A444FF0000C10F8013B13F013
:1001D000070408BF10F8014B1D1108BF10F8015BA0
:1001E000641E05D010F8016B641E01F8016BF9D193
:1001F00013F0080F1EBF10F8014BAD1C0C1B09D1EA
:100200006D1E58BF01F801CBFAD505E014F8016B5B
:1002100001F8016B6D1EF9D59142D6D370470000ED
:100220000023002400250026103A28BF78C1FBD8FF
:10023000520728BF30C148BF0B607047782914F0BF
:100240009181002070471FB515F005FD1FBD10B549
:1002500010BD14F051FA1146FFF7F5FF01F038F91F
:1002600014F06FFA03B4FFF7F2FF03BC0AF040F991
:10027000704700BFFEE700BFFEE700BFFEE700BF1C
:10028000FEE77047704700000CB500200190009019
:100290007648006840F480307449086000BF7348B5
:1002A000006800F4003000900198401C0190009814
:1002B00018B90198B0F5A04FF1D16C48006800F46E
:1002C000003010B10120009001E000200090009863
:1002D000012846D165484030006840F080506349AD
:1002E000403108606248006840F44040604908605E
:1002F0005E48083000685D490831086008460068BB
:1003000040F4004008600846006840F4A0500860CF
:100310005848091F0860081F006840F08070091FD6
:10032000086000BF5148006800F000700028F9D054
:1003300040F20570504908604C480830006820F0D1
:1003400003004A49083108600846006840F002008E
:10035000086000BF45480830006800F00C0008281D
:10036000F8D10CBD10B54548006840F47000434911
:1003700008603E48006840F001003C4908600020E9
:100380003A4908310860394800683D490840374912
:1003900008603C48091D0860081F006820F48020A0
:1003A000091F0860002031490C310860FFF76CFF1D
:1003B0004FF0006031498039086010BD70B50020F1
:1003C0000022022300240221284D08352D6805F063
:1003D0000C0020B1042806D0082834D107E02A4DAB
:1003E0002A4E356033E02A4D284E35602FE01F4DF0
:1003F0002D1D2D68C5F380541C4D2D1D2D6805F055
:100400003F0154B1224DB5FBF1F5184E361D36684B
:10041000C6F3881605FB06F209E01B4DB5FBF1F5A6
:10042000124E361D3668C6F3881605FB06F20F4DD0
:100430002D1D2D68C5F301456D1C6B00B2FBF3F556
:10044000124E356003E0104D104E356000BF00BF06
:10045000064D08352D68C5F303150E4E705D0B4D26
:100460002D68C540094E356070BD0000003802405F
:100470000070004008544007003C024088ED00E056
:10048000FFFFF6FE103000240024F40000000020DE
:1004900000127A00040000201CB504464D48046098
:1004A0004D48006800904B4800788DF80700494897
:1004B00040788DF80600474880788DF8050045485B
:1004C000C0788DF8040008226946012006F08EFAF3
:1004D0001CBD1CB50446414804603F4800680090BC
:1004E0003E4800788DF807003C4840788DF80600BB
:1004F0003A4880788DF805003848C0788DF80400B7
:1005000008226946022006F071FA1CBD10B52DEDD7
:10051000088BB0EE408AF0EE608AB7EE000AB0EECB
:10052000409A2F48006808B9012000E000202C49BB
:100530000860B1EE480AB0EE408A29EE080ADFED05
:10054000290A20EE200ADFED280A80EE201ABDEEEF
:10055000C10A264880ED000A29EE280ADFED210AAB
:1005600020EE200ADFED200A80EE201ABDEEC10A3F
:100570001F4880ED000A1D48006815F0DCF841ECCA
:100580001B0B9FED1C0B53EC102B15F0FFF841ECEF
:100590001A0B15F073F8154908601548006815F036
:1005A000CAF841EC1B0B9FED130B53EC102B15F00D
:1005B000EDF841EC1A0B15F061F80D4908600B4895
:1005C0000068FFF786FF0A480068FFF765FFBDEC8B
:1005D000088B10BD4C00002054000020500000206B
:1005E000A4824242000070428084054444000020FE
:1005F00048000020A5E2ECC367D8054000B589B0EB
:100600000121022007F03FFD0121042007F0F2FC48
:10061000022206215A4806F0F6FF02220721584816
:1006200006F0F1FFC020019002208DF808008DF83F
:10063000090001208DF80A0000208DF80B0001A9A7
:100640004F4806F055FF4F4808F052F806A808F04A
:1006500030F90020ADF818004FF6FE70079000202A
:10066000ADF82000ADF81A0006A9464808F0EDF8EC
:1006700000231A460321434808F05BFE03A808F054
:10068000F2FC0620ADF8140003A93E4808F0B4FCC3
:1006900001213C4808F08EFD00220121394808F074
:1006A00075FD4FF400403749243108600121354879
:1006B00008F054F909B000BD00B589B0012104204B
:1006C00007F0E1FC0121022007F094FC0222062140
:1006D0002D4806F098FF022207212B4806F093FFD1
:1006E000C020019002208DF808008DF8090001203B
:1006F0008DF80A0000208DF80B0001A9224806F0B1
:10070000F7FE224807F0F4FF06A808F0D2F8002010
:10071000ADF818004FF6FE7007900020ADF82000ED
:10072000ADF81A0006A9194808F08FF800231A46F8
:100730000321164808F0FDFD03A808F094FC0620EC
:10074000ADF8140003A9114808F056FC01210F4828
:1007500008F030FD002201210C4808F017FD4FF48D
:1007600000400A49243108600121084808F0F6F8E1
:1007700009B000BD10B5FFF741FFFFF79DFF10BDA9
:10078000000802400004004000040240000800404D
:1007900070B52DED048B04460D461CB915B9BDECA2
:1007A000048B70BD7F480078E0B17F4890ED000A6F
:1007B0007E48D0ED000A20EE200A7D48D0ED000AE8
:1007C00080EE201A7B4880ED001A90ED000A7A48EE
:1007D000D0ED000A80EE201A784880ED001A002043
:1007E00070490870601900EE100AB8EEC00AF6EE03
:1007F000000A20EE200A724880ED000A601B00EE1D
:10080000100AB8EEC00A6F4880ED000A6C4890EDFF
:10081000000A6D4880ED000A6A4890ED000A6B48B6
:1008200080ED000A90ED000A6448D0ED000A20EE49
:10083000200A674880ED000A664890ED000A644887
:10084000D0ED000A30EE200A624880ED000A90EDFB
:10085000000A5F48D0ED000AB6EE001A01EE200A49
:100860005D4880ED000A006815F084F941EC190B31
:10087000B0EE490AF0EE690A14F03EF8B0EE408A94
:10088000F0EE608A51EC180B14F0C6FC5349086076
:100890005148006815F06EF941EC190BB0EE490AA9
:1008A000F0EE690A13F0C4FFB0EE408AF0EE608A01
:1008B00051EC180B14F0B0FC49490860424890ED27
:1008C000000A0846D0ED000A60EE200A394890ED93
:1008D000001A444890ED000A00EE810A80ED000AFB
:1008E000394890ED000A3D48D0ED000A60EE200A3C
:1008F000304890ED001A3C4890ED000A00EE810A65
:1009000080ED000A304890ED000A2A48D0ED000A38
:1009100060EE200A354890ED000AB8EEC00A20EEDD
:10092000800A334880ED000A2948D0ED000A2F489C
:1009300090ED000AB8EEC00A20EE800A2D4880ED46
:10094000000A244890ED000A1848D0ED000AB4EEE1
:10095000E00AF1EE10FA0BDB1E4890ED000A264883
:10096000D0ED000A30EE600A1A4880ED000A17E068
:10097000184890ED000A0D48D0ED000AF1EE600A2B
:10098000B4EEE00AF1EE10FA0AD2124890ED000A35
:100990001948D0ED000A30EE200A0E4880ED000A1A
:1009A00000BFFCE6C000002078000020900000207E
:1009B00088000020A400002074000020A80000206F
:1009C000AC000020B00000209C000020A00000200F
:1009D0008400002060000020B4000020B800002047
:1009E000BC000020580000205C0000208000002097
:1009F0006400002068000020980000202DE9F041EC
:100A000006460F4690461C46402C02DD0120BDE8FC
:100A1000F0814FF02051FB4808F0F5FD00285CD034
:100A2000A620F949087059204870A01C8870084613
:100A3000C77080F80480002005E0325CF24B411D55
:100A40005A54411CC8B2A042F7DB002003E0EE4933
:100A50000D5C411CC8B2A042F9DB2A122046611C81
:100A6000CCB2401DE8490A542046611CCCB2401D5E
:100A7000E5490D540A222046611CCCB2401DE249D2
:100A80000A540D222046611CCCB2401DDE490A5496
:100A900059222046611CCCB2401DDB490A54482231
:100AA0002046611CCCB2401DD7490A54542220462E
:100AB000611CCCB2401DD4490A544FF02051D1489A
:100AC00008F0BDFD01228021D04807F083FD611DA3
:100AD000CC4805F070FE002099E7022097E70EB59C
:100AE00031E01421052006F02FF8C9490880084696
:100AF000008800EE100AB8EE400ADFEDC60A20EECC
:100B0000200ADFEDC50A80EE201AC44880ED001AE5
:100B100090ED000AF2EE060A20EE200A80ED000AAF
:100B200000BF042302220121BC48FFF767FF002811
:100B3000F7D102A8082100230A22CDE900101946A6
:100B4000184612F00CFBCCE70EB54CE0B448007828
:100B500048B90120B3490860091F0860091F0860EF
:100B6000B149C1F8AC02AE480078012809D1AD48BE
:100B70001038006808B9012000E00020A9491039A8
:100B80000860A7480078022809D1A64808380068FC
:100B900008B9012000E00020A24908390860A048F7
:100BA0000078032809D19F48001F006808B9012078
:100BB00000E000209B49091F08609A48BC38006883
:100BC000012802D19749086002E000209549086099
:100BD00002A808214FF4FA730022CDE90010114653
:100BE000104612F0BCFAB1E710B508228F49012077
:100BF00005F0FCFE08228D49022005F0F7FE10BD2D
:100C000010B502460023002003E0145C1C44A3B28C
:100C1000401C0C1F8442F8DC1078A62802D15078C2
:100C2000592801D0012010BD501810F8020C0D28D1
:100C300004D1501810F8010C0A2801D00220F2E764
:100C40009078884201D00320EDE7501810F8030C8B
:100C5000984207D0501810F8040CB0EB232F01D0A5
:100C60000420E0E7D078012801D00520DBE7002050
:100C7000D9E71FB57CE01421002013F07EFB044669
:100C800002A8002303AA194600904FF4FA6010F05E
:100C90005EFD0446BDF8080000285BD1BDF80C00DD
:100CA000C1B22046FFF7ACFF002853D120790128BC
:100CB00004D0022823D003284AD121E060790128FA
:100CC00009D108225A4905F091FE0822584902200C
:100CD00005F08CFE12E06079022802D1FFF784FF54
:100CE0000CE06079032803D100205249087005E028
:100CF0006079042802D101204E49087029E028E0DB
:100D00006079012806D002280DD005280CD00828CB
:100D10001CD117E002A800230822A11D009046481C
:100D200010F0AAFF12E011E0A079642809DCA07994
:100D3000012806DDA0794FF47A7191FBF0F03F496C
:100D4000086003E0A0793649087000BF00BF00E0EA
:100D500000BF00BF2146002013F0FFFA02A80821BF
:100D60000A230022CDE900101146104612F0F7F9CF
:100D700081E71FB50A21002013F0FFFA05463FE086
:100D800002A8002303AA19460090C82010F0DFFC37
:100D90000546BDF80800C8B9002408E0285D2849C8
:100DA00008552819007927490855601CC4B2042C3D
:100DB000F4DB244890ED001AF0EE410A204890ED53
:100DC000001AB0EE410AFFF7A1FB0FE0BDF80800E2
:100DD00047F2D921884209D108221449012005F09F
:100DE00005FE08221149022005F000FE02A8082194
:100DF00032230022CDE900101146104612F0AFF95F
:100E0000BEE70000B86402401C030020001001404F
:100E10002C01002033335340000080451401002092
:100E2000FD000020BC82424200804242DC000020E3
:100E3000C400002008010020BC0F00200401002095
:100E4000100100200C01002094B091E0FE4890EDCC
:100E5000000AFE4880ED000AFD4890ED000AFD48BA
:100E600080ED000AFC4890ED000AFC4880ED000A85
:100E7000FB4890ED000AFB4880ED000AFA4890ED2F
:100E8000000AFA4880ED000A002019E0EF49095CE9
:100E900003AA1154EF490A5C03AB011D5A54EF49F0
:100EA0000A5C00F108015A54EE490A5C00F10C0199
:100EB0005A54EE490A5C00F110015A54411CC8B260
:100EC0000428E3DB1424002500BF00BF00BF09F0A5
:100ED0009FFF054600BF00BFE5480078401CE4497D
:100EE000087000BF00BF284609F096FF00BF00BF92
:100EF00000BF23460122114603A8FFF77FFD00BF74
:100F000000BF00BF09F084FF054600BF00BFD848FE
:100F10000078401ED649087008460078A0B9D54828
:100F20000088002809DD00BF00BF284609F074FFD3
:100F300000BF00BF0CF018FA0DE000BF00BF28464C
:100F400009F06AFF00BF06E000BF00BF284609F0B5
:100F500063FF00BF00BF00BF13A80821CDE9001048
:100F6000C548002211460368104612F0F8F800BF89
:100F70006CE71FB564E03221002013F0FEF904464F
:100F800002A8002303AA19460090184610F0DFFBC0
:100F90000446002500BF00BF00BF09F039FF054629
:100FA00000BF00BFB2480078401CB149087000BFC4
:100FB00000BF284609F030FF00BF00BF00BFBDF8EA
:100FC0000C00401FC3B2012202212046FFF716FD8C
:100FD00000BF00BF00BF09F01BFF054600BF00BFF8
:100FE000A3480078401EA249087008460078A0B9BE
:100FF000A0480088002809DD00BF00BF284609F08E
:101000000BFF00BF00BF0CF0AFF90DE000BF00BF49
:10101000284609F001FF00BF06E000BF00BF2846D8
:1010200009F0FAFE00BF00BF00BF02A8082100239C
:101030000122CDE900101946184612F090F800BFC1
:1010400099E738B505464FF4FA7009F024FA0822FA
:101050008A49012005F0CAFC04460822874902207B
:1010600005F0C4FC0446642009F015FA08228449FE
:10107000012005F0BBFC044608228149022005F04E
:10108000B5FC0446642009F006FA08227D490120D7
:1010900005F0ACFC044608227A49022005F0A6FCC3
:1010A0000446642009F0F7F908227749012005F089
:1010B0009DFC044608227449022005F097FC044672
:1010C000642009F0E8F900BF4FF480716F4806F022
:1010D0008DFA6946002010F0FBF938BD70B5044662
:1010E0000D466B480068A0F500406A4908604FF45F
:1010F00000406749086068480068A0F500406749FB
:1011000008604FF400406449086064480168614821
:101110000068FFF73DFB70BD38B504460D4660A082
:101120000068009001215F4806F044FA50B1FFF7D3
:101130005BFD01205C4908700123032219466846C3
:10114000FFF75CFC38BD30B58BB00446002500BF0E
:1011500009F026FD0AA80FF090FC0AAA0121084612
:101160000BF019FD00BF00BF00BF09F051FE05469E
:1011700000BF00BF3E480078401C3D49087000BFDA
:1011800000BF284609F048FE00BF00BF00BF0AAB01
:10119000012246A147480EF0E4FF0AA80021AFF261
:1011A00087020223CDE90032CDE902100A230A4664
:1011B00041A1464812F011FA0AA80021AFF2E30259
:1011C0000223CDE90032CDE9021001230A4640A1F5
:1011D000454812F002FA0AA8032100220592CDE93F
:1011E00006210890104680210C22404BCDE90132A7
:1011F000CDE9031005200023AFF2B9123CA1009005
:101200003F4810F011F80AA8032100220592CDE909
:1012100006210890022080210C223A4BCDE90132B0
:10122000CDE903100F200023AFF2B92236A10090C0
:101230003A480FF0F9FF0AA8032100220592CDE9F0
:101240000621089010466BE058000020180100208D
:101250005C0000201C010020600000202001002014
:1012600064000020240100206800002028010020E4
:10127000580200201C02002004010020CC000020A5
:10128000D4000020DC000020C40000200014024034
:1012900024080040F400002024040040F80000204E
:1012A0000100000000100240080100204D595F536A
:1012B000454D00005004002062617474657279200D
:1012C00073746174757320746D7231001C04002096
:1012D0004F646F6D2043616C63756C61746F722035
:1012E000746D72320000000078040020F80A0020BB
:1012F0006D6F746F7220696E6974207461736B0016
:10130000340A0020CC18002073656E736F7220734E
:10131000656E64207461736B000000000818002083
:1013200080210C22FB4BCDE90132CDE903100D20C9
:101330000023AFF2EB42F8A10090FB480FF074FFDE
:101340000AA8032100220592CDE906210890022077
:1013500080210C22F54BCDE90132CDE903100A20A2
:101360000023AFF2F152F2A10090F7480FF05CFFBA
:101370000AA8032100220592CDE906210890022047
:1013800080210C22F14BCDE9013200230092CDE9FE
:101390000310AFF22172EEA1F2480FF045FF0AA848
:1013A000032100220592CDE90621089010468021F4
:1013B0000C22ED4BCDE90132CDE9031010200023C2
:1013C000AFF67B02E9A10090EC480FF02DFF0AA8D0
:1013D000032100220592CDE90621089010468021C4
:1013E0000C22E74BCDE90132CDE903101120002397
:1013F000AFF61512E3A10090E7480FF015FF0AA918
:10140000E64812F0C8FA0AA9E54812F0C4FA00BF8B
:1014100000BF00BF09F0FCFC054600BF00BFE1486B
:101420000078401EDF49087008460078A0B9DE4801
:101430000088002809DD00BF00BF284609F0ECFC49
:1014400000BF00BF0BF090FF0DE000BF00BF2846BB
:1014500009F0E2FC00BF06E000BF00BF284609F02B
:10146000DBFC00BF00BF00BF0AA9002010F030F86D
:101470000BB030BD0EB50121080706F004FE4FF495
:10148000E06005F00DFD01208DF8080000208DF8CA
:10149000090002208DF80A0001208DF80B0002A837
:1014A00005F003FD4FF48030009000208DF804001B
:1014B00010208DF8050001208DF80600684608F020
:1014C00001FAE02008F048F9012008F04EF90EBDBD
:1014D00010B58AB00024A82008F084FF4FF4A06063
:1014E00005F0DEFC09F0CAF800F0E6F905F058F85E
:1014F00005F0E6F805F0D4FA002006231A46052187
:10150000009005F00BFAFFF735F9FFF7B3FF4FF442
:101510008070A64BA64AC1040090A64805F00CF9BD
:101520004FF47A7008F0B7FF01228021A048001F15
:1015300007F050F801219F4805F03DF94FF4807104
:101540009D4806F051F8002012F055FE09A80BF056
:10155000F9F800BF00BF00BF09F05AFC044600BF05
:1015600000BF90480078401C8E49087000BF00BF43
:10157000204609F051FC00BF00BF00BF09A80321AD
:1015800000220592CDE906210890104680210C2208
:101590008A4BCDE90132CDE9031003200023AFF2DD
:1015A000594287A1009089480FF03EFE00BF00BF5E
:1015B00000BF09F02DFC044600BF00BF7948007849
:1015C000401E7849087008460078A0B9764800881F
:1015D000002809DD00BF00BF204609F01DFC00BF48
:1015E00000BF0BF0C1FE0DE000BF00BF204609F0B8
:1015F00013FC00BF06E000BF00BF204609F00CFC52
:1016000000BF00BF00BF09A80BF065FB00200AB0B7
:1016100010BD1FB520E002A8002303AA19460090C0
:10162000184610F094F804461020034664224FF444
:101630008771CDE90004282004F07FFF21460020B7
:1016400012F08BFE02A8082100230122CDE9001030
:101650001946184611F083FDDDE70EB501240DE1B2
:1016600005F0C2FB0546002D4BD0622D20D010DCCA
:10167000222D47D006DC022D45D0102D44D0182D48
:1016800029D1E3E0302D40D0382D3FD05A2D22D142
:10169000E4E0A82D20D006DC682D38D07A2D37D094
:1016A000982D18D1CCE0B02D33D0C22D13D18FE0BE
:1016B000642104FB01F001EE100AB8EEC11AF0EE4D
:1016C000410A04FB01F001EE100AB8EEC11AB0EEB7
:1016D000410AFEF71BFFC3E06FF0630104FB01F05A
:1016E00001EE100AB8EEC11AF0EE410A04FB01F057
:1016F00001EE100AB8EEC11AB0EE410AFEF706FF7D
:10170000AEE0AEE079E08EE0A4E09DE0A4E095E0FC
:101710009EE097E0081600206F646F6D2073656E81
:1017200064207461736B0000441500208010002059
:101730007370656564207472616E73666F726D207C
:101740007461736B00000000BC0F00204413002084
:10175000756172743120616E616C797A6520746193
:10176000736B000080120020901B0020646F6F726A
:10177000206F70656E207461736B0000CC1A0020BE
:10178000541E0020426174746572792073656E6422
:10179000207461736B000000901D00201C04002069
:1017A00078040020580200201C0200201C030020A6
:1017B00004100140B864024000140240700500208B
:1017C0007374617274207461736B0000AC04002048
:1017D000642104FB01F001EE100AB8EEC11AF0EE2C
:1017E000410A494204FB01F001EE100AB8EEC11AA9
:1017F000B0EE410AFEF78AFE32E06FF0630104FBAF
:1018000001F001EE100AB8EEC11AF0EE410A6421AF
:1018100004FB01F001EE100AB8EEC11AB0EE410A65
:10182000FEF774FE1CE008221F49012005F0DEF8D7
:1018300008221D49022005F0D9F811E001240FE02B
:1018400002240DE003240BE0042409E0052407E052
:10185000062405E0072403E0082401E0092400BF72
:1018600002E00A2008F017FE02A808213223002215
:10187000CDE900101146104611F071FCF0E610B5EC
:10188000042007F0FAFF70B10CE00021074806F0D1
:10189000F4FD0021064806F0F0FD4FF48071054884
:1018A00005F0A2FEF1E710BDDC000020004400407E
:1018B00000480040001402401CB50121202006F021
:1018C00099FB4FF4C060009001208DF804000020C7
:1018D0008DF806008DF8070003208DF80500694695
:1018E000044805F005FE4FF4C061024805F07CFE97
:1018F0001CBD00000014024001B5BDF800000090BE
:10190000BDF80000FC49088008BD01B5BDF8000025
:101910000090BDF80000F849891C088008BD08B592
:10192000F548801C00880090BDF8000008BD03B594
:10193000BDF80000F0490880BDF804004FF0D84120
:10194000A1F880000CBD01B5BDF80000FFF7D4FF81
:10195000052008F076FDFFF7E2FF08BDE7480089A3
:10196000E54908807047E449891C0880704730B514
:10197000014601F01F04C1F34513CA0AE50205EB55
:1019800043151544A8B230BD00BF011EA0F10102ED
:10199000D0B2FAD1704730B504460D46D74880889A
:1019A00049F24131884205D0D448808845F210314F
:1019B000884214D1D1494889FFF79EFF2012FFF7D2
:1019C000A4FFE0B2FFF7A1FFCC498889FFF794FF9D
:1019D0002812FFF79AFFE8B2FFF797FFABE0C7487E
:1019E000808846F6040188421DD1C44880790128C8
:1019F00004D1C2480088401E001B84B2BF494889F8
:101A0000FFF77AFF2012FFF780FFE0B2FFF77DFFBC
:101A1000BA498889FFF770FF2812FFF776FFE8B20E
:101A2000FFF773FF87E0B548808841F6631188426D
:101A300047D1B2488079A8B9B0480088401E001B41
:101A400084B2AE494889FFF757FF0020FFF75DFFDA
:101A50000020FFF75AFF2012FFF757FFE0B2FFF711
:101A600054FF16E0A5494889FFF746FF2012FFF70B
:101A70004CFFE0B2FFF749FFA0490988491EC1F3B6
:101A80000F20FFF742FF9D490978491EC8B2FFF7B2
:101A90003CFF9A498889FFF72FFF2812FFF735FF8F
:101AA000E8B2FFF732FF95494988491EC1F30F207C
:101AB000FFF72BFF91498978491EC8B2FFF725FF30
:101AC00039E08E48808845F21051884220D18B49F8
:101AD0004889FFF711FF2012FFF717FF874949894F
:101AE000491C88B2FFF708FFE0B2FFF70EFF8349F9
:101AF0008889FFF701FF2812FFF707FF7F498989CF
:101B0000491C88B2FFF7F8FEE8B2FFF7FEFE12E0CC
:101B10007A488079012804D178480088401E001B4B
:101B200084B2764948892146FFF701FF73498889C5
:101B30002946FFF7FCFE30BD3EB504460D460020A9
:101B40000290019000906D480088A04203DD6B4830
:101B50004088A84201DC00203EBD29462046FFF710
:101B60001AFF6648808849F24131884211D06348A3
:101B7000808846F6040188420BD06048808845F290
:101B80001031884205D05D48808841F66311884253
:101B900003D12E20FFF7B0FE0DE05848808845F2B3
:101BA0001051884204D14FF43850FFF7A5FE02E0EF
:101BB0002220FFF7A1FE5148808849F22031884257
:101BC00002D10220FFF7E0FEFFF7A9FE02904B488A
:101BD000808841F66311884202D1BDF80800BBE756
:101BE0000220FFF7D1FEFFF79AFE0290434880885B
:101BF00049F2413188420BD04048808845F210318B
:101C0000884205D03D48808845F21051884210D165
:101C10000220FFF7B9FEFFF782FE0090BDF8080032
:101C2000C0B20190BDF804004FF6FF7101EA002038
:101C300001903248808849F22531884216D02F48D9
:101C4000808844F23551884210D02C488088091F82
:101C500088420BD0294880884BF20551884205D034
:101C6000264880884CF20551884202D1BDF8080010
:101C700072E72248808849F2413188420BD01F48E0
:101C8000808845F21031884205D01C48808845F292
:101C9000105188420DD1BDF80800C012C002BDF835
:101CA0000410891240EA4110BDF8001040EAE1201A
:101CB00052E7BDF80800FFF75AFE4DE700B50F48A0
:101CC000808849F24131884211D00C48808846F61C
:101CD000040188420BD00948808845F210318842BF
:101CE00005D00648808841F66311884208D1292032
:101CF000FFF702FE14E000007E00006C18230020B5
:101D0000FE48808845F21051884204D14FF4245097
:101D1000FFF7F2FD04E040F273110720FFF707FE22
:101D200000BD00B5F548808849F24131884211D0A4
:101D3000F248808846F6040188420BD0EF4880883C
:101D400045F21031884205D0EC48808841F6631195
:101D5000884203D12820FFF7CFFD0EE0E7488088B6
:101D600045F21051884204D14FF42050FFF7C4FDD2
:101D700003E000210720FFF7DAFD00BDF0B50546BE
:101D800000240027DD48807901280BD1DB488088BA
:101D900046F60401884205D0D848808841F6631190
:101DA000884208D1D5488079F0B9D448808841F676
:101DB0006311884218D1082D15D2DFE805F004061A
:101DC000080A0C0E101206250DE007250BE004256D
:101DD00009E0052507E0012505E0002503E00325CE
:101DE00001E0022500BF00BFC448808849F24131AC
:101DF000884217D0C148808846F60401884211D035
:101E0000BE48808845F2103188420BD0BB4880889C
:101E100045F21051884205D0B848808841F66311D8
:101E200088427DD1082D1CD2DFE805F00406090C9C
:101E30000F12151800BF14E044F0800411E044F0C4
:101E400040040EE044F0C0040BE044F0200408E03D
:101E500044F0600405E044F0A00402E044F0E00433
:101E600000BF00BFA548808845F21051884202D1CA
:101E70004FF4585700E03627A048808845F21031CB
:101E800088420DD09D48808845F21051884207D085
:101E90009A48808841F66311884201D044F00804D2
:101EA0009648808846F60401884201D144F0020435
:101EB00021463846FFF73BFD9048808841F6631184
:101EC00088421DD004F0200068B18C4800888B49FE
:101ED0004988884214DA89480688408887490880FA
:101EE000084646800CE08548008884494988884235
:101EF00006DD82480688408880490880084646807A
:101F00007E48808845F21051884254D17B494889E7
:101F1000FFF7F2FC0020FFF7F8FC7849498900E060
:101F200078E0491C88B2FFF7E7FC0020FFF7EDFCE2
:101F300072494989891C88B2FFF7DEFC6F4909881C
:101F4000491EC1F30F20FFF7E0FC6C494989C91C09
:101F500088B2FFF7D1FC69490978491EC8B2FFF77A
:101F6000D4FC66498889FFF7C7FC0020FFF7CDFC49
:101F700062498989491C88B2FFF7BEFC0020FFF73F
:101F8000C4FC5E498989891C88B2FFF7B5FC5B49AE
:101F90004988491EC1F30F20FFF7B7FC57498989CB
:101FA000C91C88B2FFF7A8FC54498978491EC8B2F9
:101FB000FFF7ABFC55E051494889FFF79DFC002035
:101FC000FFF7A3FC0020FFF7A0FC4C490988491E3D
:101FD000C1F30F20FFF799FC48490978491EC8B2A0
:101FE000FFF793FC45498889FFF786FC0020FFF73F
:101FF0008CFC0020FFF789FC40494988491EC1F349
:102000000F20FFF782FC3D498978491EC8B2FFF7CF
:102010007CFC26E0082D1CD2DFE805F004070A0D41
:102020000F12151844F0300413E044F0100410E0CF
:1020300044F020040DE000BF0BE044F0380408E059
:1020400044F0280405E044F0180402E044F00804D9
:1020500000BF00BF032744F4805421463846FFF7F1
:1020600066FCF0BD30B504460D4629462046FFF714
:1020700092FCFFF773FC224800882249088030BD9B
:1020800070B504460D4616461C48808849F2413119
:10209000884205D01948808845F21031884214D111
:1020A00016494889FFF728FC2012FFF72EFCE0B202
:1020B000FFF72BFC11498889FFF71EFC2812FFF758
:1020C00024FCE8B2FFF721FC93E00C48808845F23D
:1020D0001051884227D109494889FFF70DFC201289
:1020E000FFF713FC05494989491C88B2FFF704FC36
:1020F000E0B2FFF70AFC0149888905E018230020B7
:102100002E0100208000006CFFF7F6FB2812FFF77D
:10211000FCFBFE498989491C88B2FFF7EDFBE8B258
:10212000FFF7F3FB65E0F948808841F663118842C8
:1021300028D1F648807920B9F4480088401E001B59
:1021400084B2F2494889FFF7D7FB2012FFF7DDFB85
:10215000E0B2FFF7DAFB2012FFF7D7FBE0B2FFF7A0
:10216000D4FBEA498889FFF7C7FB2812FFF7CDFBAC
:10217000E8B2FFF7CAFB2812FFF7C7FBE8B2FFF788
:10218000C4FB36E0E148808846F6040188421DD150
:10219000DE488079012804D1DC480088401E001BFD
:1021A00084B2DA494889FFF7A7FB2012FFF7ADFB9D
:1021B000E0B2FFF7AAFBD5498889FFF79DFB2812FB
:1021C000FFF7A3FBE8B2FFF7A0FB12E0CF4880794E
:1021D000012804D1CD480088401E001B84B2CB49A1
:1021E00048892146FFF7A3FBC84988892946FFF79C
:1021F0009EFBC6480089C64908804FF0D840A0F829
:10220000806070BD70B52DED048B0446BE20FFF7D5
:1022100073FB0520FFF779FB204613F0A3FA41EC8E
:10222000190B9FEDBC0B53EC102B13F0AFFA41ECE4
:10223000180B13F053FA85B22846FFF766FB01200E
:10224000FFF763FBFF20FFF760FB0020FFF75DFB5C
:102250000020FFF75AFBBDEC048B70BD10B504469F
:10226000002C66D1A9498871F02008804FF4A07035
:1022700048800846808849F2413188420BD0A34803
:10228000808846F60401884205D0A048808845F23F
:10229000103188421AD12C209C4908812A2048817B
:1022A0002B2088810846808846F60401884205D0A4
:1022B0009648808845F21031884206D14FF4A070CC
:1022C000924908804FF4F0704880A1E08F488088E0
:1022D00045F21051884210D14FF430508B4908819B
:1022E0004FF4285048814FF42C5088814FF4F070FF
:1022F00008804FF4487048808AE08448808841F61E
:10230000631188420DD12C20804908812B204881FF
:102310002A2088814FF4F07008804FF4487048807C
:1023200076E0222079490881202048812120888177
:102330006EE00120754988714FF4A0700880F0208C
:1023400048800846808849F24131884205D06F486C
:10235000808845F21031884207D12C206B490881D2
:102360002A2048812B2088813FE06848808846F6F3
:102370000401884207D12C20644908812B20488120
:102380002A20888131E06148808845F210518842D6
:1023900010D14FF430505D4908814FF428504881E6
:1023A0004FF42C5088814FF4487008804FF4F0703F
:1023B00048801AE05548808841F6631188420DD163
:1023C0002C20524908812A2048812B2088814FF4F3
:1023D000487008804FF4F070488006E022204B4996
:1023E000088121204881202088814848808846F63D
:1023F0000401884205D04548808845F21031884262
:1024000006D14FF4F070414908804FF4A070488025
:102410000020FFF7B3FC10BD2DE9F04F86B0044655
:102420000D469046994604EB0800401E86B205EB27
:102430000900401E87B23548808849F24131884200
:1024400015D03248808845F2103188420FD02F488D
:10245000808846F60401884209D02C4880790128FA
:1024600026D12A48808841F66311884220D1274925
:102470004889FFF741FA2012FFF747FAE0B2FFF769
:1024800044FA3012FFF741FAF0B2FFF73EFA1F4963
:102490008889FFF731FA2812FFF737FAE8B2FFF719
:1024A00034FA3812FFF731FAF8B2FFF72EFAC1E02A
:1024B0001648808841F6631188423DD11348008850
:1024C000A0EB0800001B84B205EB0900401E1FFAB8
:1024D00080F90E494889FFF70FFA2012FFF715FA25
:1024E000E0B2FFF712FA04EB0801491EC1F30F2016
:1024F000FFF70BFA04EB0801491EC8B2FFF705FA13
:1025000002498889FFF7F8F9281207E0182300200C
:102510007E00006C6666666666660440FFF7F5F945
:10252000E8B2FFF7F2F94FEA2920FFF7EEF909F0D8
:10253000FF00FFF7EAF97DE0FE48808845F2105180
:10254000884244D1FB494889FFF7D6F92012FFF7AA
:10255000DCF9F8494989491C88B2FFF7CDF9E0B2A6
:10256000FFF7D3F9F3494989891C88B2FFF7C4F909
:102570003012FFF7CAF9EF494989C91C88B2FFF741
:10258000BBF9F0B2FFF7C1F9EA498889FFF7B4F95E
:102590002812FFF7BAF9E7498989491C88B2FFF781
:1025A000ABF9E8B2FFF7B1F9E2498989891C88B231
:1025B000FFF7A2F93812FFF7A8F9DE498989C91C8B
:1025C00088B2FFF799F9F8B2FFF79FF932E0D948DE
:1025D000807901280ED1AA46BB46D6480088801BC8
:1025E000401E80B20190D3480088001B401E80B27C
:1025F000009003E0A246B346019500975020059055
:102600005120049052200390532002905146059887
:10261000FFF78DF959460498FFF789F90199039856
:10262000FFF785F900990298FFF781F929462046BE
:10263000FFF7B1F906B0BDE8F08F70B5044600268B
:10264000BC48058840884543BA48808846F604015E
:10265000884216D1B7488079012812D10020B549A7
:1026600088712A2048812B20888100210846FFF7A5
:1026700092F90120AF4988712B2048812A20888156
:1026800003E000210846FFF786F9FFF767F9002607
:1026900002E0A9480480761CAE42FAD370BD00B5B2
:1026A000A1B00020209001217A2005F0A3FC012197
:1026B000084605F0D7FC4FF400401E9001208DF82D
:1026C0007C0000208DF87E0002208DF87D00012026
:1026D0008DF87F001EA9994804F00AFF4CF2337070
:1026E0001E9002208DF87C0000208DF87E000320D3
:1026F0008DF87D0001208DF87F001EA9904804F020
:10270000F7FE4FF680701E9002208DF87C000020AE
:102710008DF87E0003208DF87D0001208DF87F006C
:102720001EA9884804F0E4FE4FF480501E90022059
:102730008DF87C0000208DF87E0003208DF87D0050
:1027400001208DF87F001EA97F4804F0D1FE4FF4D0
:1027500080501E9002208DF87C0000208DF87E00B5
:1027600003208DF87D0001208DF87F001EA9774899
:1027700004F0BEFE0C220021714804F044FF0C223C
:1027800001216F4804F03FFF0C2204216C4804F043
:102790003AFF0C2205216A4804F035FF0C2208217B
:1027A000674804F030FF0C220921654804F02BFF34
:1027B0000C220A21624804F026FF0C220E216048F8
:1027C00004F021FF0C220F215D4804F01CFF0C22B5
:1027D00007215C4804F017FF0C220821594804F037
:1027E00012FF0C220921574804F00DFF0C220A2188
:1027F000544804F008FF0C220B21524804F003FF58
:102800000C2211464F4804F0FEFE0C220D214D48CB
:1028100004F0F9FE0C220E214A4804F0F4FE0C22CA
:102820000F21484804F0EFFE0C221146464804F000
:10283000EAFE0C221146454804F0E5FE0F20089000
:10284000002009903C200A9000200B900C900D90E5
:102850000E90092001900020029008200390002093
:10286000049005900690079006200F90002010908D
:102870001190102012900020139015901490169033
:1028800017904FF480501890002019904FF480401A
:102890001A9000201B9008A81C9001A81D900FA85A
:1028A00004F005FF0121062004F08CFF322007F020
:1028B000F2FD01210020FFF73AF8322007F0EBFD8E
:1028C0000020FFF740F81B49888008468088FF28D1
:1028D0000ADB084680884FF6FF71884204D015480D
:1028E0008088B0F5134F7DD1D320FFF705F8FFF7AF
:1028F00016F810498880FFF712F80E498880FFF714
:102900000EF80C498880084680884FF6FF7101EA6E
:10291000002008498880FFF702F8064989880843A3
:10292000044988800846808849F24131884259D05C
:10293000BF200DE0182300208000006C000402403E
:10294000000C024000100240001402400018024037
:10295000FEF7D2FFFEF7E3FFFE498880FEF7DFFFB8
:10296000FC498880FEF7DBFFFA498880FEF7D7FF35
:10297000F8498880084680884FF6FF7101EA0020F8
:10298000F4498880FEF7CBFFF24989880843F14972
:1029900088800846808846F6040188427AD0D42090
:1029A000FEF7AAFFFEF7BBFFEA498880FEF7B7FFF4
:1029B000E8498880FEF7B3FFE649888008468088AA
:1029C0004FF6FF7101EA0020E2498880FEF7A7FF79
:1029D000E04989880843DF4988800846808845F2B5
:1029E000103100E056E0884254D04FF45A40FEF7D0
:1029F00083FFFEF794FFD74988804FF45B40FEF7D2
:102A00007BFFFEF78CFFD3498880084680884FF60D
:102A1000FF7101EA0020CF4988804FF45C40FEF747
:102A20006BFFFEF77CFFCB4989880843C949888042
:102A300008468088B0F5004F02D145F210508880DA
:102A4000C448808845F21051884223D0A120FEF767
:102A500053FFFEF764FFBF498880FEF760FFBD4962
:102A60008880084680884FF6FF7101EA0020B94946
:102A70008880FEF754FFB74989880843B5498880A4
:102A80000846808845F26171884203D141F663109F
:102A9000B0498880AF48808849F24131884211D0DE
:102AA000AC48808845F2103188420BD0A948808814
:102AB00045F21051884205D0A648808841F663113E
:102AC00088421DD1A448006820F00F004FF020413B
:102AD000C1F81C010846D0F81C0120F47060C1F850
:102AE0001C010846D0F81C0140F00300C1F81C018D
:102AF0000846D0F81C0140F40070C1F81C0128E021
:102B00009448808846F60401884205D09148808820
:102B10004CF2055188421CD18F48006820F00F000C
:102B20004FF02041C1F81C010846D0F81C0120F4E8
:102B30007060C1F81C010846D0F81C0140F00A0082
:102B4000C1F81C010846D0F81C0140F44060C1F8EF
:102B50001C018048818881A011F0C4FC7D488088D8
:102B600049F2413188427CD1CF20FEF7C5FE0020DA
:102B7000FEF7CBFE2098401C2090C120FEF7C5FE3A
:102B80003020FEF7C2FEED20FEF7B6FE6420FEF711
:102B9000BCFE0320FEF7B9FE1220FEF7B6FE812030
:102BA000FEF7B3FEE820FEF7A7FE8520FEF7ADFE98
:102BB0001020FEF7AAFE7A20FEF7A7FECB20FEF734
:102BC0009BFE3920FEF7A1FE2C20FEF79EFE002082
:102BD000FEF79BFE3420FEF798FE0220FEF795FEDE
:102BE000F720FEF789FE2020FEF78FFEEA20FEF791
:102BF00083FE0020FEF789FE0020FEF786FEC0203F
:102C0000FEF77AFE1B20FEF780FEC120FEF774FE61
:102C10000120FEF77AFEC520FEF76EFE3020FEF79B
:102C200074FE3020FEF771FEC720FEF765FEB72068
:102C3000FEF76BFE3620FEF75FFE4820FEF765FECE
:102C40003A20FEF759FE5520FEF75FFEB120FEF751
:102C500053FE0020FEF759FE1A20FEF756FEB6205E
:102C600000E0A7E0FEF748FE0A20FEF74EFEA22095
:102C7000FEF74BFEF220FEF73FFE0020FEF745FE7A
:102C80002620FEF739FE0120FEF73FFEE020FEF78A
:102C900033FE0F20FEF739FE2A20FEF736FE2820ED
:102CA000FEF733FE0820FEF730FE0E20FEF72DFE65
:102CB0000820FEF72AFE5420FEF727FEA920FEF783
:102CC00024FE4320FEF721FE0A20FEF71EFE0F2001
:102CD000FEF71BFE0020FEF718FE0020FEF715FE93
:102CE0000020FEF712FE0020FEF70FFEE120FEF7A7
:102CF00003FE0020FEF709FE1520FEF706FE172052
:102D0000FEF703FE0720FEF700FE1120FEF7FDFD93
:102D10000620FEF7FAFD2B20FEF7F7FD5620FEF702
:102D2000F4FD3C20FEF7F1FD0520FEF7EEFD10203E
:102D3000FEF7EBFD0F20FEF7E8FD3F20FEF7E5FD77
:102D40003F20FEF7E2FD0F20FEF7DFFD2B20FEF710
:102D5000D3FD09E0182300201C0100A04C434420AF
:102D600049443A25780D0A000020FEF7CEFD0020E8
:102D7000FEF7CBFD0120FEF7C8FD3F20FEF7C5FDA5
:102D80002A20FEF7B9FD0020FEF7BFFD0020FEF768
:102D9000BCFD0020FEF7B9FDEF20FEF7B6FD1120C7
:102DA000FEF7AAFD782007F076FB2920FEF7A4FDA8
:102DB00003F01DB9FE48808846F6040188427CD1A4
:102DC0001120FEF799FD142007F065FBD020FEF7D7
:102DD00093FD0720FEF799FD4220FEF796FD1D208A
:102DE000FEF793FDD120FEF787FD0020FEF78DFD55
:102DF0001A20FEF78AFD0920FEF787FDD220FEF794
:102E00007BFD0120FEF781FD2220FEF77EFDC02024
:102E1000FEF772FD1020FEF778FD3B20FEF775FDF2
:102E20000020FEF772FD0220FEF76FFD1120FEF775
:102E30006CFDC520FEF760FD0320FEF766FDC8208F
:102E4000FEF75AFD0020FEF760FD2520FEF75DFD30
:102E50002120FEF75AFD0520FEF757FD0020FEF762
:102E600054FD0A20FEF751FD6520FEF74EFD25209A
:102E7000FEF74BFD7720FEF748FD5020FEF745FD9D
:102E80000F20FEF742FD0020FEF73FFDF820FEF781
:102E900033FD0120FEF739FDFE20FEF72DFD002059
:102EA000FEF733FD0220FEF730FD2020FEF724FD63
:102EB0003620FEF721FD082000E02CE0FEF725FD7E
:102EC0003A20FEF719FD5520FEF71FFD2B20FEF7D7
:102ED00013FD0020FEF719FD0020FEF716FD01206E
:102EE000FEF713FD3F20FEF710FD2A20FEF704FD3C
:102EF0000020FEF70AFD0020FEF707FD0120FEF787
:102F000004FDDF20FEF701FD782007F0C4FA292038
:102F1000FEF7F2FC4CE7A648808845F21031884263
:102F200040F07C87ED20FEF7E7FC0120FEF7EDFC8A
:102F3000FE20FEF7EAFCEE20FEF7DEFCDE20FEF7C8
:102F4000E4FC2120FEF7E1FCF120FEF7D5FC012096
:102F5000FEF7DBFCDF20FEF7CFFC1020FEF7D5FCF0
:102F6000C420FEF7C9FC8F20FEF7CFFCC620FEF779
:102F7000C3FC0020FEF7C9FCE220FEF7C6FCE220FD
:102F8000FEF7C3FCE220FEF7C0FCBF20FEF7B4FC56
:102F9000AA20FEF7BAFCB020FEF7AEFC0D20FEF72B
:102FA000B4FC0020FEF7B1FC0D20FEF7AEFC0020C3
:102FB000FEF7ABFC1120FEF7A8FC0020FEF7A5FCF5
:102FC0001920FEF7A2FC0020FEF79FFC2120FEF74F
:102FD0009CFC0020FEF799FC2D20FEF796FC0020BB
:102FE000FEF793FC3D20FEF790FC0020FEF78DFCE1
:102FF0005D20FEF78AFC0020FEF787FC5D20FEF7CF
:1030000084FC0020FEF781FCB120FEF775FC8020D7
:10301000FEF77BFC0020FEF778FC8B20FEF775FCAA
:103020000020FEF772FC9620FEF76FFC0020FEF7F2
:103030006CFCB220FEF760FC0020FEF766FC00206E
:10304000FEF763FC0220FEF760FC0020FEF75DFC4B
:103050000320FEF75AFC0020FEF757FCB320FEF7D2
:103060004BFC0020FEF751FC0020FEF74EFC002038
:10307000FEF74BFC0020FEF748FC0020FEF745FC65
:103080000020FEF742FC0020FEF73FFC0020FEF788
:103090003CFC0020FEF739FC0020FEF736FC002047
:1030A000FEF733FC0020FEF730FC0020FEF72DFC7D
:1030B0000020FEF72AFC0020FEF727FC0020FEF788
:1030C00024FC0020FEF721FC0020FEF71EFC00205F
:1030D000FEF71BFC0020FEF718FC0020FEF715FC95
:1030E0000020FEF712FC0020FEF70FFC0020FEF788
:1030F0000CFCB420FEF700FC8B20FEF706FC002041
:10310000FEF703FC9620FEF700FC0020FEF7FDFB17
:10311000A120FEF7FAFB0020FEF7F7FBB520FEF733
:10312000EBFB0220FEF7F1FB0020FEF7EEFB032095
:10313000FEF7EBFB0020FEF7E8FB0420FEF7E5FBC3
:103140000020FEF7E2FBB620FEF7D6FB0020FEF7DC
:10315000DCFB0020FEF7D9FBB720FEF7CDFB0020FB
:10316000FEF7D3FB0020FEF7D0FB3F20FEF7CDFBA0
:103170000020FEF7CAFB5E20FEF7C7FB0020FEF72B
:10318000C4FB6420FEF7C1FB0020FEF7BEFB8C20D1
:10319000FEF7BBFB0020FEF7B8FBAC20FEF7B5FB4B
:1031A0000020FEF7B2FBDC20FEF7AFFB002001E0C1
:1031B00018230020FEF7A9FB7020FEF7A6FB0020D5
:1031C000FEF7A3FB9020FEF7A0FB0020FEF79DFB7F
:1031D000EB20FEF79AFB0020FEF797FBDC20FEF7C2
:1031E00094FB0020FEF791FBB820FEF785FB002042
:1031F000FEF78BFB0020FEF788FB0020FEF785FB27
:103200000020FEF782FB0020FEF77FFB0020FEF788
:103210007CFB0020FEF779FB0020FEF776FBBA204E
:10322000FEF76AFB2420FEF770FB0020FEF76DFB23
:103230000020FEF76AFB0020FEF767FBC120FEF7C7
:103240005BFB2020FEF761FB0020FEF75EFB5420B5
:10325000FEF75BFB0020FEF758FBFF20FEF755FB57
:103260000020FEF752FBC220FEF746FB0A20FEF7C5
:103270004CFB0020FEF749FB0420FEF746FB002034
:10328000FEF743FBC320FEF737FB3C20FEF73DFB78
:103290000020FEF73AFB3A20FEF737FB0020FEF74E
:1032A00034FB3920FEF731FB0020FEF72EFB3720E0
:1032B000FEF72BFB0020FEF728FB3C20FEF725FB4A
:1032C0000020FEF722FB3620FEF71FFB0020FEF752
:1032D0001CFB3220FEF719FB0020FEF716FB2F2007
:1032E000FEF713FB0020FEF710FB2C20FEF70DFB72
:1032F0000020FEF70AFB2920FEF707FB0020FEF75F
:1033000004FB2620FEF701FB0020FEF7FEFA242036
:10331000FEF7FBFA0020FEF7F8FA2420FEF7F5FA94
:103320000020FEF7F2FA2320FEF7EFFA0020FEF766
:10333000ECFA3C20FEF7E9FA0020FEF7E6FA362028
:10334000FEF7E3FA0020FEF7E0FA3220FEF7DDFA9E
:103350000020FEF7DAFA2F20FEF7D7FA0020FEF75A
:10336000D4FA2C20FEF7D1FA0020FEF7CEFA29205D
:10337000FEF7CBFA0020FEF7C8FA2620FEF7C5FAC2
:103380000020FEF7C2FA2420FEF7BFFA0020FEF765
:10339000BCFA2420FEF7B9FA0020FEF7B6FA232083
:1033A000FEF7B3FA0020FEF7B0FAC420FEF7A4FA45
:1033B0006220FEF7AAFA0020FEF7A7FA0520FEF722
:1033C000A4FA0020FEF7A1FA8420FEF79EFA00205E
:1033D000FEF79BFAF020FEF798FA0020FEF795FA28
:1033E0001820FEF792FA0020FEF78FFAA420FEF7CD
:1033F0008CFA0020FEF789FA1820FEF786FA0020E2
:10340000FEF783FA5020FEF780FA0020FEF77DFADF
:103410000C20FEF77AFA0020FEF777FA1720FEF765
:1034200074FA0020FEF771FA9520FEF76EFA00207C
:10343000FEF76BFAF320FEF768FA0020FEF765FA54
:10344000E620FEF762FA0020FEF75FFAC520FEF7DD
:1034500053FA3220FEF759FA0020FEF756FA4420BC
:10346000FEF753FA0020FEF750FA6520FEF74DFAFA
:103470000020FEF74AFA7620FEF747FA0020FEF712
:1034800044FA8820FEF741FA0020FEF73EFAC620F3
:10349000FEF732FA2020FEF738FA0020FEF735FA60
:1034A0001720FEF732FA0020FEF72FFA0120FEF770
:1034B0002CFA0020FEF729FAC720FEF71DFA00209B
:1034C000FEF723FA0020FEF720FA0020FEF71DFA8F
:1034D0000020FEF71AFAC820FEF70EFA0020FEF7C9
:1034E00014FA0020FEF711FA0020FEF70EFA002071
:1034F000FEF70BFAC920FEF7FFF90020FEF705FAE8
:103500000020FEF702FA0020FEF7FFF90020FEF788
:10351000FCF90020FEF7F9F90020FEF7F6F900208B
:10352000FEF7F3F90020FEF7F0F90020FEF7EDF9C1
:103530000020FEF7EAF90020FEF7E7F90020FEF789
:10354000E4F90020FEF7E1F90020FEF7DEF90020A3
:10355000FEF7DBF90020FEF7D8F9E020FEF7CCF902
:103560001620FEF7D2F90020FEF7CFF91C20FEF757
:10357000CCF90020FEF7C9F92120FEF7C6F900209A
:10358000FEF7C3F93620FEF7C0F90020FEF7BDF9BB
:103590004620FEF7BAF90020FEF7B7F95220FEF7F1
:1035A000B4F90020FEF7B1F96420FEF7AEF900206F
:1035B000FEF7ABF97A20FEF7A8F90020FEF7A5F98F
:1035C0008B20FEF7A2F90020FEF79FF99920FEF765
:1035D0009CF90020FEF799F9A820FEF796F9002043
:1035E000FEF793F9B920FEF790F90020FEF78DF968
:1035F000C420FEF78AF90020FEF787F9CA20FEF7FB
:1036000084F90020FEF781F9D220FEF77EF9002030
:10361000FEF77BF9D920FEF778F90020FEF775F95F
:10362000E020FEF772F90020FEF76FF9F320FEF7B5
:103630006CF90020FEF769F9E120FEF75DF916202C
:10364000FEF763F90020FEF760F91C20FEF75DF934
:103650000020FEF75AF92220FEF757F90020FEF766
:1036600054F93620FEF751F90020FEF74EF94520B7
:10367000FEF74BF90020FEF748F95220FEF745F916
:103680000020FEF742F96420FEF73FF90020FEF724
:103690003CF97A20FEF739F90020FEF736F98B2045
:1036A000FEF733F90020FEF730F99920FEF72DF9E7
:1036B0000020FEF72AF9A820FEF727F90020FEF7E0
:1036C00024F9B920FEF721F90020FEF71EF9C420E5
:1036D000FEF71BF90020FEF718F9CA20FEF715F9CE
:1036E0000020FEF712F9D220FEF70FF90020FEF7B6
:1036F0000CF9D820FEF709F90020FEF706F9E020C2
:10370000FEF703F90020FEF700F9F320FEF7FDF8BD
:103710000020FEF7FAF8E220FEF7EEF80520FEF7AB
:10372000F4F80020FEF7F1F80B20FEF7EEF8002089
:10373000FEF7EBF81B20FEF7E8F80020FEF7E5F8AF
:103740003420FEF7E2F80020FEF7DFF84420FEF711
:10375000DCF80020FEF7D9F84F20FEF7D6F800205D
:10376000FEF7D3F86120FEF7D0F80020FEF7CDF881
:103770007920FEF7CAF80020FEF7C7F88820FEF788
:10378000C4F80020FEF7C1F89720FEF7BEF800202D
:10379000FEF7BBF8A620FEF7B8F80020FEF7B5F854
:1037A000B720FEF7B2F80020FEF7AFF8C220FEF710
:1037B000ACF80020FEF7A9F8C720FEF7A6F8002015
:1037C000FEF7A3F8D120FEF7A0F80020FEF79DF841
:1037D000D620FEF79AF80020FEF797F8DD20FEF7D6
:1037E00094F80020FEF791F8F320FEF78EF8002001
:1037F000FEF78BF8E320FEF77FF80520FEF785F84B
:103800000020FEF782F80A20FEF77FF80020FEF77E
:103810007CF81C20FEF779F80020FEF776F83320BC
:10382000FEF773F80020FEF770F84420FEF76DF8FD
:103830000020FEF76AF85020FEF767F80020FEF738
:1038400064F86220FEF761F80020FEF75EF8782049
:10385000FEF75BF80020FEF758F88820FEF755F8D1
:103860000020FEF752F89720FEF74FF80020FEF7F1
:103870004CF8A620FEF749F80020FEF746F8B720DE
:10388000FEF743F80020FEF740F8C220FEF73DF8AF
:103890000020FEF73AF8C720FEF737F80020FEF7C1
:1038A00034F8D120FEF731F80020FEF72EF8D520AD
:1038B000FEF72BF80020FEF728F8DD20FEF725F8AC
:1038C0000020FEF722F8F320FEF71FF80020FEF795
:1038D0001CF8E420FEF710F80120FEF716F800208F
:1038E000FEF713F80120FEF710F80020FEF70DF8A0
:1038F0000220FEF70AF80020FEF707F82A20FEF75C
:1039000004F80020FEF701F83C20FDF7FEFF002040
:10391000FDF7FBFF4B20FDF7F8FF0020FDF7F5FF5B
:103920005D20FDF7F2FF0020FDF7EFFF7420FDF7AB
:10393000ECFF0020FDF7E9FF8420FDF7E6FF002003
:10394000FDF7E3FF9320FDF7E0FF0020FDF7DDFF2B
:10395000A220FDF7DAFF0020FDF7D7FFB320FDF727
:10396000D4FF0020FDF7D1FFBE20FDF7CEFF0020E1
:10397000FDF7CBFFC420FDF7C8FF0020FDF7C5FF12
:10398000CD20FDF7C2FF0020FDF7BFFFD320FDF7DC
:10399000BCFF0020FDF7B9FFDD20FDF7B6FF0020DA
:1039A000FDF7B3FFF320FDF7B0FF0020FDF7ADFFFB
:1039B000E520FDF7A1FF0020FDF7A7FF0020FDF7A0
:1039C000A4FF0020FDF7A1FF0020FDF79EFF0220CD
:1039D000FDF79BFF0020FDF798FF2920FDF795FFDD
:1039E0000020FDF792FF3C20FDF78FFF0020FDF740
:1039F0008CFF4B20FDF789FF0020FDF786FF5D203F
:103A0000FDF783FF0020FDF780FF7420FDF77DFFA9
:103A10000020FDF77AFF8420FDF777FF0020FDF7F7
:103A200074FF9320FDF771FF0020FDF76EFFA220C9
:103A3000FDF76BFF0020FDF768FFB320FDF765FF82
:103A40000020FDF762FFBE20FDF75FFF0020FDF7BD
:103A50005CFFC420FDF759FF0020FDF756FFCD2085
:103A6000FDF753FF0020FDF750FFD320FDF74DFF7A
:103A70000020FDF74AFFDC20FDF747FF0020FDF79F
:103A800044FFF320FDF741FF0020FDF73EFFE62055
:103A9000FDF732FF1120FDF738FF0020FDF735FF5D
:103AA0003420FDF732FF0020FDF72FFF5620FDF7F1
:103AB0002CFF0020FDF729FF7620FDF726FF0020D0
:103AC000FDF723FF7720FDF720FF0020FDF71DFF06
:103AD0006620FDF71AFF0020FDF717FF8820FDF78D
:103AE00014FF0020FDF711FF9920FDF70EFF0020C5
:103AF000FDF70BFFBB20FDF708FF0020FDF705FFDA
:103B00009920FDF702FF0020FDF7FFFE6620FDF77C
:103B1000FCFE0020FDF7F9FE5520FDF7F6FE002023
:103B2000FDF7F3FE5520FDF7F0FE0020FDF7EDFE5A
:103B30004520FDF7EAFE0020FDF7E7FE4320FDF7F4
:103B4000E4FE0020FDF7E1FE4420FDF7DEFE00204C
:103B5000FDF7DBFEE720FDF7CFFE3220FDF7D5FEB7
:103B60000020FDF7D2FE5520FDF7CFFE0020FDF727
:103B7000CCFE7620FDF7C9FE0020FDF7C6FE6620CC
:103B8000FDF7C3FE0020FDF7C0FE6720FDF7BDFE78
:103B90000020FDF7BAFE6720FDF7B7FE0020FDF715
:103BA000B4FE8720FDF7B1FE0020FDF7AEFE9920A0
:103BB000FDF7ABFE0020FDF7A8FEBB20FDF7A5FE3C
:103BC0000020FDF7A2FE9920FDF79FFE0020FDF7E3
:103BD0009CFE7720FDF799FE0020FDF796FE44201D
:103BE000FDF793FE0020FDF790FE5620FDF78DFEB9
:103BF0000020FDF78AFE2320FDF787FE0020FDF759
:103C000084FE3320FDF781FE0020FDF77EFE452077
:103C1000FDF77BFE0020FDF778FEE820FDF76CFE47
:103C20000020FDF772FE0020FDF76FFE9920FDF7E2
:103C30006CFE0020FDF769FE8720FDF766FE002080
:103C4000FDF763FE8820FDF760FE0020FDF75DFEB6
:103C50007720FDF75AFE0020FDF757FE6620FDF79E
:103C600054FE0020FDF751FE8820FDF74EFE002097
:103C7000FDF74BFEAA20FDF748FE0020FDF745FEAC
:103C8000BB20FDF742FE0020FDF73FFE9920FDF727
:103C90003CFE0020FDF739FE6620FDF736FE0020D1
:103CA000FDF733FE5520FDF730FE0020FDF72DFE19
:103CB0005520FDF72AFE0020FDF727FE4420FDF7E2
:103CC00024FE0020FDF721FE4420FDF71EFE00200B
:103CD000FDF71BFE5520FDF718FE0020FDF715FE31
:103CE000E920FDF709FEAA20FDF70FFE0020FDF7F1
:103CF0000CFE0020FDF709FE0020FDF706FE002067
:103D0000FDF7FAFDAA20FDF700FECF20FDF7F4FD38
:103D10000020FDF7FAFD0020FDF7F7FD0020FDF77C
:103D2000F4FD0020FDF7F1FD0020FDF7EEFD002081
:103D3000FDF7EBFD0020FDF7E8FD0020FDF7E5FDB8
:103D40000020FDF7E2FD0020FDF7DFFD0020FDF77C
:103D5000DCFD0020FDF7D9FD0020FDF7D6FD002099
:103D6000FDF7D3FD0020FDF7D0FD0020FDF7CDFDD0
:103D70000020FDF7CAFDF020FDF7BEFD0020FDF795
:103D8000C4FD5020FDF7C1FD0020FDF7BEFD002061
:103D9000FDF7BBFD0020FDF7B8FDF320FDF7ACFDFE
:103DA0000020FDF7B2FDF920FDF7A6FD0620FDF786
:103DB000ACFD1020FDF7A9FD2920FDF7A6FD002090
:103DC000FDF7A3FD3A20FDF797FD5520FDF79DFD7A
:103DD0001120FDF791FD642006F05DFB2920FDF721
:103DE0008BFD3520FDF788FD0020FDF78EFD51206D
:103DF000FDF782FDFF20FDF788FD5320FDF77CFDD8
:103E00002C20FDF782FD5520FDF776FD8220FDF781
:103E10007CFD2C20FDF770FD02F0E9B8FE4880889B
:103E200045F2105188427DD155214FF47040FDF785
:103E30007EFDAA214FF20100FDF779FD52214FF2DC
:103E40000200FDF774FD08214FF20300FDF76FFD3E
:103E500001214FF20400FDF76AFD0D214FF43040BF
:103E6000FDF765FD0D214BF20100FDF760FD0D2111
:103E70004BF20200FDF75BFD34214FF43640FDF7B5
:103E800056FD34214BF20160FDF751FD34214BF218
:103E90000260FDF74CFD0D214FF43140FDF747FD69
:103EA0000D214BF20110FDF742FD0D214BF20210E6
:103EB000FDF73DFD34214FF43740FDF738FD342147
:103EC0004BF20170FDF733FD34214BF20270FDF728
:103ED0002EFD00214FF43240FDF729FD00214BF269
:103EE0000120FDF724FD00214BF20220FDF71FFD0C
:103EF00024214FF43840FDF71AFD24214BF6010030
:103F0000FDF715FD24214BF60200FDF710FD012100
:103F10004FF43F40FDF70BFD0F214FF43340FDF709
:103F200006FD00E0FDE30F214BF20130FDF7FFFC41
:103F30000F214BF20230FDF7FAFC34214FF43940E7
:103F4000FDF7F5FC34214BF60110FDF7F0FC3421B0
:103F50004BF60210FDF7EBFC08214FF43540FDF75E
:103F6000E6FC08214BF20150FDF7E1FC08214BF281
:103F70000250FDF7DCFC03214FF44240FDF7D7FC73
:103F800024214FF43A40FDF7D2FC24214BF60120C6
:103F9000FDF7CDFC24214BF60220FDF7C8FC0021E3
:103FA0004FF43C40FDF7C3FC78214BF60140FDF790
:103FB000BEFC00214BF60240FDF7B9FC00214FF496
:103FC0003D40FDF7B4FC78214BF60150FDF7AFFC06
:103FD00000214BF60250FDF7AAFC00214FF43E40B1
:103FE000FDF7A5FC64214BF60160FDF7A0FC002164
:103FF0004FF45140FDF79BFC33214DF20110FDF7CA
:1040000096FC00214DF20210FDF791FC34214DF297
:104010000310FDF78CFC00214DF20410FDF787FC26
:104020003A214DF20510FDF782FC00214DF20610F9
:10403000FDF77DFC4A214DF20710FDF778FC0021C9
:104040004DF20810FDF773FC5C214DF20910FDF7ED
:104050006EFC00214DF20A10FDF769FC81214DF242
:104060000B10FDF764FC00214DF20C10FDF75FFC16
:10407000A6214DF20D10FDF75AFC00214DF20E1055
:10408000FDF755FCE5214DF20F10FDF750FC012125
:104090004DF21010FDF74BFC13214DF21110FDF7FE
:1040A00046FC01214DF21210FDF741FC54214DF266
:1040B0001310FDF73CFC01214DF21410FDF737FC05
:1040C00082214DF21510FDF732FC01214DF2161040
:1040D000FDF72DFCCA214DF21710FDF728FC022137
:1040E0004DF21810FDF723FC00214DF21910FDF7D9
:1040F0001EFC02214DF21A10FDF719FC01214DF2B0
:104100001B10FDF714FC02214DF21C10FDF70FFCF3
:1041100034214DF21D10FDF70AFC02214DF21E1054
:10412000FDF705FC67214DF21F10FDF700FC022191
:104130004DF22010FDF7FBFB84214DF22110FDF71D
:10414000F6FB02214DF22210FDF7F1FBA4214DF206
:104150002310FDF7ECFB02214DF22410FDF7E7FBE5
:10416000B7214DF22510FDF7E2FB02214DF226109A
:10417000FDF7DDFBCF214DF22710FDF7D8FB022123
:104180004DF22810FDF7D3FBDE214DF22910FDF78B
:10419000CEFB02214DF22A10FDF7C9FBF2214DF2B0
:1041A0002B10FDF7C4FB02214DF22C10FDF7BFFBD5
:1041B000FE214DF22D10FDF7BAFB03214DF22E101A
:1041C000FDF7B5FB10214DF22F10FDF7B0FB0321D9
:1041D0004DF23010FDF7ABFB33214DF23110FDF7FE
:1041E000A6FB03214DF23210FDF7A1FB6D214DF22C
:1041F0003310FDF79CFB00214FF45240FDF797FB75
:1042000033214DF20120FDF792FB00214DF20220F7
:10421000FDF78DFB342101E0182300204DF203202F
:10422000FDF785FB00214DF20420FDF780FB3A21CC
:104230004DF20520FDF77BFB00214DF20620FDF736
:1042400076FB4A214DF20720FDF771FB00214DF26C
:104250000820FDF76CFB5C214DF20920FDF767FBA0
:1042600000214DF20A20FDF762FB81214DF20B2067
:10427000FDF75DFB00214DF20C20FDF758FBA62158
:104280004DF20D20FDF753FB00214DF20E20FDF7FE
:104290004EFBE5214DF20F20FDF749FB01214DF2C8
:1042A0001020FDF744FB13214DF21120FDF73FFBD9
:1042B00001214DF21220FDF73AFB54214DF213205B
:1042C000FDF735FB01214DF21420FDF730FB822173
:1042D0004DF21520FDF72BFB01214DF21620FDF7C5
:1042E00026FBCA214DF21720FDF721FB02214DF2DA
:1042F0001820FDF71CFB00214DF21920FDF717FBDC
:1043000002214DF21A20FDF712FB01214DF21B2074
:10431000FDF70DFB02214DF21C20FDF708FB3421B7
:104320004DF21D20FDF703FB02214DF21E20FDF78B
:10433000FEFA67214DF21F20FDF7F9FA02214DF236
:104340002020FDF7F4FA84214DF22120FDF7EFFA49
:1043500002214DF22220FDF7EAFAA4214DF223209A
:10436000FDF7E5FA02214DF22420FDF7E0FAB7212E
:104370004DF22520FDF7DBFA02214DF22620FDF754
:10438000D6FACF214DF22720FDF7D1FA02214DF2C6
:104390002820FDF7CCFADE214DF22920FDF7C7FADF
:1043A00002214DF22A20FDF7C2FAF2214DF22B2014
:1043B000FDF7BDFA02214DF22C20FDF7B8FAFE21DF
:1043C0004DF22D20FDF7B3FA03214DF22E20FDF71B
:1043D000AEFA10214DF22F20FDF7A9FA03214DF27C
:1043E0003020FDF7A4FA33214DF23120FDF79FFA7A
:1043F00003214DF23220FDF79AFA6D214DF2332060
:10440000FDF795FA00214FF45340FDF790FA332160
:104410004DF20130FDF78BFA00214DF20230FDF72D
:1044200086FA34214DF20330FDF781FA00214DF276
:104430000430FDF77CFA3A214DF20530FDF777FAAA
:1044400000214DF20630FDF772FA4A214DF2073095
:10445000FDF76DFA00214DF20830FDF768FA5C2196
:104460004DF20930FDF763FA00214DF20A30FDF7F5
:104470005EFA81214DF20B30FDF759FA00214DF221
:104480000C30FDF754FAA6214DF20D30FDF74FFA2E
:1044900000214DF20E30FDF74AFAE5214DF20F30C2
:1044A000FDF745FA01214DF21030FDF740FA1321D6
:1044B0004DF21130FDF73BFA01214DF21230FDF7BC
:1044C00036FA54214DF21330FDF731FA01214DF245
:1044D0001430FDF72CFA82214DF21530FDF727FA42
:1044E00001214DF21630FDF722FACA214DF21730A4
:1044F000FDF71DFA02214DF21830FDF718FA0021E0
:104500004DF21930FDF713FA02214DF21A30FDF782
:104510000EFA01214DF21B30FDF709FA02214DF28E
:104520001C30FDF704FA34214DF21D30FDF7FFF980
:1045300002214DF21E30FDF7FAF967214DF21F30CE
:10454000FDF7F5F902214DF22030FDF7F0F9842155
:104550004DF22130FDF7EBF902214DF22230FDF74B
:10456000E6F9A4214DF22330FDF7E1F902214DF2E5
:104570002430FDF7DCF9B7214DF22530FDF7D7F9EE
:1045800002214DF22630FDF7D2F9CF214DF227302E
:10459000FDF7CDF902214DF22830FDF7C8F9DE21F3
:1045A0004DF22930FDF7C3F902214DF22A30FDF713
:1045B000BEF9F2214DF22B30FDF7B9F902214DF28F
:1045C0002C30FDF7B4F9FE214DF22D30FDF7AFF997
:1045D00003214DF22E30FDF7AAF910214DF22F30B4
:1045E000FDF7A5F903214DF23030FDF7A0F9332195
:1045F0004DF23130FDF79BF903214DF23230FDF7DA
:1046000096F96D214DF23330FDF791F900214FF409
:104610005440FDF78CF933214DF20140FDF787F945
:1046200000214DF20240FDF782F934214DF20340A2
:10463000FDF77DF900214DF20440FDF778F93A21AC
:104640004DF20540FDF773F900214DF20640FDF7EC
:104650006EF94A214DF20740FDF769F900214DF24C
:104660000840FDF764F95C214DF20940FDF75FF960
:1046700000214DF20A40FDF75AF981214DF20B401D
:10468000FDF755F900214DF20C40FDF750F9A62138
:104690004DF20D40FDF74BF900214DF20E40FDF7B4
:1046A00046F9E5214DF20F40FDF741F901214DF2A8
:1046B0001040FDF73CF913214DF21140FDF737F999
:1046C00001214DF21240FDF732F954214DF2134011
:1046D000FDF72DF901214DF21440FDF728F9822153
:1046E0004DF21540FDF723F901214DF21640FDF77B
:1046F0001EF9CA214DF21740FDF719F902214DF2BA
:104700001840FDF714F900214DF21940FDF70FF99B
:1047100002214DF21A40FDF70AF901214DF21B402A
:1047200000E006E3FDF703F902214DF21C40FDF71E
:10473000FEF834214DF21D40FDF7F9F802214DF24B
:104740001E40FDF7F4F867214DF21F40FDF7EFF82A
:1047500002214DF22040FDF7EAF884214DF221407C
:10476000FDF7E5F802214DF22240FDF7E0F8A42123
:104770004DF22340FDF7DBF802214DF22440FDF716
:10478000D6F8B7214DF22540FDF7D1F802214DF2C0
:104790002640FDF7CCF8CF214DF22740FDF7C7F8B2
:1047A00002214DF22840FDF7C2F8DE214DF22940EA
:1047B000FDF7BDF802214DF22A40FDF7B8F8F221CD
:1047C0004DF22B40FDF7B3F802214DF22C40FDF7DE
:1047D000AEF8FE214DF22D40FDF7A9F803214DF270
:1047E0002E40FDF7A4F810214DF22F40FDF79FF861
:1047F00003214DF23040FDF79AF833214DF231405C
:10480000FDF795F803214DF23240FDF790F86D2148
:104810004DF23340FDF78BF800214FF45540FDF782
:1048200086F833214DF20150FDF781F800214DF259
:104830000250FDF77CF834214DF20350FDF777F874
:1048400000214DF20450FDF772F83A214DF2055067
:10485000FDF76DF800214DF20650FDF768F84A218A
:104860004DF20750FDF763F800214DF20850FDF7B7
:104870005EF85C214DF20950FDF759F800214DF228
:104880000A50FDF754F881214DF20B50FDF74FF817
:1048900000214DF20C50FDF74AF8A6214DF20D50C3
:1048A000FDF745F800214DF20E50FDF740F8E521E7
:1048B0004DF20F50FDF73BF801214DF21050FDF77E
:1048C00036F813214DF21150FDF731F801214DF268
:1048D0001250FDF72CF854214DF21350FDF727F834
:1048E00001214DF21450FDF722F882214DF21550AE
:1048F000FDF71DF801214DF21650FDF718F8CA21F9
:104900004DF21750FDF713F802214DF21850FDF744
:104910000EF800214DF21950FDF709F802214DF271
:104920001A50FDF704F801214DF21B50FCF7FFFF70
:1049300002214DF21C50FCF7FAFF34214DF21D50BC
:10494000FCF7F5FF02214DF21E50FCF7F0FF672146
:104950004DF21F50FCF7EBFF02214DF22050FCF707
:10496000E6FF84214DF22150FCF7E1FF02214DF2D8
:104970002250FCF7DCFFA4214DF22350FCF7D7FFB7
:1049800002214DF22450FCF7D2FFB7214DF2255001
:10499000FCF7CDFF02214DF22650FCF7C8FFCF21D6
:1049A0004DF22750FCF7C3FF02214DF22850FCF7CF
:1049B000BEFFDE214DF22950FCF7B9FF02214DF276
:1049C0002A50FCF7B4FFF2214DF22B50FCF7AFFF59
:1049D00002214DF22C50FCF7AAFFFE214DF22D5082
:1049E000FCF7A5FF03214DF22E50FCF7A0FF10218C
:1049F0004DF22F50FCF79BFF03214DF23050FCF796
:104A000096FF33214DF23150FCF791FF03214DF217
:104A10003250FCF78CFF6D214DF23350FCF787FFCD
:104A200000214FF45640FCF782FF33214DF2016024
:104A3000FCF77DFF00214DF20260FCF778FF342186
:104A40004DF20360FCF773FF00214DF20460FCF7A8
:104A50006EFF3A214DF20560FCF769FF00214DF22F
:104A60000660FCF764FF4A214DF20760FCF75FFF28
:104A700000214DF20860FCF75AFF5C214DF20960FD
:104A8000FCF755FF00214DF20A60FCF750FF812131
:104A90004DF20B60FCF74BFF00214DF20C60FCF770
:104AA00046FFA6214DF20D60FCF741FF00214DF2BB
:104AB0000E60FCF73CFFE5214DF20F60FCF737FF7D
:104AC00001214DF21060FCF732FF13214DF211600D
:104AD000FCF72DFF01214DF21260FCF728FF542155
:104AE0004DF21360FCF723FF01214DF21460FCF737
:104AF0001EFF82214DF21560FCF719FF01214DF2D6
:104B00001660FCF714FFCA214DF21760FCF70FFF87
:104B100002214DF21860FCF70AFF00214DF21960E6
:104B2000FCF705FF02214DF21A60FCF700FF01219E
:104B30004DF21B60FCF7FBFE02214DF21C60FCF7FE
:104B4000F6FE34214DF21D60FCF7F1FE02214DF21C
:104B50001E60FCF7ECFE67214DF21F60FCF7E7FEDC
:104B600002214DF22060FCF7E2FE84214DF221602B
:104B7000FCF7DDFE02214DF22260FCF7D8FEA421F5
:104B80004DF22360FCF7D3FE02214DF22460FCF7C6
:104B9000CEFEB7214DF22560FCF7C9FE02214DF291
:104BA0002660FCF7C4FECF214DF22760FCF7BFFE64
:104BB00002214DF22860FCF7BAFEDE214DF2296099
:104BC000FCF7B5FE02214DF22A60FCF7B0FEF2219F
:104BD0004DF22B60FCF7ABFE02214DF22C60FCF78E
:104BE000A6FEFE214DF22D60FCF7A1FE03214DF241
:104BF0002E60FCF79CFE10214DF22F60FCF797FE13
:104C000003214DF23060FCF792FE33214DF231600A
:104C1000FCF78DFE03214DF23260FCF788FE6D211A
:104C20004DF23360FCF783FE55214FF47040FCF7E2
:104C30007EFEAA214FF20100FCF779FE52214FF2CD
:104C40000200FCF774FE08214FF20300FCF76FFE30
:104C500000214FF20400FCF76AFECC214FF43140F2
:104C6000FCF765FE00214BF20110FCF760FE052108
:104C70004FF43640FCF75BFE70214FF43740FCF7F1
:104C800056FE70214BF20170FCF751FE01214FF4EA
:104C90003840FCF74CFE03214BF60100FCF747FEC1
:104CA00003214BF60200FCF742FE03214BF6030002
:104CB000FCF73DFE02214FF43C40FCF738FE00219A
:104CC0004BF60140FCF733FE00214BF60240FCF7A7
:104CD0002EFED0214FF44940FCF729FE02214CF66C
:104CE0000110FCF724FE50214CF60210FCF71FFEC9
:104CF00050214CF60310FCF71AFE50214CF604101C
:104D0000FCF715FE00214FF45450FCF710FE55211E
:104D10004FF46850FCF70BFE4FF48850FCF7ECFDA5
:104D2000782005F08EFB4FF42450FCF7E5FD01F0F0
:104D30005EB9FE48808849F2253188427ED147F627
:104D4000F001E520FCF7F3FD4FF480710120FCF742
:104D5000EEFD4FF4E0610220FCF7E9FD41F2300185
:104D60000320FCF7E4FD00210420FCF7E0FD40F205
:104D700002210820FCF7DBFD00210920FCF7D7FD0C
:104D800000210A20FCF7D3FD00210C20FCF7CFFD09
:104D900000210D20FCF7CBFD00210F20FCF7C7FD03
:104DA00000211020FCF7C3FD07211120FCF7BFFDF7
:104DB00000211220FCF7BBFD00211320FCF7B7FDFA
:104DC00000210720FCF7B3FD41F290611020FCF7B1
:104DD000AEFD40F227211120FCF7A9FD9D211220F4
:104DE000FCF7A5FD4FF4C8511320FCF7A0FD2521C9
:104DF0002920FCF79CFD0D212B20FCF798FD0721B5
:104E00003020FCF794FD40F203313120FCF78FFD98
:104E100003213220FCF78BFD40F206213520FCF700
:104E200086FD08213620FCF782FD40F2064137203E
:104E3000FCF77DFD4FF44171382000E057E0FCF7AE
:104E400076FD07213920FCF772FD40F202613C201B
:104E5000FCF76DFD08213D20FCF769FD0021502085
:104E6000FCF765FDEF215120FCF761FD0021522088
:104E7000FCF75DFD40F23F115320FCF758FD4FF465
:104E800027416020FCF753FD01216120FCF74FFD15
:104E900000216A20FCF74BFD00218020FCF747FD34
:104EA00000218120FCF743FD00218220FCF73FFD1B
:104EB00000218320FCF73BFD00218420FCF737FD17
:104EC00000218520FCF733FD10219020FCF72FFDF9
:104ED0004FF4C0619220FCF72AFD40F23311072005
:104EE000FCF725FD22210020FCF721FD1FE78F485C
:104EF000808849F2283188427ED141F28F01EC202E
:104F0000FCF715FD41F23421EF20FCF710FD4FF4C2
:104F100080710120FCF70BFD4FF4E0610220FCF7EB
:104F200006FD41F230010320FCF701FD00210420C1
:104F3000FCF7FDFC40F202210820FCF7F8FC002100
:104F40000920FCF7F4FC00210A20FCF7F0FC012109
:104F50000C20FCF7ECFC00210D20FCF7E8FC002104
:104F60000F20FCF7E4FC00211020FCF7E0FC0721F7
:104F70001120FCF7DCFC00211220FCF7D8FC0021FA
:104F80001320FCF7D4FC01210720FCF7D0FC3220D1
:104F900005F081FA41F290411020FCF7C8FC40F284
:104FA00027211120FCF7C3FC322005F074FA8A2176
:104FB0001220FCF7BCFC322005F06DFA4FF4D05102
:104FC0001320FCF7B4FC06212920FCF7B0FC0D21CE
:104FD0002B20FCF7ACFC322005F05DFA00212020EC
:104FE000FCF7A5FC00212120FCF7A1FC322005F0F4
:104FF00052FA0021302000E074E0FCF798FC40F207
:1050000004613120FCF793FC40F205313220FCF7BB
:105010008EFC00213520FCF78AFC40F60941362041
:10502000FCF785FC4FF401713720FCF780FC40F25F
:1050300001313820FCF77BFC40F207713920FCF786
:1050400076FC00213C20FCF772FC40F60A213D2052
:10505000FCF76DFC322005F01EFA00215020FCF711
:1050600066FCEF215120FCF762FC00215220FCF786
:105070005EFC40F23F115320FCF759FC4FF42741EE
:105080006020FCF754FC01216120FCF750FC00215A
:105090006A20FCF74CFC00218020FCF748FC002132
:1050A0008120FCF744FC00218220FCF740FC002119
:1050B0008320FCF73CFC00218420FCF738FC002115
:1050C0008520FCF734FC10219020FCF730FC4FF4D5
:1050D000C0619220FCF72BFC40F233110720FCF753
:1050E00026FC24E61148808849F2203188427DD18F
:1050F00000210846FCF71BFC4FF480710120FCF7EF
:1051000016FC4FF4E0610220FCF711FC41F2300183
:105110000320FCF70CFC00210420FCF708FC40F203
:1051200002210820FCF703FC002101E018230020E5
:105130000920FCF7FCFB00210A20FCF7F8FB012109
:105140000C20FCF7F4FB00210D20FCF7F0FB002104
:105150000F20FCF7ECFB322005F09DF940F2011125
:105160000720FCF7E4FB322005F095F94FF4865157
:105170001020FCF7DCFB07211120FCF7D8FB4FF4D3
:1051800088711220FCF7D3FB4FF430611320FCF739
:10519000CEFB00212920FCF7CAFB44F210012B2092
:1051A000FCF7C5FB00215020FCF7C1FBEF2151208B
:1051B000FCF7BDFB00215220FCF7B9FB40F23F1188
:1051C0005320FCF7B4FB4FF41C516020FCF7AFFBFD
:1051D00001216120FCF7ABFB00216A20FCF7A7FB53
:1051E00000218020FCF7A3FB002100E031E08120BA
:1051F000FCF79DFB00218220FCF799FB0021832016
:10520000FCF795FB00218420FCF791FB0021852011
:10521000FCF78DFB10219020FCF789FB00219220E8
:10522000FCF785FB01219320FCF781FB4FF488718B
:105230009520FCF77CFB00219720FCF778FB0021F0
:105240009820FCF774FB40F273110720FCF76FFB0A
:105250006DE5FE48808849F2313188427DD141F2C6
:105260001401E720FCF763FB4FF480710120FCF789
:105270005EFB4FF400710220FCF759FB41F238014C
:105280000320FCF754FB40F202210820FCF74FFBFF
:1052900000210920FCF74BFB00210A20FCF747FB0B
:1052A00000210C20FCF743FB00210D20FCF73FFB05
:1052B00000210F20FCF73BFB00211020FCF737FBFF
:1052C00007211120FCF733FB00211220FCF72FFBF4
:1052D00000211320FCF72BFBC82005F0DCF841F27D
:1052E00090611020FCF723FB40F227211120FCF7EE
:1052F0001EFB322005F0CFF80C211220FCF717FB23
:10530000322005F0C8F84FF400611320FCF70FFBC2
:1053100011212920FCF70BFB0B212B20FCF707FBAD
:10532000322005F0B8F800212020FCF700FB40F205
:105330003F112120FCF7FBFA00213020FCF7F7FA9F
:105340004FF483713120FCF7F2FA00213220FCF790
:10535000EEFA4FF40171352000E064E0FCF7E7FA63
:1053600041F20A613620FCF7E2FA40F20771372079
:10537000FCF7DDFA4FF483713820FCF7D8FA40F2DD
:1053800007713920FCF7D3FA40F202413C20FCF7C8
:10539000CEFA40F60F413D20FCF7C9FA002150201B
:1053A000FCF7C5FAEF215120FCF7C1FA0021522089
:1053B000FCF7BDFA40F23F115320FCF7B8FA4FF466
:1053C0001C516020FCF7B3FA01216120FCF7AFFA11
:1053D00000216A20FCF7ABFA00218020FCF7A7FA35
:1053E00000218120FCF7A3FA00218220FCF79FFA1C
:1053F00000218320FCF79BFA00218420FCF797FA18
:1054000000218520FCF793FA10219020FCF78FFAF9
:105410004FF4C0619220FCF78AFA40F23311072062
:10542000FCF785FA83E48948808845F20841884280
:105430007ED14FF480710120FCF779FA4FF4E061DE
:105440000220FCF774FA41F230010320FCF76FFAF6
:1054500000210420FCF76BFA40F207210820FCF73A
:1054600066FA00210920FCF762FA00210A20FCF705
:105470005EFA00210C20FCF75AFA00210D20FCF7FF
:1054800056FA00210F20FCF752FA142005F003F819
:1054900041F2B0611020FCF74AFA01211120FCF71B
:1054A00046FA01211720FCF742FA4FF49C711220B2
:1054B000FCF73DFA4FF400611320FCF738FA09219C
:1054C0002920FCF734FA09212A20FCF730FA0021C0
:1054D000A420FCF72CFA00215020FCF728FAEF2139
:1054E0005120FCF724FA00215220FCF720FA40F268
:1054F0003F115320FCF71BFA4FF41C516020FCF7BE
:1055000016FA01216120FCF712FA00216A20FCF74B
:105510000EFA00218020FCF70AFA00218120FCF716
:1055200006FA00218220FCF702FA0021832000E025
:1055300023E0FCF7FCF900218420FCF7F8F90021B6
:105540008520FCF7F4F913219020FCF7F0F90021F5
:105550009220FCF7ECF903219320FCF7E8F94FF4D3
:1055600088719520FCF7E3F940F273110720FCF7EE
:10557000DEF9322004F08FFFB8E43448808841F22D
:10558000055188427ED100210720FCF7D0F9322056
:1055900004F081FF4FF48E711220FCF7C8F901214D
:1055A000A420FCF7C4F90F210820FCF7C0F908215A
:1055B0000A20FCF7BCF908210D20FCF7B8F940F2ED
:1055C00007713020FCF7B3F907213120FCF7AFF960
:1055D00040F203613220FCF7AAF94FF4E061332076
:1055E000FCF7A5F940F202213420FCF7A0F90221D2
:1055F0003520FCF79CF941F60F713620FCF797F93E
:1056000040F207713720FCF792F900213820FCF7AF
:105610008EF900213920FCF78AF940F207713A200F
:10562000FCF785F900213B20FCF781F907213C209C
:10563000FCF77DF900213D20FCF779F9322004F0D8
:105640002AFF01210720FCF772F901E0182300204E
:1056500001211720FCF76BF9322004F01CFF4FF4F6
:10566000BD511020FCF763F940F217211120FCF71F
:105670005EF94FF48F711220FCF759F94FF4706105
:10568000132000E097E0FCF752F900212A20FCF7F4
:105690004EF90A212920FCF74AF94FF49F71122094
:1056A000FCF745F900215020FCF741F9EF2151208A
:1056B000FCF73DF900215220FCF739F940F23F1187
:1056C0005320FCF734F94FF41C516020FCF72FF9FC
:1056D00001216120FCF72BF900216A20FCF727F952
:1056E00000218020FCF723F900218120FCF71FF91D
:1056F00000218220FCF71BF900218320FCF717F919
:1057000000218420FCF713F900218520FCF70FF914
:1057100013219020FCF70BF94FF440719220FCF715
:1057200006F905219320FCF702F900219520FCF7EA
:10573000FEF800219720FCF7FAF800219820FCF7EA
:10574000F6F84FF480710120FCF7F1F84FF4E061B6
:105750000220FCF7ECF841F238010320FCF7E7F8EF
:1057600000210420FCF7E3F800210C20FCF7DFF80F
:1057700000210F20FCF7DBF800212020FCF7D7F8F0
:1057800000212120FCF7D3F821210720FCF7CFF8D6
:10579000142004F080FE61210720FCF7C8F81420D3
:1057A00004F079FE40F273110720FCF7C0F81420D2
:1057B00004F071FE95E4FE4880884BF20551884262
:1057C0007ED100210846FCF7B2F800210846FCF71C
:1057D000AEF800210846FCF7AAF800210846FCF7BD
:1057E000A6F80121A420FCF7A2F8142004F053FE2F
:1057F0004FF41C516020FCF79AF840F20221082077
:10580000FCF795F84FF405713020FCF790F843F25F
:1058100015713120FCF78BF840F204613220FCF75F
:1058200086F840F616613320FCF781F842F2112128
:105830003420FCF77CF84FF4A8513520FCF777F8BA
:1058400048F207513620FCF772F841F20741372041
:10585000FCF76DF841F203413820FCF768F820218D
:105860003920FCF764F81A219020FCF760F8002139
:105870001020FCF75CF807211120FCF758F80021F4
:105880001220FCF754F800211320FCF750F81420E4
:1058900004F001FE4FF4E6611020FCF748F840F2F6
:1058A00037111120FCF743F8142004F0F4FD4FF4F5
:1058B000DC711220FCF73BF8142004F0ECFD00E052
:1058C00083E04FF470611320FCF731F880212A2027
:1058D000FCF72DF848212920FCF729F8142004F0C2
:1058E000DAFD4FF480710120FCF721F84FF4E061FC
:1058F0000220FCF71CF841F238010320FCF717F8EE
:1059000040F202210820FCF712F800210A20FCF7DF
:105910000EF800210C20FCF70AF800210D20FCF7FE
:1059200006F830210E20FCF702F800215020FBF78A
:10593000FEFFEF215120FBF7FAFF00215220FBF779
:10594000F6FF40F23F115320FBF7F1FF4FF41C51DB
:105950006020FBF7ECFF01216120FBF7E8FF00214D
:105960006A20FBF7E4FF11219020FBF7E0FF4FF4E2
:10597000C0619220FBF7DBFF40F202419320FBF76E
:10598000D6FF02219420FBF7D2FF142004F083FD00
:1059900001210720FBF7CBFF142004F07CFD6121DF
:1059A0000720FBF7C4FF40F273110720FBF7BFFF8E
:1059B00000212020FBF7BBFF00212120FBF7B7FFD0
:1059C00022210020FBF7B3FF11E3794880884CF2D5
:1059D000055188427ED100210846FBF7A8FF00212F
:1059E0000846FBF7A4FF142004F055FD00210846EB
:1059F000FBF79DFF00210846FBF799FF00210846B1
:105A0000FBF795FF00210846FBF791FF0121A42039
:105A1000FBF78DFF142004F03EFD4FF41C51602075
:105A2000FBF785FF40F606010820FBF780FF40F2F8
:105A300003713020FBF77BFF01213120FBF777FF5B
:105A400004213220FBF773FF4FF481713320FBF701
:105A50006EFF4FF440713420FBF769FF40F20311F1
:105A60003520FBF764FF1F213620FBF760FF40F273
:105A700003713720FBF75BFF01213820FBF757FF4D
:105A800004213920FBF753FF15219020FBF74FFF2E
:105A90004FF482611020FBF74AFF40F247211120AA
:105AA000FBF745FF4FF4DE711220FBF740FF4FF488
:105AB00060611320FBF73BFF782004F0ECFC4FF40F
:105AC00080710120FBF733FF4FF400710220FBF7D8
:105AD0002EFF00E050E041F230010320FBF727FFEA
